:100000002DC100005CC100005AC1000058C10000B1
:1000100056C1000054C1000052C1000050C1000090
:100020004EC100004CC100004AC1000048C10000A0
:1000300046C1000078C4000042C1000040C1000079
:100040003EC100003CC100003AC1000038C10000C0
:1000500036C1000034C1000032C100001AC40000E3
:100060002EC10000EDC30000C2C3000028C1000083
:1000700026C1000024C1000022C1000020C10000F0
:100080001EC100001CC100001AC1000018C1000000
:1000900085C300005AC3000012C1000010C1000057
:1000A0000EC100000CC100000AC1000008C1000020
:1000B00006C1000004C1000002C1000000C1000030
:1000C000FEC00000FCC00000FAC00000F8C0000044
:1000D000F6C00000F4C00000F2C00000F0C0000054
:1000E000EEC000005607560764077C076F078507B8
:1000F0008E079E07B107ED07036EDB363D9A99998F
:10010000993DABAAAA2A3E000000803F084AD73B8F
:100110003BCE016E84BCBFFDC12F3D6C74319ABDD6
:1001200056833DDA3D00C77F11BED9E4BB4C3E91FA
:100130006BAAAABE000000803F072C7AA5BA6CC546
:1001400090DA3B9365FC8BBC53F810FD3C569283D0
:100150004DBD879D3AB63DCBC9BF5BBE73DA0FC9B3
:100160003F05A84CCDB2D44EB93836A9020C50B9CF
:10017000918688083CA6AAAA2ABE000000803F00FB
:1001800000002100240027002A002D003000330049
:1001900001010000040107010A0100002000230002
:1001A000260029002C002F0032000001000003016E
:1001B0000601090100002200250028002B002E0066
:1001C0003100340002010000050108010B010505A2
:1001D0000505070508080808020202020A0A0808BD
:1001E00004040404010101010101010103030303EB
:1001F00003030303040707070C0C0C0C0C0C0C0C7A
:100200000202020206060606060606060B0B0B0B8A
:100210000B0B0B0B010210202008081020401020AF
:1002200040800201020108040201010204081020BA
:1002300040808040201008040201800402018040B8
:100240002010080402010804020101020408102021
:1002500040800102040810204080660E11241FBE59
:10026000CFEFD1E2DEBFCDBF00E00CBF14E0A0E0D5
:10027000B2E0ECEDF5E200E00BBF02C007900D929A
:10028000A836B107D9F72AE0A8E6B4E001C01D926C
:10029000A935B207E1F711E0CEE2D1E000E006C0F7
:1002A00021970109802FFE010E94D712CD32D1077C
:1002B00080E00807A9F70E94DC090C94EC12A0CE9C
:1002C000FC01A089B1898C91A689B78982FD0FC0F4
:1002D0009C91818D8F5F8F73228D821749F0218DC4
:1002E000DF01A20FB11D5D969C93818F08958C91C3
:1002F0000895089580E090E00895FC01538D448DA9
:10030000252F30E0842F90E0821B930B541710F0C0
:10031000CF96089501970895FC01918D828D9817CD
:1003200061F0828DDF01A80FB11D5D968C91928DD9
:100330009F5F9F73928F90E008958FEF9FEF0895D6
:10034000FC01918D828D981731F0828DE80FF11D9F
:10035000858D90E008958FEF9FEF0895FC01918DBA
:10036000228D892F90E0805C9F4F821B91098F73B3
:10037000992708958DEC94E0F1DF21E0892B09F4B1
:1003800020E0822F08958AE695E0E8DF21E0892BBE
:1003900009F420E0822F0895FC01848DDF01A80F6D
:1003A000B11DA35ABF4F2C91848D90E001968F739D
:1003B0009927848FA689B7892C93A089B1898C91BC
:1003C00080648C93938D848D981306C00288F38982
:1003D000E02D80818F7D80830895EF92FF920F93AF
:1003E0001F93CF93DF93EC0181E0888F9B8D8C8DE1
:1003F000981305C0E889F989808185FD23C0F62E10
:100400000B8D10E00F5F1F4F0F731127E02E8C8DA7
:10041000E8120BC00FB607FCFACFE889F989808192
:1004200085FFF5CFCE01B8DFF2CF8B8DFE01E80F4F
:10043000F11DE35AFF4FF0820B8FEA89FB8980811F
:10044000806207C0EE89FF896083E889F98980812D
:100450008064808381E090E0DF91CF911F910F91C4
:10046000FF90EF900895CF93DF93EC01888D882360
:10047000C1F0EA89FB89808185FD05C0A889B98919
:100480008C9186FD0EC00FB607FCF5CF808185FFED
:10049000F2CFA889B9898C9185FFEDCFCE017CDFA1
:1004A000E8CFDF91CF91089580E090E0892B19F09B
:1004B0006ADF811120C080E090E0892B19F05ADFBB
:1004C00081111CC080E090E0892B41F080E090E039
:1004D000892B21F00E940000811113C080E090E080
:1004E000892BA1F080E090E0892B81F00E94000030
:1004F00081110AC008950E940000DDCF0E94000013
:10050000E1CF0E940000EACF0C94000008953FB7AD
:10051000F8948091730490917404A0917504B09143
:10052000760426B5A89B05C02F3F19F00196A11DA2
:10053000B11D3FBFBA2FA92F982F8827820F911D79
:10054000A11DB11DBC01CD0142E0660F771F881FC0
:10055000991F4A95D1F70895CF93DF93EB014B8113
:1005600050E0485F5F4F6E5F7F4F0E94E3128B81C8
:1005700090E00896DF91CF910895CF93DF93CDB7A8
:10058000DEB7CC51D1400FB6F894DEBF0FBECDBF61
:100590008DEC94E0E3DE181619060CF03BC08DECF0
:1005A00094E0BADEAE014F5E5E4FBE016F5F7F4FDB
:1005B00067D4882369F38AE193E070D582E193E000
:1005C00039D6688570E080E090E04AE09DD58CE106
:1005D00093E053D588858132C9F489899A89AB899A
:1005E000BC894D855E856F85788940937C045093E6
:1005F0007D0460937E0470937F04809380049093C5
:100600008104A0938204B0938304C2CF8FE193E06E
:1006100045D5BECFC45EDE4F0FB6F894DEBF0FBE29
:10062000CDBFDF91CF9108954F925F926F927F92ED
:10063000AF92BF92CF92DF92EF92FF920F931F93F0
:10064000CF93DF93CDB7DEB7CC51D1400FB6F8943E
:10065000DEBF0FBECDBF88EEC82E83E0D82EE12CC2
:10066000F12C04E610E08DEC94E078DE1816190603
:100670000CF055C08DEC94E04FDEAE014F5E5E4F46
:10068000BE016F5F7F4FFCD3882369F38AE193E05B
:1006900005D582E193E0CED5688570E080E090E0FA
:1006A0004AE032D58CE193E0E8D48885813299F52F
:1006B00049885A886B887C886D897E898F89988D56
:1006C000ABA0BCA02D853E854F85588920938E0414
:1006D00030938F044093900450939104409292047D
:1006E000509293046092940470929504A70196012D
:1006F0000E94BB1220939604309397044093980471
:1007000050939904C501B8010E94851270939B040F
:1007100060939A04A8CF8FE193E0C0D4A4CFC45EC5
:10072000DE4F0FB6F894DEBF0FBECDBFDF91CF9185
:100730001F910F91FF90EF90DF90CF90BF90AF90FF
:100740007F906F905F904F9008951F920F920FB619
:100750000F9211240BB60F922F933F934F935F93F9
:100760006F937F938F939F93AF93BF93EF93FF9379
:100770008DEC94E011DEFF91EF91BF91AF919F91CD
:100780008F917F916F915F914F913F912F910F903A
:100790000BBE0F900FBE0F901F9018951F920F92D7
:1007A0000FB60F9211240BB60F922F933F934F93D6
:1007B0005F936F937F938F939F93AF93BF93EF93C9
:1007C000FF938DEC94E07CDDFF91EF91BF91AF91B1
:1007D0009F918F917F916F915F914F913F912F9159
:1007E0000F900BBE0F900FBE0F901F9018951F9289
:1007F0000F920FB60F9211240BB60F922F933F93C7
:100800004F935F936F937F938F939F93AF93BF9318
:10081000EF93FF938AE695E0BFDDFF91EF91BF91E3
:10082000AF919F918F917F916F915F914F913F9188
:100830002F910F900BBE0F900FBE0F901F90189529
:100840001F920F920FB60F9211240BB60F922F9397
:100850003F934F935F936F937F938F939F93AF9348
:10086000BF93EF93FF938AE695E02ADDFF91EF9126
:10087000BF91AF919F918F917F916F915F914F91B8
:100880003F912F910F900BBE0F900FBE0F901F90B6
:1008900018951F920F920FB60F9211242F933F932A
:1008A0008F939F93AF93BF9380916F049091700447
:1008B000A0917104B091720430916E0423E0230F73
:1008C0002D3720F40196A11DB11D05C026E8230F88
:1008D0000296A11DB11D20936E0480936F04909326
:1008E0007004A0937104B09372048091730490918A
:1008F0007404A0917504B09176040196A11DB11DF8
:100900008093730490937404A0937504B093760459
:10091000BF91AF919F918F913F912F910F900FBEFB
:100920000F901F9018951F920F920FB60F921124DF
:100930000BB60F922F933F934F935F936F937F93D9
:100940008F939F93AF93BF93EF93FF93E0916C04CA
:10095000F0916D041995FF91EF91BF91AF919F9127
:100960008F917F916F915F914F913F912F910F9058
:100970000BBE0F900FBE0F901F901895FB012081AA
:10098000822790E1899F900111242827822F90E0EF
:10099000582F44279C0163E0220F331F6A95E1F72B
:1009A00042275327218130E02427352774E095958D
:1009B00087957A95E1F7822793279183808308951D
:1009C0008F929F92AF92BF92CF92DF92EF92FF925F
:1009D0000F93CF93DF931F921F92CDB7DEB77C01A9
:1009E0008EEFF70182832383658346839091A4046D
:1009F00094839F5F9093A404C22ED12C8FEF9FEF1E
:100A00009A83898356014701F3E08F0E911CBE0142
:100A10006F5F7F4FF40181914F01B0DFF1E0AF1ABA
:100A2000B1088BEFA8168FEFB80689F7BE016F5F8C
:100A30007F4F802FA3DFC701089639812A81F701F4
:100A40004381FC01E40FF11D3083F7013381FC0188
:100A5000E30FF11D2183C60108960F900F90DF91DF
:100A6000CF910F91FF90EF90DF90CF90BF90AF901C
:100A70009F908F9008950F93CF93DF93CDB7DEB7FC
:100A8000C751D2400FB6F894DEBF0FBECDBF198656
:100A90001A861B861C861D861E861F86188A198A42
:100AA0001A8A1B8A1C8A1D8A1E8A1F8A188E198E12
:100AB0001A8E1B8E1C8E1D8E1E8E1F8E18A219A2C2
:100AC0001AA21BA21CA284E190E09EA38DA381E048
:100AD0008FA318A619A68CE4888708E921E242E3CF
:100AE00064E6CE0101966CDFBE016F5F7F4FCE01E1
:100AF0008F5E9E4F31DDAC01BE016F5E7E4F8DEC8F
:100B000094E091D1C95EDD4F0FB6F894DEBF0FBE01
:100B1000CDBFDF91CF910F9108958F929F92AF92A9
:100B2000BF92CF92DF92EF92FF920F931F93CF93DA
:100B3000DF93CDB7DEB7C751D2400FB6F894DEBF12
:100B40000FBECDBF60919604709197048091980478
:100B5000909199040E9479106B017C016091850449
:100B60007091860480918704909188040E94791086
:100B70004B015C016091890470918A0480918B041F
:100B800090918C040E94791019861A861B861C8607
:100B900000E010E020E83FE30D871E872F87388BA9
:100BA000198A1A8A1B8A1C8A1D8A1E8A1F8A188E15
:100BB000698F7A8F8B8F9C8F8D8E9E8EAF8EB8A211
:100BC000C9A2DAA2EBA2FCA280EC90E09EA38DA3C6
:100BD00081E08FA318A68FEF89A78CE4888708E9A6
:100BE00021E242E364E6CE010196EADEBE016F5FD8
:100BF0007F4FCE018F5E9E4FAFDCAC01BE016F5EBA
:100C00007E4F8DEC94E00FD1C95EDD4F0FB6F894A6
:100C1000DEBF0FBECDBFDF91CF911F910F91FF902F
:100C2000EF90DF90CF90BF90AF909F908F900895FE
:100C30000F93CF93DF93CDB7DEB7C751D2400FB636
:100C4000F894DEBF0FBECDBF19861A861B861C86A0
:100C50001D861E861F86188A198A1A8A1B8A1C8A74
:100C60001D8A1E8A1F8A188E198E1A8E1B8E1C8E44
:100C70001D8E1E8E1F8E18A219A21AA21BA21CA2C4
:100C800081EC90E09EA38DA381E08FA318A619A606
:100C90008CE4888708E921E242E364E6CE0101960C
:100CA0008FDEBE016F5F7F4FCE018F5E9E4F54DCA3
:100CB000AC01BE016F5E7E4F8DEC94E0B4D0C95E96
:100CC000DD4F0FB6F894DEBF0FBECDBFDF91CF91E1
:100CD0000F9108958F929F92AF92BF92CF92DF9221
:100CE000EF92FF920F93CF93DF93CDB7DEB7C7514B
:100CF000D2400FB6F894DEBF0FBECDBF7C012FB738
:100D0000F89460916F0470917004809171049091D7
:100D100072042FBF2AE0E8E3F3E0A1E1B1E0AC0FF9
:100D2000BD1F189601900D922A95E1F728EE33E049
:100D300040E050E00E949912CF5EDE4F2883398355
:100D40004A835B83C151D140C701FF0CAA0BBB0B87
:100D5000CB5EDE4F88839983AA83BB83C551D14084
:100D600082E1FE01EF5EFE4FDE01199601900D92C9
:100D70008A95E1F78CEF88870CE222E140E061E0A0
:100D8000CE0101961DDEBE016F5F7F4FCE018F5EEB
:100D90009E4FE2DBAC01BE016F5E7E4F8DEC94E0B6
:100DA00042D0B5DB4B015C0184E6C82ED12CE12C8E
:100DB000F12CADDBDC01CB0188199909AA09BB092B
:100DC000883E9340A105B10558F021E0C21AD10830
:100DD000E108F10888EE880E83E0981EA11CB11C82
:100DE000C114D104E104F10421F7C95EDD4F0FB64F
:100DF000F894DEBF0FBECDBFDF91CF910F91FF9072
:100E0000EF90DF90CF90BF90AF909F908F9008951C
:100E1000E0916A05F0916B050190F081E02D682F5B
:100E20008AE695E01994CF92DF92EF92FF920F93AA
:100E30001F93CF93DF936C017A018B01C0E0D0E068
:100E4000CE15DF0589F0D8016D918D01D601ED91A8
:100E5000FC910190F081E02DC6011995892B11F4C8
:100E60007E0102C02196ECCFC701DF91CF911F9187
:100E70000F91FF90EF90DF90CF9008950E94DF12C6
:100E80000F931F93CF93DF93C82F8A0110929D0475
:100E9000E091A004F091A104EA30F10508F0BDC092
:100EA0008827EE58FF4F8F4F0C94D712CE3F09F092
:100EB000B4C082E090E09093A1048093A0041092CB
:100EC0001C06C0931B0675C0C0931C061092A2049A
:100ED00069E176E08C2F52DD84E090E008C0C09399
:100EE0001D0669E176E08C2F49DD83E090E0909368
:100EF000A1048093A00491C0C0931E0669E176E02E
:100F00008C2F3CDD85E090E0F2CFC0931F0669E1B5
:100F100076E08C2F33DD86E090E0E9CFC0932006A9
:100F200069E176E08C2F2ADD80911C06811103C0D7
:100F300088E090E0DCCF87E090E0D9CFE091A20498
:100F4000D1E0DE0FD093A204F0E0EF5DF94FC08353
:100F500069E176E08C2F12DD80911C06D8135DC00C
:100F6000E7CFE0912006F0E0E050FE4F69E176E047
:100F7000808104DD2C2F30E08091190690911A06B3
:100F8000992728173907E1F080919F048F5F80939C
:100F90009F0481E090E09093A1048093A004CE3F51
:100FA000E1F582E090E09093A1048093A004109278
:100FB0001C068FEF9FEF90931A06809319062DC0A1
:100FC00089E090E09093A1048093A004E091A204B2
:100FD000F0E0EF5DF94FC08320C02C2F30E080910E
:100FE0001A0690E02817390779F681E080939D046E
:100FF00081E090E09093A1048093A004E091A2048A
:10100000F0E0EE5DF94FC08380E191E0E9E1F6E0C8
:10101000DB0101900D920197E1F780919D048130F1
:10102000A9F490911D069093A3042091A5043091FA
:10103000A6042115310521F41092A8041092A704EA
:101040002F5F3F4F3093A6042093A5049091A304F3
:101050009F5FF80196832091A5043091A604318703
:10106000208720919F0430E03387228710929F04CD
:10107000DF91CF911F910F910895009761F0FC01CE
:1010800001900020E9F73197AF01481B590BBC01D3
:101090008AE695E0C8CE80E090E00895CF93DF9394
:1010A000ECDFEC018CE193E0E8DF8C0F9D1FDF911A
:1010B000CF910895FC01A089B18982E08C93A08929
:1010C000B1891C92A485B5851C92A685B78580E15F
:1010D0008C93108EA489B58986E08C93A289B389FC
:1010E0008C9180618C93A289B3898C9188608C9358
:1010F000A289B3898C9180688C930288F389E02D52
:1011000080818F7D808308958F929F92AF92BF924E
:101110000F931F93CF93DF93CDB7DEB7A1970FB691
:10112000F894DEBF0FBECDBF19A2423008F44AE0EA
:101130008E010F5D1F4F842E912CA12CB12CA50187
:1011400094010E949912E62FB901CA0101501109B8
:10115000EA3014F4E05D01C0E95CD801EC93232B84
:10116000242B252B61F7C80188DFA1960FB6F894D0
:10117000DEBF0FBECDBFDF91CF911F910F91BF900A
:10118000AF909F908F900895CF92DF92EF92FF9251
:10119000CF93DF936C01990FEE08FF08F7FE10C0A4
:1011A0008DE236DEEC0166277727CB016C197D09CD
:1011B0008E099F094AE0A8DF7C01EC0EFD1E05C0E8
:1011C0004AE0C701B601A0DF7C018CE193E055DF66
:1011D0008E0D9F1DDF91CF91FF90EF90DF90CF900C
:1011E0000895CF92DF92EF92FF92CF93DF936B013E
:1011F0007C0197FF10C08DE20BDEEC01662777279C
:10120000CB016C197D098E099F094AE07DDF7C01C5
:10121000EC0EFD1E03C04AE077DF7C018CE193E019
:101220002CDF8E0D9F1DDF91CF91FF90EF90DF900F
:10123000CF90089522CF4F925F926F927F928F92BC
:101240009F92AF92BF92CF92DF92EF92FF92CF9395
:10125000DF936B017C01B42E9B01AC010E946C12E8
:10126000882319F08CE594E019C026013701E89431
:1012700077F82FEF3FEF4FE75FE7C301B2010E941E
:101280006C1281110EC02FEF3FEF4FE75FE7C301F4
:10129000B2018DD618162CF480E694E0EEDEEC0157
:1012A00077C02FEF3FEF4FE75FE4C701B6010E9421
:1012B000B31118161CF484E694E0F0CF2FEF3FEF43
:1012C0004FE75FECC701B60172D687FDF4CF20E08F
:1012D00030E0A901C701B6016AD687FF08C08DE2D8
:1012E00097DDEC01F7FAF094F7F8F09402C0C0E053
:1012F000D0E0A12C60E070E080E09FE3AB1438F414
:1013000020E030E040E251E459D6A394F7CF9B01AE
:10131000AC01C701B6016ED52B013C01BCD66B01F7
:101320007C01E5D69B01AC01C301B20162D52B0162
:101330003C014AE0C701B601E7DEC80FD91FBB2058
:1013400021F08EE265DDC80FD91FFB2CFF2001F1D3
:1013500020E030E040E251E4C301B2010E94BE113E
:101360002B013C0198D64B01A12CB12C4AE0C501C0
:10137000B401CADEC80FD91FC501B401B8D69B019C
:10138000AC01C301B20135D52B013C01FA94DECF8B
:101390008CE193E072DE8C0F9D1FDF91CF91FF9067
:1013A000EF90DF90CF90BF90AF909F908F907F9005
:1013B0006F905F904F900895CF93DF93CDB7DEB7D6
:1013C000E9970FB6F894DEBF0FBECDBF789484B511
:1013D000826084BD84B5816084BD85B5826085BD31
:1013E00085B5816085BD80916E00816080936E00BF
:1013F00010928100809181008260809381008091B1
:101400008100816080938100809180008160809361
:1014100080008091B10084608093B1008091B00021
:1014200081608093B00080919100826080939100F0
:101430008091910081608093910080919000816003
:10144000809390008091A10082608093A1008091A0
:10145000A10081608093A1008091A00081608093B1
:10146000A00080912101826080932101809121015F
:10147000816080932101809120018160809320010F
:1014800080917A00846080937A0080917A008260F3
:1014900080937A0080917A00816080937A008091B5
:1014A0007A00806880937A001092C1008DEC94E0FD
:1014B00001DE8AE695E0FEDD9E012B5E3F4F3AA3FA
:1014C00029A3AE01415E5F4F5CA34BA3B1DBC0908B
:1014D0000B06D0900C0620900D0630900E068091E1
:1014E0000F06909110069EA78DA7A0911106B091AE
:1014F0001206BEA3ADA380911306909114068E012F
:101500000F5F1F4F1AA709A72C01612C712CA30193
:1015100092012855394E4F4F5F4F28AB39AB4AAB3C
:101520005BABAC01455051095DAB4CABE12CF12CF0
:10153000FC2DF095FFA7ADA1BEA18C918C298C93B9
:10154000F1018081FFA58F23D1018C938BE090E086
:101550000197F1F7F10180818C29808383E290E08B
:101560000197F1F78C91BFA58B238083ADA1BEA11C
:101570008C91BFA58B23EDA1FEA18083ADA5BEA557
:101580008C918D21A9F50E94870288A899A8AAA804
:10159000BBA8860E971EA81EB91EEDA5FEA58081CC
:1015A0008D2141F40E94870286169706A806B90687
:1015B000A0F71EC00E9487024B015C01840C951CA1
:1015C000A61CB71CADA5BEA58C918D2141F00E9433
:1015D000870286169706A806B906A0F709C00E94DA
:1015E00087022CA93DA928193909620F731F02C06F
:1015F00060E070E080E090E029E330E040E050E01F
:1016000098D7F701EE0FFF1F81E090E08C0F9D1F30
:10161000E80FF91F358B248B232B242B252B19F452
:1016200091E0E91AF108AFEFEA1AFA0AB6E0EB1610
:10163000F1040CF480CF86E090E0FE01759620E086
:1016400030E062817381419151916417750744F4D0
:10165000DF0112976D937C935183408321E030E04A
:101660004BA15CA1E417F50761F7019711F0232B5B
:1016700021F72D893E898F8D98A1820F931F97FDA9
:10168000019695958795A9A5BAA58D939D93BAA71F
:10169000A9A7E9A1FAA1AE17BF0709F047CFE980D2
:1016A000FA80BE016D5E7F4F20E030E081E090E087
:1016B000D8014D915D918D01ED91FC914E175F0721
:1016C00039F40196281739072CF47A019C0102C0DD
:1016D00081E090E00617170759F7C70155DDC701EC
:1016E000F9DA88E493E0A6DDC7014EDDB5E6EB1636
:1016F000F1042CF010929C0486E593E005C081E093
:1017000080939C048EE693E0C9DC80919C0488233E
:1017100009F4D9C28DDA83E893E0C0DC11E080914E
:101720008D04811136C00E94140380919A04909117
:101730009B04409196045091970460919804709195
:101740009904C0909204D0909304E0909404F09097
:10175000950480908E0490908F04A0909004B09097
:101760009104181419041A041B0484F41C141D0495
:101770001E041F045CF4141615061606170634F42E
:10178000181619061CF410938D04C9CF10928D04FD
:10179000C6CF8EE194E04EDD60918E0470918F048F
:1017A00080919004909191041CDD84E993E042DDE6
:1017B00060919204709193048091940490919504A7
:1017C00010DD82EA93E036DD609196047091970413
:1017D000809198049091990404DD80EB93E02ADDD8
:1017E00080919A0490919B04CFDCE0909A04F09051
:1017F0009B0460918E0470918F048091900490916D
:10180000910477D420E836E948E15BE4D7D32B0193
:101810003C016091920470919304809194049091A2
:10182000950467D420E836E948E15BE4C7D369A7AB
:101830007AA78BA79CA7E4E0EE16E1E0FE0624F46D
:10184000F4E6EF0EF11C04C024E0E21A21E0F20AF3
:1018500047010F2C000CAA08BB08809277049092D5
:101860007804A0927904B0927A048DEB93E0E2DCE4
:10187000C7018ADC25E33AEF4EE85CE3C301B2011D
:101880007DD56B017C01C501B40133D425E33AEF6A
:101890004EE85CE373D52B013C01C701B601D1D5FD
:1018A0004B015C01C701B60186D36DA37EA38FA354
:1018B00098A7C301B2017FD36B017C0128E73BEA03
:1018C00042E555E36DA17EA18FA198A557D5A7014B
:1018D000960154D59B01AC01C501B4018BD2EED267
:1018E0006B017C01AED59B01AC01C301B2012EABF3
:1018F0003FAB48AF59AFA5D52B013C012EA93FA95D
:1019000048AD59ADC501B40139D59B01AC0160E0CA
:1019100070E080E89FE36DD24B015C0128E73BEA71
:1019200042E555E3C301B20129D52DA13EA14FA146
:1019300058A524D5A5019401E7D24B015C0120E014
:1019400030E044E353E4C701B60118D52BED3FE086
:1019500049E450E433D36B017C0125E33AEF4EE8D0
:101960005CE369A57AA58BA59CA508D5A501940182
:1019700041D220E030E044E353E400D52BED3FE0DA
:1019800049E450E41BD34B015C0183ED93E052DC4E
:1019900048E050E0C701B6014EDC85EE93E04ADC3A
:1019A00048E050E0C501B40146DC20E836E948E1F2
:1019B0005BE4C701B601E2D469D3609389047093F4
:1019C0008A0480938B0490938C0420E836E948E1E4
:1019D0005BE4C501B401D2D459D3609385047093FC
:1019E0008604809387049093880488EF93E022DC38
:1019F0006091890470918A0480918B0490918C0489
:101A0000F0DB87E094E016DC609185047091860439
:101A10008091870490918804E4DB87E194E00ADCFC
:101A20006091890470918A0480918B0490918C0458
:101A3000D8DB8CE294E0FEDB609185047091860433
:101A40008091870490918804CCDB809189049091E7
:101A50008A04A0918B04B0918C04892B8A2B8B2B48
:101A600081F08091850490918604A0918704B091C3
:101A70008804892B8A2B8B2B21F081E080938404AE
:101A80004CD811E080918404882309F4CDC00E94D1
:101A9000BD026091890470918A0480918B049091B9
:101AA0008C0427D320E836E948E15BE487D22BEDAC
:101AB0003FE049E450E462D420E030E044E353E402
:101AC0007DD22B013C0160917C0470917D0480915A
:101AD0007E0490917F040DD320E836E948E15BE471
:101AE0006DD22BED3FE049E450E448D420E030E0F3
:101AF00044E353E463D24B015C01A301920179D129
:101B000020E030E040E05FE339D49BD46DA37EA3B6
:101B10008FA398A7609180047091810480918204C2
:101B200090918304E6D220E836E948E15BE446D2AE
:101B30002BED3FE049E450E421D420E030E044E3E1
:101B400053E43CD26B017C01609185047091860462
:101B50008091870490918804CCD220E836E948E14E
:101B60005BE42CD22BED3FE049E450E407D420E0C5
:101B700030E044E353E422D29B01AC01C701B6013B
:101B800038D120E030E040E05FE3F8D35AD46B0175
:101B90007C01C301B2010FD22B013C01C501B4018C
:101BA0000AD269A77AA78BA79CA72DA13EA14FA116
:101BB00058A5CA01B901E2D34B015C0129A53AA598
:101BC0004BA55CA5C301B201D9D3A7019601D6D319
:101BD000A7019601D3D39B01AC01C501B4010AD181
:101BE0003AD46CD120E038E147E456E4C7D320E092
:101BF00030E04AE754E4C2D36B017C0182E494E014
:101C000019DB42E050E0C701B60115DB20E030E00F
:101C100040E05FE3C701B601CAD187FF33CF10921E
:101C2000840410937B042ECF80917B0481110E9449
:101C30003B0510929C0410928D0410927B0410922C
:101C40008E0410928F0410929004109291041092BE
:101C5000920410929304109294041092950410929E
:101C6000960410929704109298041092990410927E
:101C70009B0410929A041092890410928A04109284
:101C80008B0410928C04109285041092860410929A
:101C900087041092880410927704109278041092AE
:101CA000790410927A0410927C0410927D041092B0
:101CB0007E0410927F04109280041092810410928E
:101CC0008204109283040E94540200CCEDECF4E0F4
:101CD0001382128248EE53E060E070E04483558343
:101CE0006683778384E093E0918380832DEC30E0FA
:101CF000358724872CEC30E03787268728EC30E0C6
:101D0000318B208B29EC30E0338B228B2AEC30E0B6
:101D1000358B248B2EEC30E0378B268B118E128E78
:101D2000138E148EEAE6F5E0138212824483558303
:101D3000668377839183808385EC90E095878487A1
:101D400084EC90E09787868780EC90E0918B808B85
:101D500081EC90E0938B828B82EC90E0958B848B6E
:101D600086EC90E0978B868B118E128E138E148EDC
:101D7000E1E2F2E0E491A7E0B6E01496EC93149768
:101D8000E0E2F2E0E4911596EC9315978BED91E08B
:101D9000FC012491E22FF0E0EE0FFF1FEC54FE4F08
:101DA0002591349117963C932E931697EAEDF1E026
:101DB000E491F0E0EE0FFF1FE656FE4F25913491BF
:101DC00019963C932E931897FC018491E82FF0E02C
:101DD000EE0FFF1FE058FE4F859194911B969C9348
:101DE0008E931A9781EC9CE21D969C938E931C9780
:101DF00008955058BB27AA270ED06AC233D230F0BC
:101E000038D220F031F49F3F11F41EF4F2C10EF4E9
:101E1000E095E7FBE8C1E92F7DD280F3BA176207AE
:101E200073078407950718F071F49EF595C20EF4B8
:101E3000E0950B2EBA2FA02D0B01B90190010C01DA
:101E4000CA01A0011124FF27591B99F0593F50F4F2
:101E5000503E68F11A16F040A22F232F342F44274A
:101E6000585FF3CF469537952795A795F040539542
:101E7000C9F77EF41F16BA0B620B730B840BBAF012
:101E80009150A1F0FF0FBB1F661F771F881FC2F77D
:101E90000EC0BA0F621F731F841F48F48795779591
:101EA0006795B795F7959E3F08F0B3CF9395880F48
:101EB00008F09927EE0F9795879508959F939F7740
:101EC000EEE389379E0720F4E8EFF0E0BAD109C0CD
:101ED0004BD19058A2EA2AED3FE049EC5FE39BDF4B
:101EE000F7D10F9007FC90580895BCD158F080E8C6
:101EF00091E009F49EEFBDD128F040E851E059F49B
:101F00005EEF09C076C128C2E92FE07803D268F3FA
:101F1000092E052AC1F3261737074807590738F055
:101F20000E2E07F8E02569F0E025E0640AC0EF63B3
:101F300007F8009407FADB01B9019D01DC01CA0131
:101F4000AD01EF934AD0C4D10AD05F91552331F04F
:101F50002BED3FE049E450FD49EC4CCF0895DF9371
:101F6000DD27B92FBF7740E85FE31616170648074D
:101F70005B0710F4D92FFBD19F938F937F936F93BF
:101F8000A8D2ECE0F1E038D1A3D12F913F914F914D
:101F90005F9100D2DD2349F09058A2EA2AED3FE09C
:101FA00049EC5FE3D0785D2736DFDF9191C1F7D050
:101FB00008F481E0089565D1E3959BC10CD088C1F8
:101FC00058D140F04FD130F021F45F3F19F00BC1F0
:101FD0005111C3C10EC19ED198F39923C9F3552362
:101FE000B1F3951B550BBB27AA276217730784070C
:101FF00038F09F5F5F4F220F331F441FAA1FA9F3C2
:1020000033D00E2E3AF0E0E830D091505040E695B3
:10201000001CCAF729D0FE2F27D0660F771F881F14
:10202000BB1F261737074807AB07B0E809F0BB0B03
:10203000802DBF01FF2793585F4F2AF09E3F510527
:1020400068F0D1C08AC15F3FECF3983EDCF386951F
:1020500077956795B795F7959F5FC9F7880F911D9D
:102060009695879597F90895E1E0660F771F881F89
:10207000BB1F621773078407BA0720F0621B730B3C
:10208000840BBA0BEE1F88F7E095089504D068948E
:10209000B11163C1089546D188F09F5790F0B92FD0
:1020A0009927B751A0F0D1F0660F771F881F991FAD
:1020B0001AF0BA95C9F712C0B13081F04DD1B1E034
:1020C00008954AC1672F782F8827B85F39F0B93F44
:1020D000CCF3869577956795B395D9F73EF49095AF
:1020E0008095709561957F4F8F4F9F4F0895E8942D
:1020F00009C097FB3EF490958095709561957F4F50
:102100008F4F9F4F9923A9F0F92F96E9BB279395FD
:10211000F695879577956795B795F111F8CFFAF40D
:10212000BB0F11F460FF1BC06F5F7F4F8F4F9F4F3E
:1021300016C0882311F096E911C0772321F09EE89C
:10214000872F762F05C0662371F096E8862F70E002
:1021500060E02AF09A95660F771F881FDAF7880FDC
:102160009695879597F90895DF93CF931F930F93D3
:102170008B01EC01E9E3F1E03FD0AAD09801AE0178
:102180008B01EC0160E070E080E89FE332DE63D118
:102190009801AE010F911F91CF91DF91FBC0990F74
:1021A0000008550FAA0BE0E8FEEF16161706E80721
:1021B000F907C0F012161306E407F50798F0621B42
:1021C000730B840B950B39F40A2661F0232B242B17
:1021D000252B21F408950A2609F4A140A6958FEF36
:1021E000811D811D089597F99F6780E870E060E088
:1021F00008959FEF80EC0895DF93CF931F930F9383
:10220000FF92EF92DF927B018C01689405C0DA2E79
:10221000EF01C0D0FE01E894A5912591359145913B
:102220005591AEF3EF01F7DDFE019701A801DA94B5
:1022300079F7DF90EF90FF900F911F91CF91DF9191
:1022400008959F938F937F936F93FF93EF939B01D9
:10225000AC0194D0EF91FF91CFDF2F913F914F913F
:102260005F918CC000240A941616170618060906FA
:10227000089500240A9412161306140605060895FC
:10228000B8CF50D0E8F3E894E0E0BB279F57F0F0D8
:102290002AED3FE049EC06C0EE0FBB0F661F771F2B
:1022A000881F28F0B23A62077307840728F0B25AF1
:1022B000620B730B840BE3959A9572F7803830F4B8
:1022C0009A95BB0F661F771F881FD2F790480AC1E7
:1022D000092E0394000C11F4882352F0BB0F40F434
:1022E000BF2B11F460FF04C06F5F7F4F8F4F9F4F74
:1022F0000895EF93E0FF06C0A2EA2AED3FE049EC23
:102300005FEB89DDE5DF0F90039401FC9058E1E677
:10231000F1E097CF57FD9058440F551F59F05F3F9C
:1023200071F04795880F97FB991F61F09F3F79F0F7
:1023300087950895121613061406551FF2CF469579
:10234000F1DF08C0161617061806991FF1CF8695FB
:102350007105610508940895E894BB2766277727DF
:10236000CB0197F908951BDF08F48FEF08959B01C7
:10237000AC0160E070E080E89FE320CE0BD0A8CFF6
:1023800071DF28F076DF18F0952309F02CCF31CFDC
:102390001124E3CFBFDFA0F3959FD1F3950F50E059
:1023A000551F629FF001729FBB27F00DB11D639F07
:1023B000AA27F00DB11DAA1F649F6627B00DA11DAD
:1023C000661F829F2227B00DA11D621F739FB00D53
:1023D000A11D621F839FA00D611D221F749F3327C3
:1023E000A00D611D231F849F600D211D822F762F5C
:1023F0006A2F11249F5750408AF0E1F088234AF059
:10240000EE0FFF1FBB1F661F771F881F91505040A4
:10241000A9F79E3F510570F0E6CE9FCF5F3FECF3EA
:10242000983EDCF3869577956795B795F795E79590
:102430009F5FC1F7FE2B880F911D9695879597F9A1
:1024400008959F931EDF0F9007FCEE5F52CF11F4AB
:102450000EF4CFCE45C066DFD0F39923D9F3CEF387
:102460009F57550B87FF4AD00024A0E640EA900111
:1024700080585695979528F4805C660F771F881FC3
:1024800020F026173707480730F4621B730B840BC4
:10249000202931294A2BA695179407942025312508
:1024A0004A2758F7660F771F881F20F0261737072F
:1024B000480730F4620B730B840B200D311D411D56
:1024C000A09581F7B901842F9158880F969587952B
:1024D00008959B01AC0152CF62DE880B990B0895E1
:1024E0009F3F31F0915020F4879577956795B79588
:1024F000880F911D9695879597F9089591505040B2
:10250000660F771F881FD2F70895AA1BBB1B51E1E6
:1025100007C0AA1FBB1FA617B70710F0A61BB70B53
:10252000881F991F5A95A9F780959095BC01CD01F8
:102530000895A1E21A2EAA1BBB1BFD010DC0AA1F04
:10254000BB1FEE1FFF1FA217B307E407F50720F01C
:10255000A21BB30BE40BF50B661F771F881F991F97
:102560001A9469F760957095809590959B01AC01E0
:10257000BD01CF010895052E97FB16F400940FD0EE
:1025800057FD05D0D6DF07FC02D046F408C05095B1
:102590004095309521953F4F4F4F5F4F089590954F
:1025A0008095709561957F4F8F4F9F4F0895EE0FE7
:1025B000FF1F881F8BBF0790F691E02D199481E0D3
:1025C00090E0F89409C0FB01DC0102C001900D927B
:0C25D00041505040D8F70895F894FFCF18
:1025DC00327C8900EDD968770000005900000000BA
:1025EC0000000000D69FDCA81817AA90437327F6AA
:1025FC00B968EDF4DED409FEE61C1C84DDE80B9909
:10260C002927D6DF8D210F036418EFEE1EC8B70003
:10261C008200941500347C0000001400988F000098
:10262C00000000000000000000E7B73F360000008B
:10263C0000000000AF669ED03800000000000000D3
:10264C00000000000000000000000000000000007E
:10265C00000000000000000000000000000000006E
:10266C00000000000000000000000000000000005E
:10267C00000000000000000000000000000000004E
:10268C00000000000000000000000000000000003E
:10269C00000000000000000000000000000000002E
:1026AC00000000000000000000000000000000001E
:1026BC00000000000000000000000000000000000E
:1026CC00000000000000000000CC31AA2C532E00AA
:1026DC0000000000ED0113077D013302AE018C01F7
:1026EC00A0014D6573736167653A20000D0A004EB9
:1026FC006F74206120475053206F72205646522031
:10270C006D6573736167650044495354414E43458D
:10271C005F53454E534F520044697374616E636549
:10272C002069733A20004E6F204F62737461636CA2
:10273C00652064657465637465642E2E2E004F628B
:10274C00737461636C652044657465637465642E91
:10275C002E2E00486F6C64696E6720506F7369741D
:10276C00696F6E004C6F6E67697475646520697370
:10277C002000416C7469747564652069733A20009B
:10278C0048656164696E672069733A200041646A28
:10279C0075737465642062656172696E6720697314
:1027AC003A20004E6577204C61746974756465201D
:1027BC0069733A20004E6577204C6F6E67697475AB
:1027CC0064652069733A20006C61745461726765AA
:1027DC00742069733A20006C6F6E67546172676580
:1027EC00742069733A2000546172676574204C61DF
:1027FC007469747564652069733A2000546172675A
:10280C006574204C6F6E6769747564652069733AE2
:10281C00200044697374616E63652066726F6D206D
:10282C005461726765742069733A20006E616E00A2
:08283C00696E66006F7666000C
:00000001FF
