:10000000DFC000000DC100000BC1000009C10000ED
:1000100007C1000005C1000003C1000001C10000CC
:10002000FFC00000FDC00000FBC00000F9C00000E0
:10003000F7C0000071C60000F3C00000F1C000006E
:10004000EFC00000EDC00000EBC00000E9C0000000
:10005000E7C00000E5C00000E3C0000013C60000D8
:10006000DFC00000E6C50000BBC50000D9C000002D
:10007000D7C00000D5C00000D3C00000D1C0000030
:10008000CFC00000CDC00000CBC00000C9C0000040
:100090007EC5000053C50000C3C00000C1C0000001
:1000A000BFC00000BDC00000BBC00000B9C0000060
:1000B000B7C00000B5C00000B3C00000B1C0000070
:1000C000AFC00000ADC00000ABC00000A9C0000080
:1000D000A7C00000A5C00000A3C00000A1C0000090
:1000E0009FC0000000002100240027002A002D00EE
:1000F0003000330001010000040107010A01000083
:1001000020002300260029002C002F0032000001CF
:10011000000003010601090100002200250028005B
:100120002B002E00310034000201000005010801FF
:100130000B0105050505070508080808020202026B
:100140000A0A080804040404010101010101010173
:100150000303030303030303040707070C0C0C0C3E
:100160000C0C0C0C02020202060606060606060627
:100170000B0B0B0B0B0B0B0B0102102020080810B4
:100180002040102040800201020108040201010207
:1001900004081020408080402010080402018004E0
:1001A000020180402010080402010804020101023B
:1001B0000408102040800102040810204080B70687
:1001C00011241FBECFEFD1E2DEBFCDBF00E00CBFD8
:1001D00012E0A0E0B2E0E0E9F7E100E00BBF02C00E
:1001E00007900D92AC34B107D9F723E0ACE4B2E04C
:1001F00001C01D92A73DB207E1F710E0C0EED0E0CC
:1002000000E006C021970109802FFE010E94B10B7A
:10021000CF3DD10780E00807A9F73CD60C94C60B68
:10022000EFCEFC01A089B18982E08C93A089B189CD
:100230001C92A485B5851C92A685B78580E18C9318
:10024000108EA489B58986E08C93A289B3898C919C
:1002500080618C93A289B3898C9188608C93A289E8
:10026000B3898C9180688C930288F389E02D80811A
:100270008F7D80830895E0912803F09129030190F8
:10028000F081E02D682F88E293E01994CF92DF92FD
:10029000EF92FF920F931F93CF93DF936C017A013C
:1002A0008B01C0E0D0E0CE15DF0589F0D8016D915B
:1002B0008D01D601ED91FC910190F081E02DC601F8
:1002C0001995892B11F47E0102C02196ECCFC7014C
:1002D000DF91CF911F910F91FF90EF90DF90CF9022
:1002E0000895FC01A089B1898C91A689B78982FD06
:1002F0000FC09C91818D8F5F8F73228D821749F083
:10030000218DDF01A20FB11D5D969C93818F089511
:100310008C910895089580E090E00895FC01538D3C
:10032000448D252F30E0842F90E0821B930B5417CF
:1003300010F0CF96089501970895FC01918D828D5C
:10034000981761F0828DDF01A80FB11D5D968C9129
:10035000928D9F5F9F73928F90E008958FEF9FEF34
:100360000895FC01918D828D981731F0828DE80FF0
:10037000F11D858D90E008958FEF9FEF0895FC01AA
:10038000918D228D892F90E0805C9F4F821B910977
:100390008F73992708958BE892E0F1DF21E0892B94
:1003A00009F420E0822F089588E293E0E8DF21E05D
:1003B000892B09F420E0822F0895FC01848DDF0150
:1003C000A80FB11DA35ABF4F2C91848D90E00196C8
:1003D0008F739927848FA689B7892C93A089B189B7
:1003E0008C9180648C93938D848D981306C00288C1
:1003F000F389E02D80818F7D80830895EF92FF92B5
:100400000F931F93CF93DF93EC0181E0888F9B8D37
:100410008C8D981305C0E889F989808185FD23C0FA
:10042000F62E0B8D10E00F5F1F4F0F731127E02E7C
:100430008C8DE8120BC00FB607FCFACFE889F9895A
:10044000808185FFF5CFCE01B8DFF2CF8B8DFE0125
:10045000E80FF11DE35AFF4FF0820B8FEA89FB8909
:100460008081806207C0EE89FF896083E889F9890D
:1004700080818064808381E090E0DF91CF911F9143
:100480000F91FF90EF900895CF93DF93EC01888D4B
:100490008823C1F0EA89FB89808185FD05C0A88990
:1004A000B9898C9186FD0EC00FB607FCF5CF80810F
:1004B00085FFF2CFA889B9898C9185FFEDCFCE0158
:1004C0007CDFE8CFDF91CF91089580E090E0892B29
:1004D00019F06ADF811120C080E090E0892B19F0CB
:1004E0005ADF81111CC080E090E0892B41F080E050
:1004F00090E0892B21F00E940000811113C080E060
:1005000090E0892BA1F080E090E0892B81F00E949F
:10051000000081110AC008950E940000DDCF0E94F2
:100520000000E1CF0E940000EACF0C940000089583
:100530003FB7F8948091530290915402A0915502D4
:10054000B091560226B5A89B05C02F3F19F0019621
:10055000A11DB11D3FBFBA2FA92F982F8827820F49
:10056000911DA11DB11DBC01CD0142E0660F771F99
:10057000881F991F4A95D1F70895FB012081822792
:1005800090E1899F900111242827822F90E0582F15
:1005900044279C0163E0220F331F6A95E1F742274D
:1005A0005327218130E02427352774E095958795DE
:1005B0007A95E1F782279327918380830895CF92DC
:1005C000DF92EF92FF920F931F93CF93DF93CDB7FC
:1005D000DEB7C951D2400FB6F894DEBF0FBECDBF13
:1005E0002FB7F89440918702509188026091890258
:1005F00070918A022FBF2AE0EAE1F2E0A1E1B1E0C6
:10060000AC0FBD1F189601900D922A95E1F7CF5EB1
:10061000DE4F488359836A837B83C151D140092EC1
:10062000000CAA0BBB0BCB5EDE4F88839983AA8399
:10063000BB83C551D14082E1FE01EF5EFE4FDE017A
:10064000199601900D928A95E1F78CEF88878EEFCD
:100650008B8382E18C8381E08E831F8280915E0296
:100660008D838F5F80935E028FEF9FEFC85EDD4FBB
:1006700099838883C851D2407E0184E0E80EF11C42
:100680008E01075F1F4FE016F10641F0BE01685E64
:100690007D4FF70181917F0170DFF5CFC85EDD4F9F
:1006A00088819981C851D2409A838983EC806801FE
:1006B000F12CBE016F5F7F4FE114F10441F0F601B0
:1006C00081916F015ADFF1E0EF1AF108F2CF8CE26D
:1006D00054DF8C81F801E80FF11D898180838C81C2
:1006E000FE01E80FF11D8A8182870C8110E07801FC
:1006F00086E0E80EF11CA701BE016D5F7F4FCE01C1
:100700008F5E9E4F0E94BD0BE1E1F1E0EC0FFD1FFB
:10071000EE0DFF1D99818A8190838183A801485F36
:100720005F4FBE016F5E7E4F8BE892E0AFDDC75E2C
:10073000DD4F0FB6F894DEBF0FBECDBFDF91CF9176
:100740001F910F91FF90EF90DF90CF9008952F921F
:100750003F924F925F926F927F928F929F92AF9251
:10076000BF92CF92DF92EF92FF920F931F93CF939E
:10077000DF9300D000D0CDB7DEB7182F4B012DB7D7
:100780003EB73A8329834DB75EB762E0869F401932
:10079000510911240FB6F8945EBF0FBE4DBF8DB73F
:1007A0009EB701961C01EDB7FEB712821182C401FB
:1007B000019629E3289F5001299FB00C1124FEE8DF
:1007C000AF16FFE6BF0620F09DE8A92E9FE6B92EE2
:1007D00000E088EE482E83E0582E612C712C011722
:1007E00008F033C1A5DE6B017C018114910421F076
:1007F000B092D203A092D103E091CF03F091D00345
:1008000090818091C903892B8083E091CB03F09183
:10081000CC0390818091C9038095892380838BE0EC
:1008200090E00197F1F7E091CB03F091CC03908138
:100830008091C903892B808383E290E00197F1F7CF
:10084000E091CB03F091CC0390818091C903809516
:1008500089238083E091CF03F091D0039081809130
:10086000C903809589238083E091CD03F091CE0365
:1008700090818091CA03892309F08FC059DE2091AD
:10088000D1033091D20340E050E02855394E4F4F0C
:100890005F4FDC01CB01820F931FA41FB51F809314
:1008A000D3039093D403A093D503B093D603E091E0
:1008B000CD03F091CE0390818091CA03892379F40E
:1008C00037DE2091D3033091D4034091D50350916A
:1008D000D603261737074807590748F75EC028DEB2
:1008E0002091D1033091D203DC01CB01820F931F01
:1008F000A11DB11D8093D3039093D403A093D5037E
:10090000B093D603E091CD03F091CE039081809116
:10091000CA03892379F00CDE2091D3033091D403EC
:100920004091D5035091D60326173707480759073A
:1009300048F733C0FDDD2091D1033091D203A901E6
:10094000455051092091D3033091D403FA01E21BA1
:10095000F30B6E0F7F1F61157105F9F0011102C0D5
:1009600020E012C0202FF101E20FF11DE20FF11D76
:10097000DF0112978D919C918617970728F4918338
:100980008083215081F7ECCFF101E20FF11DE20FDE
:10099000F11D718360830F5F01C01150011708F0D2
:1009A0001ECFC6DDDC01CB018C199D09AE09BF0944
:1009B00088349147A105B10508F011CFB9DDF8E4FD
:1009C000CF0EF1E7DF1EE11CF11CA7019601261BEB
:1009D000370B480B590BCA01B901A30192019FD6ED
:1009E0002B833C834D835E83A3DD6B017C012B81D4
:1009F0003C814D815E81211531054105510509F488
:100A0000EECE2B833C834D835E8392DDDC01CB01F4
:100A10008C199D09AE09BF092B813C814D815E81F6
:100A2000883E9340A105B10530F3215031094109B9
:100A3000510968EEC60E63E0D61EE11CF11C2115BB
:100A4000310541055105E9F6D6CF1E7FF101E10FD1
:100A5000F11D6081718180E090E049815A810FB67B
:100A6000F8945EBF0FBE4DBF26960FB6F894DEBF5A
:100A70000FBECDBFDF91CF911F910F91FF90EF90EF
:100A8000DF90CF90BF90AF909F908F907F906F90AE
:100A90005F904F903F902F900895009761F0FC0178
:100AA00001900020E9F73197AF01481B590BBC01B9
:100AB00088E293E0EBCB80E090E008958F929F92E4
:100AC000AF92BF920F931F93CF93DF93CDB7DEB753
:100AD000A1970FB6F894DEBF0FBECDBF19A242306A
:100AE00008F44AE08E010F5D1F4F842E912CA12C3B
:100AF000B12CA501940113D6E62FB901CA0101500A
:100B00001109EA3014F4E05D01C0E95CD801EC930E
:100B1000232B242B252B69F7C801BFDFA1960FB625
:100B2000F894DEBF0FBECDBFDF91CF911F910F9123
:100B3000BF90AF909F908F9008951BD61F920F92F9
:100B40000FB60F9211240BB60F922F933F934F9332
:100B50005F936F937F938F939F93AF93BF93EF9325
:100B6000FF938BE892E029DCFF91EF91BF91AF9169
:100B70009F918F917F916F915F914F913F912F91B5
:100B80000F900BBE0F900FBE0F901F9018951F92E5
:100B90000F920FB60F9211240BB60F922F933F9323
:100BA0004F935F936F937F938F939F93AF93BF9375
:100BB000EF93FF938BE892E094DBFF91EF91BF916D
:100BC000AF919F918F917F916F915F914F913F91E5
:100BD0002F910F900BBE0F900FBE0F901F90189586
:100BE0001F920F920FB60F9211240BB60F922F93F4
:100BF0003F934F935F936F937F938F939F93AF93A5
:100C0000BF93EF93FF9388E293E0D7DBFF91EF91DF
:100C1000BF91AF919F918F917F916F915F914F9114
:100C20003F912F910F900BBE0F900FBE0F901F9012
:100C300018951F920F920FB60F9211240BB60F92B8
:100C40002F933F934F935F936F937F938F939F93D4
:100C5000AF93BF93EF93FF9388E293E042DBFF9162
:100C6000EF91BF91AF919F918F917F916F915F9124
:100C70004F913F912F910F900BBE0F900FBE0F9091
:100C80001F9018951F920F920FB60F9211242F9359
:100C90003F938F939F93AF93BF93809187029091DF
:100CA0008802A0918902B0918A023091520223E019
:100CB000230F2D3720F40196A11DB11D05C026E894
:100CC000230F0296A11DB11D20935202809387022B
:100CD00090938802A0938902B0938A028091530274
:100CE00090915402A0915502B09156020196A11D17
:100CF000B11D8093530290935402A0935502B09378
:100D00005602BF91AF919F918F913F912F910F907C
:100D10000FBE0F901F9018951F920F920FB60F9253
:100D200011240BB60F922F933F934F935F936F93C2
:100D30007F938F939F93AF93BF93EF93FF93E09134
:100D40005002F09151021995FF91EF91BF91AF912F
:100D50009F918F917F916F915F914F913F912F91D3
:100D60000F900BBE0F900FBE0F901F901895EBE8E1
:100D7000F2E01382128248EE53E060E070E04483B8
:100D80005583668377838CE092E0918380832DEC9A
:100D900030E0358724872CEC30E03787268728EC35
:100DA00030E0318B208B29EC30E0338B228B2AEC26
:100DB00030E0358B248B2EEC30E0378B268B118E78
:100DC000128E138E148EE8E2F3E0138212824483B3
:100DD0005583668377839183808385EC90E0958744
:100DE000848784EC90E09787868780EC90E0918BF5
:100DF000808B81EC90E0938B828B82EC90E0958BE2
:100E0000848B86EC90E0978B868B118E128E138EDE
:100E1000148EE5E8F1E0E491A5ECB3E01496EC93D0
:100E20001497E4E8F1E0E4911596EC9315978FE3BD
:100E300091E0FC012491E22FF0E0EE0FFF1FE85E4D
:100E4000FE4F2591349117963C932E931697EEE31F
:100E5000F1E0E491F0E0EE0FFF1FE250FF4F25912B
:100E6000349119963C932E931897FC018491E82FA6
:100E7000F0E0EE0FFF1FEC51FF4F859194911B9610
:100E80009C938E931A9785E093E41D969C938E9382
:100E90001C970895789484B5826084BD84B5816080
:100EA00084BD85B5826085BD85B5816085BD809135
:100EB0006E00816080936E001092810080918100AD
:100EC00082608093810080918100816080938100A5
:100ED000809180008160809380008091B100846067
:100EE0008093B1008091B00081608093B0008091C8
:100EF0009100826080939100809191008160809345
:100F00009100809190008160809390008091A10079
:100F100082608093A1008091A10081608093A100F4
:100F20008091A00081608093A00080912101826067
:100F30008093210180912101816080932101809122
:100F4000200181608093200180917A0084608093E9
:100F50007A0080917A00826080937A0080917A0092
:100F6000816080937A0080917A00806880937A0013
:100F70001092C1008BE892E054D988E293E051D9F5
:100F800089E3282E312CC0900402D0900502E09015
:100F90000602F09007022091000230910102409178
:100FA000020250910302C701B60187D19B01AC0137
:100FB000C701B601EAD14B015C0168EC70E083E047
:100FC000C6DB6B017C012CEB34E743E15CE3C5013C
:100FD000B40126D318160CF0ABC0C701B6012AE342
:100FE00030E040E050E09BD3CA01B90167D2EB0189
:100FF000182F092F68EC70E083E0A9DB4B015C013E
:10100000C0900402D0900502E0900602F090070222
:10101000209100023091010240910202509103029E
:10102000C701B6014AD19B01AC01C701B601ADD1E0
:101030006B017C01C501B4012AE330E040E050E0DF
:101040006ED3CA01B9013AD208D23AD29E01412FD9
:10105000502F32D19B01AC01C701B601E5D29B01F3
:10106000AC01BE01812F902F28D1EB01182F092F41
:1010700020E030E04AEF52E484D187FF10C020E046
:1010800030E040EF51E4BE01812F902FC9D21816F5
:1010900034F4BE01812F902FE0D1CB0190DA2CEBFC
:1010A00034E743E15CE3C701B6016BD187FF1CC0A5
:1010B00080E090E0A0E0B0E4809304029093050209
:1010C000A0930602B093070280E090E0A0E8B0E4AD
:1010D0008093000290930102A0930202B093030256
:1010E0002E01612E702E24C0A701960160E070E0F1
:1010F00080E89FE3E1D09B01AC0160910402709114
:10110000050280910602909107028ED2609304023C
:101110007093050280930602909307022CEB34E74C
:1011200043E15CE3C701B6017BD218160CF462CF31
:1011300084E292E0B2DC80E392E0AFDCA3019201B2
:10114000C301B201D4D2882319F083E392E018C01E
:1011500073016201E894F7F82FEF3FEF4FE75FE785
:10116000C701B601C4D281110DC02FEF3FEF4FE789
:101170005FE7C701B60105D1181624F487E392E0B2
:101180008CDC60C02FEF3FEF4FE75FE4C301B2019B
:1011900047D218161CF48BE392E0F2CF2FEF3FEF0B
:1011A0004FE75FECC301B201ECD087FDF4CF20E044
:1011B00030E0A901C301B201E4D087FF06C08DE28F
:1011C0005AD8C301B201905802C0C301B2012AE04B
:1011D00037ED43EA5BE371D04B015C0143D16B0116
:1011E0007C016CD19B01AC01C501B40165D04B0100
:1011F0005C014AE0C701B60161DC8EE23CD820E028
:1012000030E040E251E4C501B4010ED26B017C0133
:1012100029D14B01A12CB12C4AE0C501B4014EDC0F
:10122000C501B4014BD19B01AC01C701B60144D04B
:1012300020E030E040E251E4F7D114D180E090E0CA
:101240004AE03CDC80E392E028DC2FB7F894609120
:101250008702709188028091890290918A022FBF43
:101260004AE02CDC80E392E018DC68EC70E084E675
:101270006EDA6B017C018FE392E00FDC80E392E099
:101280000CDCC601B10137D280E090E04AE016DC08
:1012900080E392E002DC2FB7F894609187027091AE
:1012A00088028091890290918A022FBF4AE006DC71
:1012B00080E392E0F2DB67CE5058BB27AA270ED01E
:1012C00075C166D130F06BD120F031F49F3F11F43D
:1012D0001EF45BC10EF4E095E7FB51C1E92F77D115
:1012E00080F3BA17620773078407950718F071F443
:1012F0009EF58FC10EF4E0950B2EBA2FA02D0B0199
:10130000B90190010C01CA01A0011124FF27591B4A
:1013100099F0593F50F4503E68F11A16F040A22F50
:10132000232F342F4427585FF3CF469537952795C1
:10133000A795F0405395C9F77EF41F16BA0B620BC0
:10134000730B840BBAF09150A1F0FF0FBB1F661F07
:10135000771F881FC2F70EC0BA0F621F731F841F4A
:1013600048F4879577956795B795F7959E3F08F070
:10137000B3CF9395880F08F09927EE0F979587952F
:101380000895D9D008F481E008950CD00FC107D199
:1013900040F0FED030F021F45F3F19F0F0C0511161
:1013A00039C1F3C014D198F39923C9F35523B1F38C
:1013B000951B550BBB27AA2762177307840738F0C4
:1013C0009F5F5F4F220F331F441FAA1FA9F333D023
:1013D0000E2E3AF0E0E830D091505040E695001CD7
:1013E000CAF729D0FE2F27D0660F771F881FBB1F93
:1013F000261737074807AB07B0E809F0BB0B802D6D
:10140000BF01FF2793585F4F2AF09E3F510568F0B8
:10141000B6C000C15F3FECF3983EDCF3869577954C
:101420006795B795F7959F5FC9F7880F911D9695BA
:10143000879597F90895E1E0660F771F881FBB1F16
:10144000621773078407BA0720F0621B730B840BC3
:10145000BA0BEE1F88F7E095089504D06894B11197
:10146000D9C00895BCD088F09F5790F0B92F992724
:10147000B751A0F0D1F0660F771F881F991F1AF09F
:10148000BA95C9F712C0B13081F0C3D0B1E0089568
:10149000C0C0672F782F8827B85F39F0B93FCCF3E9
:1014A000869577956795B395D9F73EF49095809595
:1014B000709561957F4F8F4F9F4F0895E89409C0B5
:1014C00097FB3EF490958095709561957F4F8F4F77
:1014D0009F4F9923A9F0F92F96E9BB279395F6958D
:1014E000879577956795B795F111F8CFFAF4BB0F0B
:1014F00011F460FF1BC06F5F7F4F8F4F9F4F16C06F
:10150000882311F096E911C0772321F09EE8872FF8
:10151000762F05C0662371F096E8862F70E060E0B4
:101520002AF09A95660F771F881FDAF7880F96952D
:10153000879597F90895990F0008550FAA0BE0E8D1
:10154000FEEF16161706E807F907C0F01216130685
:10155000E407F50798F0621B730B840B950B39F4C5
:101560000A2661F0232B242B252B21F408950A262B
:1015700009F4A140A6958FEF811D811D089597F96B
:101580009F6780E870E060E008959FEF80EC089529
:1015900000240A9416161706180609060895002452
:1015A0000A9412161306140605060895092E0394CC
:1015B000000C11F4882352F0BB0F40F4BF2B11F440
:1015C00060FF04C06F5F7F4F8F4F9F4F089557FD9F
:1015D0009058440F551F59F05F3F71F04795880FA1
:1015E00097FB991F61F09F3F79F087950895121638
:1015F00013061406551FF2CF4695F1DF08C01616E4
:1016000017061806991FF1CF869571056105089494
:101610000895E894BB2766277727CB0197F90895AB
:101620008ADF08F48FEF08950BD0C0CFB1DF28F028
:10163000B6DF18F0952309F0A2CFA7CF1124EACF87
:10164000C6DFA0F3959FD1F3950F50E0551F629F21
:10165000F001729FBB27F00DB11D639FAA27F00D0B
:10166000B11DAA1F649F6627B00DA11D661F829F32
:101670002227B00DA11D621F739FB00DA11D621F17
:10168000839FA00D611D221F749F3327A00D611D34
:10169000231F849F600D211D822F762F6A2F112416
:1016A0009F5750408AF0E1F088234AF0EE0FFF1F69
:1016B000BB1F661F771F881F91505040A9F79E3FA0
:1016C000510570F05CCFA6CF5F3FECF3983EDCF3A2
:1016D000869577956795B795F795E7959F5FC1F7DD
:1016E000FE2B880F911D9695879597F9089523DF16
:1016F000880B990B0895AA1BBB1B51E107C0AA1FB9
:10170000BB1FA617B70710F0A61BB70B881F991FA2
:101710005A95A9F780959095BC01CD010895A1E255
:101720001A2EAA1BBB1BFD010DC0AA1FBB1FEE1F5B
:10173000FF1FA217B307E407F50720F0A21BB30BA6
:10174000E40BF50B661F771F881F991F1A9469F722
:1017500060957095809590959B01AC01BD01CF017E
:101760000895EE0FFF1F881F8BBF0790F691E02DA5
:10177000199481E090E0F89409C0FB01DC0102C0FB
:1017800001900D9241505040D8F70895F894FFCF42
:10179000000080400000004000000000FE01460103
:1017A0008E014402BF019D01B101746573745F64D1
:1017B000697374004B616C6D616E2069733A20002F
:1017C0000D0A006E616E00696E66006F7666004DF0
:0C17D000656469616E2069733A200000B6
:00000001FF
