:100000002EC100005DC100005BC1000059C10000AD
:1000100057C1000055C1000053C1000051C100008C
:100020004FC100004DC100004BC1000049C100009C
:1000300047C1000045C1000043C1000041C10000AC
:100040003FC100003DC100003BC1000039C10000BC
:1000500037C1000035C1000033C1000079C4000081
:100060002FC100000C94580F0C942E0F29C10000D2
:1000700027C1000025C1000023C1000021C10000EC
:100080001FC100001DC100001BC1000019C10000FC
:100090000C94040F0C94DA0E13C1000011C100007F
:1000A0000FC100000DC100000BC1000009C100001C
:1000B00007C1000005C1000003C1000001C100002C
:1000C000FFC00000FDC00000FBC00000F9C0000040
:1000D000F7C00000F5C00000F3C00000F1C0000050
:1000E000EFC000003F023F02530267025E0270024F
:1000F00079029102A802D102D102036EDB363D9A49
:100100009999993DABAAAA2A3E000000803F084A6F
:10011000D73B3BCE016E84BCBFFDC12F3D6C74311B
:100120009ABD56833DDA3D00C77F11BED9E4BB4C72
:100130003E916BAAAABE000000803F072C7AA5BAA8
:100140006CC590DA3B9365FC8BBC53F810FD3C56B4
:1001500092834DBD879D3AB63DCBC9BF5BBE73DA76
:100160000FC93F05A84CCDB2D44EB93836A9020C00
:1001700050B9918688083CA6AAAA2ABE0000008031
:100180003F0000002200250028002B002E00310037
:10019000340002010000050108010B0100002100EC
:1001A000240027002A002D00300033000101000048
:1001B000040107010A010000200023002600290095
:1001C0002C002F003200000100000301060109018C
:1001D00005050505070508080808020202020A0AC3
:1001E00008080404040401010101010101010303E1
:1001F000030303030303040707070C0C0C0C0C0C8C
:100200000C0C0202020206060606060606060B0B88
:100210000B0B0B0B0B0B01021020200808102040C9
:1002200010204080020102010804020101020408BA
:100230001020408080402010080402018004020148
:100240008040201008040201080402010102040891
:10025000102040800102040810204080C70F1124A4
:100260001FBECFEFD1E2DEBFCDBF00E00CBF14E078
:10027000A0E0B2E0E6E8FDE200E00BBF02C00790BC
:100280000D92A831B107D9F729E0A8E1B4E001C087
:100290001D92AE3FB207E1F711E0CFE2D1E000E0FE
:1002A00006C021970109802FFE010E94AC16CE32B4
:1002B000D10780E00807A9F70E941A100C94C11614
:1002C0009FCE089580E090E00895FC01538D448D09
:1002D000252F30E0842F90E0821B930B541710F0F1
:1002E000CF96089501970895FC01918D828D9817FE
:1002F00061F0828DDF01A80FB11D5D968C91928D0A
:100300009F5F9F73928F90E008958FEF9FEF089506
:10031000FC01918D828D981731F0828DE80FF11DCF
:10032000858D90E008958FEF9FEF0895FC01918DEA
:10033000228D892F90E0805C9F4F821B91098F73E3
:100340009927089580E090E0892B21F00E94670AA8
:10035000811121C080E090E0892B21F00E945D0A8C
:1003600081111CC080E090E0892B41F080E090E09A
:10037000892B21F00E940000811113C080E090E0E1
:10038000892BA1F080E090E0892B81F00E94000091
:1003900081110AC008950E940000DCCF0E94000075
:1003A000E1CF0E940000EACF0C94000008953FB70F
:1003B000F8948091990890919A08A0919B08B09127
:1003C0009C0826B5A89B05C02F3F19F00196A11DDA
:1003D000B11D3FBFBA2FA92F982F8827820F911DDB
:1003E000A11DB11DBC01CD0142E0660F771F881F22
:1003F000991F4A95D1F70895FB012081822790E14A
:10040000899F900111242827822F90E0582F44279C
:100410009C0163E0220F331F6A95E1F742275327BF
:10042000218130E02427352774E0959587957A95CA
:10043000E1F782279327918380830895AF92BF923B
:10044000CF92DF92EF92FF920F931F93CF93DF93A0
:100450001F92CDB7DEB77C015B016901DB011C9205
:1004600013962D913C9114972B30310508F0C0C0A4
:10047000F9018827EE58FF4F8F4F0C94AC164E3F72
:1004800009F0B6C082E090E0FB0194838383D7013A
:1004900013961C92139712964C9312978FEF9FEF1F
:1004A0008D939C93A5C0F7014383DB0115961C92A5
:1004B000B701842FA1DF84E090E02FC0D70114960C
:1004C0004C93B701842F98DF83E090E026C0D701DA
:1004D00015964C93B701842F8FDF85E090E01DC007
:1004E000D70116964C93B701842F86DF86E090E003
:1004F00014C0D70117964C93B701842F7DDFF70105
:100500008381811108C088E090E0D50114969C9306
:100510008E9313976DC087E090E0F50194838383F9
:1005200067C0DB0115968C91159791E0980F159691
:100530009C93F701E80FF11D4087B701842F5CDF22
:10054000F5019581D70113968C91981351C0DBCF9B
:10055000D7011796EC91F0E0E85FFD4FB70180817D
:1005600049834ADF4981242F30E0F701808191815E
:1005700099272817390741F08AE090E0D5011496B1
:100580009C938E93139705C089E090E0F5019483C6
:100590008383D50115968C91F701E80FF11D4087F3
:1005A00027C02A30310541F0242F30E0F701818146
:1005B00090E02817390721F082E0D5018C9303C021
:1005C00081E0FB01808381E090E0D50114969C934B
:1005D0008E93139715968C91F701E80FF11D4187C3
:1005E00080E191E0F701D60101900D920197E1F7CA
:1005F000F5018081813071F4D70114968C91868346
:1006000080859185009711F4138612860196F50175
:1006100091878087D70113968C91F6018383D5014A
:1006200013968D919C911497F8019483838315966A
:100630008C911597858316968C9116978F5F86837C
:1006400018968D919C9119979187808712968C911D
:10065000129790E09387828712961C9212978C9142
:100660008230B9F4F8E0EF0EF11C15968C91F70189
:10067000E80FF11D8181082E000C990B982F882717
:100680002081022E000C330B822B932BD6018D93ED
:100690009C93F50180810F90DF91CF911F910F9175
:1006A000FF90EF90DF90CF90BF90AF900895FC0146
:1006B000A089B1898C91A689B78982FD0FC09C91D0
:1006C000818D8F5F8F73228D821749F0218DDF011D
:1006D000A20FB11D5D969C93818F08958C91089512
:1006E000FC01848DDF01A80FB11DA35ABF4F2C91CF
:1006F000848D90E001968F739927848FA689B7899E
:100700002C93A089B1898C9180648C93938D848D76
:10071000981306C00288F389E02D80818F7D808345
:100720000895EF92FF920F931F93CF93DF93EC0105
:1007300081E0888F9B8D8C8D981305C0E889F9899D
:10074000808185FD23C0F62E0B8D10E00F5F1F4FBB
:100750000F731127E02E8C8DE8120BC00FB607FC2B
:10076000FACFE889F989808185FFF5CFCE01B8DF1E
:10077000F2CF8B8DFE01E80FF11DE35AFF4FF0829F
:100780000B8FEA89FB898081806207C0EE89FF892F
:100790006083E889F98980818064808381E090E0CA
:1007A000DF91CF911F910F91FF90EF900895CF931C
:1007B000DF93EC01888D8823C1F0EA89FB89808171
:1007C00085FD05C0A889B9898C9186FD0EC00FB63C
:1007D00007FCF5CF808185FFF2CFA889B9898C917C
:1007E00085FFEDCFCE017CDFE8CFDF91CF9108957B
:1007F0008F929F92AF92BF92CF92DF92EF92FF9231
:100800006B017C01D4DD4B015C01C114D104E10416
:10081000F104E9F0CCDDDC01CB0188199909AA09C2
:10082000BB09883E9340A105B10578F321E0C21AC7
:10083000D108E108F10888EE880E83E0981EA11C1B
:10084000B11CC114D104E104F10421F7DECFFF9003
:10085000EF90DF90CF90BF90AF909F908F900895D2
:100860008F929F92AF92BF92CF92DF92EF92FF92C0
:100870000F931F93CF93DF93CDB7DEB72A970FB6B1
:10088000F894DEBF0FBECDBF0E946F0D8E010F5FCB
:100890001F4F8AE0F80111928A95E9F778016E01FD
:1008A000FBE0CF0ED11C9AE3892E912CA12CB12C08
:1008B0000E94460D6093B5087093B6088093B70800
:1008C0009093B808A50194010E949016F701219316
:1008D00031937F016AE070E080E090E089DFEC1402
:1008E000FD0431F7DE01139621E030E04D915C917B
:1008F0001197C9010197FD0172916291461757073F
:1009000024F4738362830197B8F7FC013196EE0FEC
:10091000FF1FE00FF11F518340832F5F3F4F12965F
:100920002530310519F78D819E812A960FB6F894EE
:10093000DEBF0FBECDBFDF91CF911F910F91FF9012
:10094000EF90DF90CF90BF90AF909F908F900895E1
:100950001F920F920FB60F9211242F933F938F93F4
:100960009F93AF93BF938091950890919608A09123
:100970009708B09198083091940823E0230F2D3701
:1009800020F40196A11DB11D05C026E8230F029693
:10099000A11DB11D2093940880939508909396080B
:1009A000A0939708B09398088091990890919A081D
:1009B000A0919B08B0919C080196A11DB11D809348
:1009C000990890939A08A0939B08B0939C08BF91B4
:1009D000AF919F918F913F912F910F900FBE0F90EC
:1009E0001F9018958F929F92AF92BF92CF92DF92F5
:1009F000EF92FF920F931F93CF93DF931F921F925B
:100A0000CDB7DEB77C01122F8EEFD70112968C93F3
:100A1000129713962C93139715966C931597169619
:100A20004C93169790916B0814969C939F5F9093AC
:100A30006B088FEF9FEF9A8389835701B3E0AB0E6A
:100A4000B11C6701E8E0CE0ED11CAC14BD0441F02E
:100A5000BE016F5F7F4FD5018D915D01CDDCF5CF7C
:100A600089819A81F70191838083560183814601B0
:100A7000880E911CB701A814B90429F0D5018D91F5
:100A80005D01BADCF7CF802FB7DCF7018381F60177
:100A9000E80FF11DD7018C91808313968C911397E9
:100AA000F601E80FF11D11968C918183812F90E062
:100AB00008960F900F90DF91CF911F910F91FF90AB
:100AC000EF90DF90CF90BF90AF909F908F90089560
:100AD0005F926F927F928F929F92AF92BF92CF92CE
:100AE000DF92EF92FF920F931F93CF93DF93CDB7D7
:100AF000DEB7C853D1400FB6F894DEBF0FBECDBFEE
:100B00007E018FEEE81A8EEFF80A8CE1782E6624CB
:100B10006394CC24C394D12C22E0A22EB12C88243F
:100B20008A94982C89EB98E001DC181619060CF0D1
:100B30006CC089EB98E0D8DB582E8E01035D1E4F08
:100B40009E012F5F3F4F482F64E678E084E294E0F7
:100B500075DC8230A9F4909166089F5F90936608D7
:100B600010926408EEEF5E124BC0B0926808A0923B
:100B70006708109227049092250480922404D2CF13
:100B8000882381F289E593E075D78AE193E028D63E
:100B900088855FD78885813209F0C4CF4C814D317B
:100BA00008F04CE1F701872D11928A95E9F750E0A2
:100BB000BE01675F7F4FC7010E94B816F7018481AD
:100BC0009581A681B7818093AE089093AF08A093DA
:100BD000B008B093B10880859185A285B3858093D4
:100BE000AA089093AB08A093AC08B093AD08828D8F
:100BF000938D9093A9088093A8086092A70892CF3C
:100C0000D0926808C09267088DCFC85CDE4F0FB6DF
:100C1000F894DEBF0FBECDBFDF91CF911F910F9132
:100C2000FF90EF90DF90CF90BF90AF909F908F900C
:100C30007F906F905F9008955F926F927F928F92F6
:100C40009F92AF92BF92CF92DF92EF92FF920F935B
:100C50001F93CF93DF93CDB7DEB7C055D1400FB60A
:100C6000F894DEBF0FBECDBF7E018FEEE81A8EEF87
:100C7000F80A84E3782E99E0692ECC24C394D12C11
:100C800032E0A32EB12C88248A94982C89EB98E02A
:100C90004DDB181619060CF0CEC089EB98E024DB6A
:100CA000582E8E010B5B1E4F9E012F5F3F4F482F2A
:100CB00064E678E084E294E0C1DB8230A9F49091AC
:100CC00066089F5F9093660810926408EEEF5E12CC
:100CD000ADC0B0926808A092670810922704909265
:100CE000250480922404D2CF882381F289E593E001
:100CF000C1D68AE193E074D58885ABD688858A32DF
:100D000009F446C0823F19F08111C0CF65C04C8103
:100D1000453308F044E3F701872D11928A95E9F7EE
:100D200050E0BE01675F7F4FC7010E94B816F70110
:100D300080819181A281B3818093200490932104CA
:100D4000A0932204B093230484819581A681B78166
:100D500080931C0490931D04A0931E04B0931F0461
:100D600084E293E087D66091200470912104809101
:100D700022049091230446D682E393E07BD66091CF
:100D80001C0470911D0480911E0490911F043AD69A
:100D90004C81433008F042E0F7011182108250E0AC
:100DA000BE01675F7F4FC7010E94B816F7018081BF
:100DB000918190939E0880939D0880E493E05AD699
:100DC00060919D0870919E0880E090E04AE019D5FE
:100DD0008BE593E005D55ACF4C814A3008F049E0C5
:100DE000F701862D11928A95E9F750E0BE01675F01
:100DF0007F4FC7010E94B8168E818F3F09F446CFFE
:100E000080931B048F8180931A04F7018081809363
:100E1000B4088681809319048EE593E02BD688E68A
:100E200093E028D68091B40814D630CFD0926808C9
:100E3000C09267082BCFC05BDE4F0FB6F894DEBFC1
:100E40000FBECDBFDF91CF911F910F91FF90EF901B
:100E5000DF90CF90BF90AF909F908F907F906F90DA
:100E60005F9008951092AE081092AF081092B008EB
:100E70001092B1081092AA081092AB081092AC0818
:100E80001092AD081092A9081092A8081092A30819
:100E90001092A4081092A5081092A60810929F081C
:100EA0001092A0081092A1081092A20881E08093ED
:100EB00018041092A70810929E0810929D08089599
:100EC0000F931F93CF93DF938C01EB014B8150E085
:100ED0004A5F5F4F6E5F7F4F0E94B8169B81E92F7C
:100EE000F0E03696E00FF11F88818083898181834D
:100EF0008B8190E00896DF91CF911F910F9108951B
:100F0000CF93DF93CDB7DEB7C751D2400FB6F89479
:100F1000DEBF0FBECDBF20E030E040E752E462E725
:100F200073E0CE0101961CD4BE016F5F7F4FCE01EE
:100F30008F5E9E4FC5DFAC01BE016F5E7E4F89EBB9
:100F400098E090D2C95EDD4F0FB6F894DEBF0FBEB9
:100F5000CDBFDF91CF910895CF93DF93CDB7DEB7AB
:100F6000C751D2400FB6F894DEBF0FBECDBF20E010
:100F700030E040E85FE36EE773E0CE010196F0D326
:100F8000BE016F5F7F4FCE018F5E9E4F99DFAC0138
:100F9000BE016F5E7E4F89EB98E064D2C95EDD4F83
:100FA0000FB6F894DEBF0FBECDBFDF91CF9108958D
:100FB000CF93DF93CDB7DEB7C751D2400FB6F894C9
:100FC000DEBF0FBECDBF20E030E048EC52E46EE85B
:100FD00073E0CE010196C4D3BE016F5F7F4FCE0197
:100FE0008F5E9E4F6DDFAC01BE016F5E7E4F89EB61
:100FF00098E038D2C95EDD4F0FB6F894DEBF0FBE61
:10100000CDBFDF91CF910895CF93DF93CDB7DEB7FA
:10101000C751D2400FB6F894DEBF0FBECDBF20E05F
:1010200030E040E251E46BE973E0CE01019698D3E1
:10103000BE016F5F7F4FCE018F5E9E4F41DFAC01DF
:10104000BE016F5E7E4F89EB98E00CD2C95EDD4F2A
:101050000FB6F894DEBF0FBECDBFDF91CF910895DC
:101060000F931F93CF93DF93CDB7DEB7C751D24015
:101070000FB6F894DEBF0FBECDBFEFB7F894009166
:101080009508109196082091970830919808EFBF25
:10109000CF5EDE4F088319832A833B83C151D14041
:1010A000CB5EDE4F688379838A839B83C551D140B1
:1010B0008AE04115510551F4E1E1F1E0EC0FFD1F2B
:1010C0003896DF011D928A95E9F70AC0FA01A1E17D
:1010D000B1E0AC0FBD1F189601900D928A95E1F713
:1010E00082E1FE01EF5EFE4FDE01199601900D9246
:1010F0008A95E1F78BEF88870AEA22E140E061E018
:10110000CE0101966FDCBE016F5F7F4FCE018F5E17
:101110009E4FD6DEAC01BE016F5E7E4F89EB98E03C
:10112000A1D1C95EDD4F0FB6F894DEBF0FBECDBFB3
:10113000DF91CF911F910F9108950F93CF93DF937C
:10114000CDB7DEB7C751D2400FB6F894DEBF0FBEA1
:10115000CDBF81E089871A868DE2888708EE22E07C
:1011600042E364E6CE0101963DDCBE016F5F7F4F36
:10117000CE018F5E9E4FA4DEAC01BE016F5E7E4F3E
:1011800089EB98E06FD1C95EDD4F0FB6F894DEBFF2
:101190000FBECDBFDF91CF910F9108950F93CF93E5
:1011A000DF93CDB7DEB7C751D2400FB6F894DEBF9C
:1011B0000FBECDBF83E090E0A0E0B0E089879A87C2
:1011C000AB87BC8781E08D878E878BE0888709E5B8
:1011D00026E042E364E6CE01019604DCBE016F5FC7
:1011E0007F4FCE018F5E9E4F6BDEAC01BE016F5E06
:1011F0007E4F89EB98E036D1C95EDD4F0FB6F8948B
:10120000DEBF0FBECDBFDF91CF910F9108950F9339
:10121000CF93DF93CDB7DEB7C751D2400FB6F89466
:10122000DEBF0FBECDBF19861A861B861C861D86A3
:101230001E861F86188A198A1A8A1B8A1C8A1D8A8A
:101240001E8A1F8A188E198E1A8E1B8E1C8E1D8E5A
:101250001E8E1F8E18A219A21AA21BA21CA284E124
:1012600090E09EA38DA381E08FA318A619A68CE41D
:10127000888708E921E242E364E6CE010196B2DB09
:10128000BE016F5F7F4FCE018F5E9E4F19DEAC01B6
:10129000BE016F5E7E4F89EB98E0E4D0C95EDD4F02
:1012A0000FB6F894DEBF0FBECDBFDF91CF910F9187
:1012B00008958F929F92AF92BF92CF92DF92EF925A
:1012C000FF92CF93DF93EB01BC01990F880B990B31
:1012D0000E9462146B017C0127D44B015C01C701A1
:1012E000B60122D46B017C0120E030E048E453E4F5
:1012F000C501B4010E94C01387FF17C020E030E091
:1013000048E453E4C701B6010E94C01387FF0DC033
:10131000AE01C501B401A4DE48EA53E0C701B6013D
:101320009FDE81E08093B2080CC0AE01C501B4011C
:1013300097DE4DEA53E0C701B60192DE1092B20883
:1013400066DFDF91CF91FF90EF90DF90CF90BF905D
:10135000AF909F908F9008950F93CF93DF93CDB769
:10136000DEB7C751D2400FB6F894DEBF0FBECDBF77
:1013700081E190E0A0E0B0E089879A87AB87BC87E5
:1013800081E08D878E878BE0888709E526E042E340
:1013900064E6CE01019626DBBE016F5F7F4FCE0172
:1013A0008F5E9E4F8DDDAC01BE016F5E7E4F89EB7F
:1013B00098E058D0C95EDD4F0FB6F894DEBF0FBE7F
:1013C000CDBFDF91CF910F910895CF93DF9348DA8E
:1013D000883C91055CF444DAEC01883C910534F4D6
:1013E000BBDF81E08093B308CE0104C01092B30844
:1013F00080E090E0DF91CF910895FC01A089B18950
:1014000082E08C93A089B1891C92A485B5851C9239
:10141000A685B78580E18C93108EA489B58986E076
:101420008C93A289B3898C9180618C93A289B389B2
:101430008C9188608C93A289B3898C9180688C93FD
:101440000288F389E02D80818F7D80830895E0916B
:101450005609F09157090190F081E02D682F86E53B
:1014600099E01994CF92DF92EF92FF920F931F931E
:10147000CF93DF936C017A018B01C0E0D0E0CE15F1
:10148000DF0589F0D8016D918D01D601ED91FC91B8
:101490000190F081E02DC6011995892B11F47E0190
:1014A00002C02196ECCFC701DF91CF911F910F9120
:1014B000FF90EF90DF90CF90089589EB98E00E9425
:1014C000960121E0892B09F420E0822F089586E51A
:1014D00099E00E94960121E0892B09F420E0822FF7
:1014E00008950F931F93CF93DF93CDB7DEB7C75106
:1014F000D2400FB6F894DEBF0FBECDBF19861A8654
:101500001B861C861D861E861F86188A198A1A8AC3
:101510001B8A1C8A1D8A1E8A1F8A188E698F7A8FE1
:101520008B8F9C8F2D8F3E8F4F8F58A319A21AA29D
:101530001BA21CA21EA30DA380E190E098A78FA37D
:1015400081E089A71AA693E09BA71CA68DA787E236
:1015500088870EEF25E242E364E6CE01019642DA87
:10156000BE016F5F7F4FCE018F5E9E4FA9DCAC0145
:10157000BE016F5E7E4F89EB98E074DFC95EDD4F80
:101580000FB6F894DEBF0FBECDBFDF91CF911F9194
:101590000F9108950F93CF93DF93CDB7DEB7C75167
:1015A000D2400FB6F894DEBF0FBECDBF83E090E00F
:1015B0009A87898781E08B871C868CE288870DED6E
:1015C00024E042E364E6CE0101960CDABE016F5FCF
:1015D0007F4FCE018F5E9E4F73DCAC01BE016F5E0C
:1015E0007E4F89EB98E03EDFC95EDD4F0FB6F89481
:1015F000DEBF0FBECDBFDF91CF910F9108950F9346
:10160000CF93DF93CDB7DEB7C751D2400FB6F89472
:10161000DEBF0FBECDBF19861A861B861C861D86AF
:101620001E861F86188A198A1A8A1B8A1C8A1D8A96
:101630001E8A1F8A188E698F7A8F8B8F9C8F2D8FB1
:101640003E8F4F8F58A319A21AA21BA21CA282E0A0
:1016500090E09EA38DA381E190E098A78FA381E005
:1016600089A71AA693E09BA71CA68DA787E2888767
:101670000EEF25E242E364E6CE010196B3D9BE0146
:101680006F5F7F4FCE018F5E9E4F1ADCAC01BE01B3
:101690006F5E7E4F89EB98E0E5DEC95EDD4F0FB6E9
:1016A000F894DEBF0FBECDBFDF91CF910F910895AB
:1016B0000F93CF93DF93CDB7DEB7C751D2400FB6AC
:1016C000F894DEBF0FBECDBF19861A861B861C8616
:1016D00080E090E0A0E0B0E48D879E87AF87B88B74
:1016E000198A1A8A1B8A1C8A1D8A1E8A1F8A188ECA
:1016F000198E1A8E1B8E1C8E1D8E1E8E1F8E18A28A
:1017000019A21AA21BA21CA28CE291E09EA38DA397
:1017100081E08FA318A619A68CE4888708E921E246
:1017200042E364E6CE0101965DD9BE016F5F7F4F53
:10173000CE018F5E9E4FC4DBAC01BE016F5E7E4F5B
:1017400089EB98E08FDEC95EDD4F0FB6F894DEBFFF
:101750000FBECDBFDF91CF910F9108950E94B416B7
:101760000F93CF93DF93CDB7DEB767970FB6F8949B
:10177000DEBF0FBECDBF29833A834B835C8321E05C
:101780002D831E822F8B6115710541F4FE01379662
:1017900020E1DF011D922A95E9F708C020E1FB0155
:1017A000DE01179601900D922A95E1F727E1FE01DF
:1017B0003196DC01189601900D922A95E1F727E108
:1017C000FC01278308EA42E364E60CD967960FB66A
:1017D000F894DEBF0FBECDBFDF91CF910F9108957A
:1017E000009761F0FC0101900020E9F73197AF010B
:1017F000481B590BBC0186E599E034CE80E090E0AF
:1018000008958F929F92AF92BF920F931F93CF93A1
:10181000DF93CDB7DEB7A1970FB6F894DEBF0FBE4A
:10182000CDBF19A2423008F44AE08E010F5D1F4F70
:10183000842E912CA12CB12CA50194010E946E162E
:10184000E62FB901CA0101501109EA3014F4E05D34
:1018500001C0E95CD801EC93232B242B252B61F7E5
:10186000C801BEDFA1960FB6F894DEBF0FBECDBF94
:10187000DF91CF911F910F91BF90AF909F908F906C
:1018800008954F925F926F927F928F929F92AF9244
:10189000BF92CF92DF92EF92FF92CF93DF936B01D3
:1018A0007C01B42E9B01AC010E945516882319F0CF
:1018B00083EB93E019C026013701E89477F82FEF06
:1018C0003FEF4FE75FE7C301B2010E945516811158
:1018D0000EC02FEF3FEF4FE75FE7C301B20150D7D4
:1018E00018162CF487EB93E07BDFEC0177C02FEF29
:1018F0003FEF4FE75FE4C701B6010E949C15181641
:101900001CF48BEB93E0F0CF2FEF3FEF4FE75FEC52
:10191000C701B60135D787FDF4CF20E030E0A9013B
:10192000C701B6012DD787FF08C08DE290DDEC011D
:10193000F7FAF094F7F8F09402C0C0E0D0E0A12CE0
:1019400060E070E080E09FE3AB1438F420E030E02A
:1019500040E251E41CD7A394F7CF9B01AC01C7012F
:10196000B60131D62B013C017FD76B017C01A8D792
:101970009B01AC01C301B20125D62B013C014AE019
:10198000C701B6013EDFC80FD91FBB2021F08EE290
:101990005EDDC80FD91FFB2CFF2001F120E030E0F5
:1019A00040E251E4C301B2010E94A7152B013C01A2
:1019B0005BD74B01A12CB12C4AE0C501B40121DF5A
:1019C000C80FD91FC501B4017BD79B01AC01C3016E
:1019D000B201F8D52B013C01FA94DECF8BE593E000
:1019E000FFDE8C0F9D1FDF91CF91FF90EF90DF9076
:1019F000CF90BF90AF909F908F907F906F905F90AF
:101A00004F900895CF92DF92EF92FF92CF93DF93A2
:101A100097FF17C06B017C018DE219DDEC01662791
:101A20007727CB016C197D098E099F094AE0E9DE11
:101A30008C0F9D1FDF91CF91FF90EF90DF90CF90A3
:101A400008954AE0DF91CF91FF90EF90DF90CF9023
:101A5000D8CECF93DF93682F70E080E090E04AE02B
:101A6000D0DEEC018BE593E0BBDE8C0F9D1FDF9198
:101A7000CF910895CF93DF93B3DEEC018BE593E034
:101A8000AFDE8C0F9D1FDF91CF9108950F931F93B1
:101A9000EAE4F2E06491E4E0F2E0E491F0E0EE0FD9
:101AA000FF1FEA54FE4F8591949100E412E42FE069
:101AB00030E0462F27D2611571058105910549F067
:101AC000DC01CB010196A11DB11DBC01CD019F70B0
:101AD00003C060E070E0CB011F910F910895CF9398
:101AE000DF93EAE4F2E02491E4E0F2E084918823D9
:101AF000C1F090E0880F991FFC01E456FE4FC5919C
:101B0000D491FC01EE57FE4FA591B4919FB7F89484
:101B10008881E22FE0958E2388838C91E823EC93D3
:101B20009FBFDF91CF9108952F923F924F925F9286
:101B30006F927F928F929F92AF92BF92CF92DF92DD
:101B4000EF92FF920F931F93CF93DF93CDB7DEB742
:101B50006C970FB6F894DEBF0FBECDBF7B018C0132
:101B60008090040290900502A0900602B0900702B7
:101B70002091000230910102409102025091030233
:101B8000C501B40120D59B01AC01C501B401FFD54D
:101B90002CEE31E548EB5DE3CFD718160CF0EFC023
:101BA000CE0101969E8B8D8BDE015596B88FAF8B43
:101BB00096DFED89FE8984E111928A95E9F7DE01CD
:101BC00011966D0163DF6093B5087093B60880933A
:101BD000B7089093B80876D620E030E048E652E4A3
:101BE000D6D5F60161937193819391936F016AE069
:101BF00070E080E090E00E94F8038F89988DC8160D
:101C0000D90601F7DE0115961D01C12CD12CD10199
:101C10008D919D910D90BC91A02D898F9A8FAB8F46
:101C2000BC8F56014101D4017E906E905E904E9023
:101C30004D01A3019201698D7A8D8B8D9C8DA0D56C
:101C400087FF09C0F4014482558266827782F1E001
:101C5000AF1AB10840F7F5013196EE0FFF1FEE0FF6
:101C6000FF1F81E090E08C0F9D1FE80FF91F898D09
:101C70009A8DAB8DBC8D80839183A283B3839FEFBC
:101C8000C91AD90AA4E02A0E311CB4E0CB16D1043B
:101C900009F0BDCF89859A85AB85BC85898F9A8FE0
:101CA000AB8FBC8F409004025090050260900602FA
:101CB00070900702209100023091010240910202CF
:101CC00050910302C301B2017ED49B01AC01C30158
:101CD000B2015DD54B015C01698D7A8D8B8D9C8D38
:101CE000BED5F0D59701A8016DD49B01AC01C5010B
:101CF000B4012DD79B01AC01B701C80164D47B01AD
:101D00008C012CEE31E548EB5DE3C501B40138D51B
:101D100087FF19C080E090E0A0E0B0E48093040267
:101D200090930502A0930602B093070280E090E032
:101D3000A0E8B0E48093000290930102A093020215
:101D4000B09303021CC0A501940160E070E080E83C
:101D50009FE338D4A3019201FAD6609304027093F2
:101D6000050280930602909307022CEE31E548EBC2
:101D70005DE3C501B401E0D618160CF419CFB70124
:101D8000C8016C960FB6F894DEBF0FBECDBFDF91D1
:101D9000CF911F910F91FF90EF90DF90CF90BF9068
:101DA000AF909F908F907F906F905F904F903F90FB
:101DB0002F9008951F920F920FB60F9211240BB619
:101DC0000F922F933F934F935F936F937F938F93D4
:101DD0009F93AF93BF93EF93FF9389EB98E00E949B
:101DE0007003FF91EF91BF91AF919F918F917F9180
:101DF0006F915F914F913F912F910F900BBE0F907C
:101E00000FBE0F901F9018951F920F920FB60F9252
:101E100011240BB60F922F933F934F935F936F93C1
:101E20007F938F939F93AF93BF93EF93FF9389EB30
:101E300098E00E945703FF91EF91BF91AF919F915E
:101E40008F917F916F915F914F913F912F910F9063
:101E50000BBE0F900FBE0F901F9018951F920F9200
:101E60000FB60F9211240BB60F922F933F934F93FF
:101E70005F936F937F938F939F93AF93BF93EF93F2
:101E8000FF9386E599E00E947003FF91EF91BF9167
:101E9000AF919F918F917F916F915F914F913F9102
:101EA0002F910F900BBE0F900FBE0F901F901895A3
:101EB0001F920F920FB60F9211240BB60F922F9311
:101EC0003F934F935F936F937F938F939F93AF93C2
:101ED000BF93EF93FF9386E599E00E945703FF912C
:101EE000EF91BF91AF919F918F917F916F915F9192
:101EF0004F913F912F910F900BBE0F900FBE0F90FF
:101F00001F901895CF92DF92EF92FF920F931F933D
:101F1000E82FF92F05C0015011092109310961F19C
:101F2000908196239417B9F305C001501109210936
:101F3000310911F1908196239413F7CFC12CD12C44
:101F4000E12CF12C0AC08FEFC81AD80AE80AF80A67
:101F50000C151D052E053F0579F080818623841719
:101F600091F36C2D7D2D8E2D9F2D1F910F91FF9044
:101F7000EF90DF90CF90089560E070E080E090E017
:101F80001F910F91FF90EF90DF90CF900895E9EBB4
:101F9000F8E01382128248EE53E060E070E0448380
:101FA0005583668377838CE093E0918380832DEC67
:101FB00030E0358724872CEC30E03787268728EC03
:101FC00030E0318B208B29EC30E0338B228B2AECF4
:101FD00030E0358B248B2EEC30E0378B268B118E46
:101FE000128E138E148EE6E5F9E01382128244837A
:101FF0005583668377839183808385EC90E0958712
:10200000848784EC90E09787868780EC90E0918BC2
:10201000808B81EC90E0938B828B82EC90E0958BAF
:10202000848B86EC90E0978B868B118E128E138EAC
:10203000148E0895CF93DF93CDB7DEB760970FB6B8
:10204000F894DEBF0FBECDBF789484B5826084BDA6
:1020500084B5816084BD85B5826085BD85B58160AC
:1020600085BD80916E00816080936E00109281002A
:1020700080918100826080938100809181008160E5
:1020800080938100809180008160809380008091A6
:10209000B10084608093B1008091B0008160809332
:1020A000B0008091910082608093910080919100B6
:1020B0008160809391008091900081608093900076
:1020C0008091A10082608093A1008091A100816035
:1020D0008093A1008091A00081608093A0008091F6
:1020E0002101826080932101809121018160809390
:1020F00021018091200181608093200180917A00EC
:10210000846080937A0080917A00826080937A0064
:1021100080917A00816080937A0080917A00806853
:1021200080937A001092C10089EB98E066D986E529
:1021300099E063D922242394312C0E941C068091BB
:10214000FD09811109C00E94D8070E94AC070E94B6
:10215000800781E08093FD098091B408863039F0D2
:102160008091FB099091FC09019709F056C03092CB
:10217000FC092092FB098091FB099091FC090197D1
:1021800009F04BC022D92091B3082223A1F36FEBB1
:1021900073E08FD88091B208882369F3DDD80E945C
:1021A00032071092B2081092B30882E090E0909348
:1021B000FC098093FB09DFCF8091AA089091AB08BE
:1021C000A091AC08B091AD08892B8A2B8B2B29F5F7
:1021D0008091A8089091A908892BF9F48091A7080B
:1021E00081111BC00E9468056091AE087091AF0814
:1021F0008091B0089091B108611571058105910534
:10220000B1F48091AE089091AF08A091B008B09160
:10221000B108892B8A2B8B2B79F28091FB09909145
:10222000FC09029709F0ADC10E940408EACF809032
:10223000AA089090AB08A090AC08B090AD088114AB
:102240009104A104B104E9F2E090A808F090A90873
:10225000E114F104B1F22091A708222391F232D3C4
:1022600020E836E948E15BE492D22B013C01C5014C
:10227000B40128D320E836E948E15BE488D26D83D5
:102280007E838F839887B70180E090E019D320E0A8
:1022900030E048EC52E47BD220E030E048EC52E4FD
:1022A00092D14B015C0120E030E044EB53E444D494
:1022B00087FD09C020E030E044EB53E4C501B401E0
:1022C00081D14B015C0125E33AEF4EE85CE3C301A9
:1022D000B2013DD46B017C0125E33AEF4EE85CE3AB
:1022E000C501B40134D42B013C01C701B60192D41D
:1022F0004B015C01C701B60147D269837A838B83A6
:102300009C83C301B20140D26B017C0123EC3DEC04
:102310004CEF54E369817A818B819C8118D4A701A9
:10232000960115D49B01AC01C501B4014CD1AFD1CC
:102330006B017C016FD49B01AC01C301B2012D87FD
:102340003E874F87588B66D469877A878B879C87AF
:102350002D853E854F855889C501B401F8D39B0171
:10236000AC0160E070E080E89FE32CD14B015C01A0
:1023700023EC3DEC4CEF54E369857A858B859C8595
:10238000E6D329813A814B815C81E1D3A501940197
:10239000A4D14B015C0120E030E044E353E4C701E9
:1023A000B601D5D32BED3FE049E450E4F0D16B0109
:1023B0007C0125E33AEF4EE85CE36D817E818F81FD
:1023C0009885C5D3A5019401FED020E030E044E318
:1023D00053E4BDD32BED3FE049E450E4D8D14B01A9
:1023E0005C0183EC93E0FCD948E050E0C701B60102
:1023F00048DA85ED93E0F4D948E050E0C501B40136
:1024000040DA88EE93E0ECD920E030E044E353E496
:10241000C301B2019CD32BED3FE049E450E4B7D1B6
:1024200042E050E02EDAC092A308D092A408E092D5
:10243000A508F092A60880929F089092A008A0920A
:10244000A108B092A20820E836E948E15BE4C701A0
:10245000B6017DD304D26093F7097093F809809395
:10246000F9099093FA0920E836E948E15BE4C501EF
:10247000B4016DD3F4D16093F3097093F4098093A0
:10248000F5099093F60985EF93E0AAD96091F709D1
:102490007091F8098091F9099091FA09B3DA8BE506
:1024A00093E09ED984E094E09BD96091F309709108
:1024B000F4098091F5099091F609A4DA8BE593E08F
:1024C0008FD9C090A308D090A408E090A508F09000
:1024D000A60820E030E0A901C701B60151D1882348
:1024E00009F48FCE80909F089090A008A090A1083A
:1024F000B090A20820E030E0A901C501B40140D1AC
:10250000882309F47ECE0E949D0844D800E010E0A4
:10251000A5019401C701B6010E94710A01E010E013
:10252000A5019401C701B6010E94710AA501940199
:10253000C701B60164D80E94CE08BAD860ED77E032
:1025400080E090E00E94F80383E090E09093FC0923
:102550008093FB0956CE0E94E5092091B308211112
:1025600017C00E941C0680919D0890919E080297BA
:1025700041F40E9432070E9407093092FC09209220
:10258000FB098091FB099091FC09039721F317C087
:1025900064E174E00E9459098091B208882309F32C
:1025A0000E94AC090E9432071092B2081092B30840
:1025B00082E090E09093FC098093FB09D2CF0E94C7
:1025C000A201BBCD5058BB27AA270ED06AC233D276
:1025D00030F038D220F031F49F3F11F41EF4F2C1F4
:1025E0000EF4E095E7FBE8C1E92F7DD280F3BA173E
:1025F000620773078407950718F071F49EF595C27A
:102600000EF4E0950B2EBA2FA02D0B01B90190010D
:102610000C01CA01A0011124FF27591B99F0593F51
:1026200050F4503E68F11A16F040A22F232F342F99
:102630004427585FF3CF469537952795A795F040E7
:102640005395C9F77EF41F16BA0B620B730B840BFC
:10265000BAF09150A1F0FF0FBB1F661F771F881FB4
:10266000C2F70EC0BA0F621F731F841F48F487950C
:1026700077956795B795F7959E3F08F0B3CF9395FB
:10268000880F08F09927EE0F9795879508959F93E7
:102690009F77EEE389379E0720F4EAEFF0E0BAD1A6
:1026A00009C04BD19058A2EA2AED3FE049EC5FE324
:1026B0009BDFF7D10F9007FC90580895BCD158F0DC
:1026C00080E891E009F49EEFBDD128F040E851E0A8
:1026D00059F45EEF09C076C128C2E92FE07803D231
:1026E00068F3092E052AC1F326173707480759074B
:1026F00038F00E2E07F8E02569F0E025E0640AC006
:10270000EF6307F8009407FADB01B9019D01DC01D2
:10271000CA01AD01EF934AD0C4D10AD05F915523CD
:1027200031F02BED3FE049E450FD49EC4CCF0895EA
:10273000DF93DD27B92FBF7740E85FE31616170652
:1027400048075B0710F4D92FFBD19F938F937F939A
:102750006F93A8D2EEE0F1E038D1A3D12F913F9151
:102760004F915F9100D2DD2349F09058A2EA2AED03
:102770003FE049EC5FE3D0785D2736DFDF9191C120
:10278000F7D008F481E0089565D1E3959BC10CD0A2
:1027900088C158D140F04FD130F021F45F3F19F09B
:1027A0000BC15111C3C10EC19ED198F39923C9F336
:1027B0005523B1F3951B550BBB27AA276217730747
:1027C000840738F09F5F5F4F220F331F441FAA1FFB
:1027D000A9F333D00E2E3AF0E0E830D091505040BB
:1027E000E695001CCAF729D0FE2F27D0660F771F69
:1027F000881FBB1F261737074807AB07B0E809F04B
:10280000BB0B802DBF01FF2793585F4F2AF09E3FDF
:10281000510568F0D1C08AC15F3FECF3983EDCF30C
:10282000869577956795B795F7959F5FC9F7880F58
:10283000911D9695879597F90895E1E0660F771FAA
:10284000881FBB1F621773078407BA0720F0621B3B
:10285000730B840BBA0BEE1F88F7E095089504D034
:102860006894B11163C1089546D188F09F5790F0E4
:10287000B92F9927B751A0F0D1F0660F771F881FA5
:10288000991F1AF0BA95C9F712C0B13081F04DD135
:10289000B1E008954AC1672F782F8827B85F39F0D3
:1028A000B93FCCF3869577956795B395D9F73EF404
:1028B00090958095709561957F4F8F4F9F4F0895AC
:1028C000E89409C097FB3EF49095809570956195CA
:1028D0007F4F8F4F9F4F9923A9F0F92F96E9BB2780
:1028E0009395F695879577956795B795F111F8CFFC
:1028F000FAF4BB0F11F460FF1BC06F5F7F4F8F4F67
:102900009F4F16C0882311F096E911C0772321F05C
:102910009EE8872F762F05C0662371F096E8862FF4
:1029200070E060E02AF09A95660F771F881FDAF74B
:10293000880F9695879597F90895DF93CF931F9306
:102940000F938B01EC01EBE3F1E03FD0AAD09801AB
:10295000AE018B01EC0160E070E080E89FE332DEC5
:1029600063D19801AE010F911F91CF91DF91FBC010
:10297000990F0008550FAA0BE0E8FEEF1616170690
:10298000E807F907C0F012161306E407F50798F0F8
:10299000621B730B840B950B39F40A2661F0232B11
:1029A000242B252B21F408950A2609F4A140A6958D
:1029B0008FEF811D811D089597F99F6780E870E072
:1029C00060E008959FEF80EC0895DF93CF931F930D
:1029D0000F93FF92EF92DF927B018C01689405C008
:1029E000DA2EEF01C0D0FE01E894A5912591359132
:1029F00045915591AEF3EF01F7DDFE019701A80176
:102A0000DA9479F7DF90EF90FF900F911F91CF91BB
:102A1000DF9108959F938F937F936F93FF93EF932D
:102A20009B01AC0194D0EF91FF91CFDF2F913F91AB
:102A30004F915F918CC000240A9416161706180651
:102A40000906089500240A941216130614060506B2
:102A50000895B8CF50D0E8F3E894E0E0BB279F5743
:102A6000F0F02AED3FE049EC06C0EE0FBB0F661F09
:102A7000771F881F28F0B23A62077307840728F08F
:102A8000B25A620B730B840BE3959A9572F78038F8
:102A900030F49A95BB0F661F771F881FD2F79048B6
:102AA0000AC1092E0394000C11F4882352F0BB0FC5
:102AB00040F4BF2B11F460FF04C06F5F7F4F8F4F56
:102AC0009F4F0895EF93E0FF06C0A2EA2AED3FE092
:102AD00049EC5FEB89DDE5DF0F90039401FC905832
:102AE000E3E6F1E097CF57FD9058440F551F59F09A
:102AF0005F3F71F04795880F97FB991F61F09F3FEB
:102B000079F087950895121613061406551FF2CF13
:102B10004695F1DF08C0161617061806991FF1CF63
:102B200086957105610508940895E894BB2766278A
:102B30007727CB0197F908951BDF08F48FEF0895ED
:102B40009B01AC0160E070E080E89FE320CE0BD0F9
:102B5000A8CF71DF28F076DF18F0952309F02CCF8D
:102B600031CF1124E3CFBFDFA0F3959FD1F3950FB1
:102B700050E0551F629FF001729FBB27F00DB11D01
:102B8000639FAA27F00DB11DAA1F649F6627B00D91
:102B9000A11D661F829F2227B00DA11D621F739F7A
:102BA000B00DA11D621F839FA00D611D221F749F88
:102BB0003327A00D611D231F849F600D211D822FCF
:102BC000762F6A2F11249F5750408AF0E1F0882316
:102BD0004AF0EE0FFF1FBB1F661F771F881F915023
:102BE0005040A9F79E3F510570F0E6CE9FCF5F3F62
:102BF000ECF3983EDCF3869577956795B795F79556
:102C0000E7959F5FC1F7FE2B880F911D96958795DD
:102C100097F908959F931EDF0F9007FCEE5F52CF48
:102C200011F40EF4CFCE45C066DFD0F39923D9F36B
:102C3000CEF39F57550B87FF4AD00024A0E640EA09
:102C4000900180585695979528F4805C660F771F01
:102C5000881F20F026173707480730F4621B730BD4
:102C6000840B202931294A2BA695179407942025F7
:102C700031254A2758F7660F771F881F20F026173F
:102C80003707480730F4620B730B840B200D311D9E
:102C9000411DA09581F7B901842F9158880F969511
:102CA000879508959B01AC0152CF62DE880B990B8A
:102CB00008959F3F31F0915020F48795779567955F
:102CC000B795880F911D9695879597F9089591501E
:102CD0005040660F771F881FD2F70895A1E21A2E81
:102CE000AA1BBB1BFD010DC0AA1FBB1FEE1FFF1FB0
:102CF000A217B307E407F50720F0A21BB30BE40B00
:102D0000F50B661F771F881F991F1A9469F7609546
:102D10007095809590959B01AC01BD01CF01089500
:102D2000052E97FB16F400940FD057FD05D0D6DF83
:102D300007FC02D046F408C0509540953095219587
:102D40003F4F4F4F5F4F08959095809570956195D7
:102D50007F4F8F4F9F4F0895EE0FFF1F881F8BBF30
:102D60000790F691E02D199481E090E0F89409C065
:102D7000FB01DC0102C001900D9241505040D8F798
:062D80000895F894FFCF56
:102D86000000804000000040327C8900EDD9687761
:102D9600000000590000000000000000D69FDCA8DB
:102DA6001817AA90437327F6B968EDF4DED409FE26
:102DB600E61C1C84DDE80B9929274EC400000F038E
:102DC6000000000000A7B777BF76941500F37C00DB
:102DD6000026149E988F0000006A31168F8C059687
:102DE60000E7B73F362F000000000000AF669ED018
:102DF600385D8A6C20B95422AE7CED044C80387460
:102E060086EDCBFA57CBDC19E22E1DDF5506E5CB56
:102E160001C36DA8B52F48837F00679AB2C800002A
:102E2600000000000000000000000000000000009C
:102E3600000000000000000000000000000000008C
:102E4600000000000000000000000000000000007C
:102E5600000000000000000000000000000000006C
:102E66000000000000000000000000000000A36950
:102E76009723960000000000005A68555F82B851FB
:102E860008CC31AA2C532E00000000009103320A10
:102E96006501D7039601740188014D6573736167F7
:102EA600653A2000486F6D65204C61742069733A5D
:102EB6002000486F6D65204C6F6E2069733A2000C4
:102EC60043757272656E74204D697373696F6E20F7
:102ED60053657175656E63653A20000D0A00686575
:102EE60061727462656174004D6F64652069733A3E
:102EF600200057504E41565F5350454544005750A9
:102F06005F5941575F4245484156494F5200535217
:102F1600315F4558545F53544154005352315F500A
:102F26004F534954494F4E00747275650066616C83
:102F36007365006E616E00696E66006F766600539B
:102F46005431004E6577204C617469747564652050
:102F560069733A20004E6577204C6F6E6769747509
:102F660064652069733A200042656172696E672064
:102F760069733A20006C61745461726765742069E4
:102F8600733A20006C6F6E675461726765742069CE
:082F9600733A2000535432008D
:00000001FF
