:100000002EC100005DC100005BC1000059C10000AD
:1000100057C1000055C1000053C1000051C100008C
:100020004FC100004DC100004BC1000049C100009C
:1000300047C100000C94BF0A43C1000041C1000049
:100040003FC100003DC100003BC1000039C10000BC
:1000500037C1000035C1000033C100000C94750A9F
:100060002FC100000C944B0A0C94210A29C10000F6
:1000700027C1000025C1000023C1000021C10000EC
:100080001FC100001DC100001BC1000019C10000FC
:100090000C94F7090C94CD0913C1000011C10000A4
:1000A0000FC100000DC100000BC1000009C100001C
:1000B00007C1000005C1000003C1000001C100002C
:1000C000FFC00000FDC00000FBC00000F9C0000040
:1000D000F7C00000F5C00000F3C00000F1C0000050
:1000E000EFC00000740774078807A0079307AB07E9
:1000F000B607CC07E10708080808036EDB363D9A0F
:100100009999993DABAAAA2A3E000000803F084A6F
:10011000D73B3BCE016E84BCBFFDC12F3D6C74311B
:100120009ABD56833DDA3D00C77F11BED9E4BB4C72
:100130003E916BAAAABE000000803F072C7AA5BAA8
:100140006CC590DA3B9365FC8BBC53F810FD3C56B4
:1001500092834DBD879D3AB63DCBC9BF5BBE73DA76
:100160000FC93F05A84CCDB2D44EB93836A9020C00
:1001700050B9918688083CA6AAAA2ABE0000008031
:100180003F0000002100240027002A002D0030003D
:10019000330001010000040107010A0100002000F2
:1001A0002300260029002C002F003200000100004F
:1001B00003010601090100002200250028002B0090
:1001C0002E003100340002010000050108010B017E
:1001D00005050505070508080808020202020A0AC3
:1001E00008080404040401010101010101010303E1
:1001F000030303030303040707070C0C0C0C0C0C8C
:100200000C0C0202020206060606060606060B0B88
:100210000B0B0B0B0B0B01021020200808102040C9
:1002200010204080020102010804020101020408BA
:100230001020408080402010080402018004020148
:100240008040201008040201080402010102040891
:10025000102040800102040810204080D311112496
:100260001FBECFEFD1E2DEBFCDBF00E00CBF14E078
:10027000A0E0B2E0E4EAFCE200E00BBF02C00790BD
:100280000D92A639B107D9F72AE0A6E9B4E001C07A
:100290001D92AD39B207E1F711E0CFE2D1E000E005
:1002A00006C021970109802FFE010E943B16CE3225
:1002B000D10780E00807A9F70E94100D0C94501692
:1002C0009FCEFC01A089B1898C91A689B78982FD56
:1002D0000FC09C91818D8F5F8F73228D821749F0A3
:1002E000218DDF01A20FB11D5D969C93818F089532
:1002F0008C910895089580E090E00895FC01538D5D
:10030000448D252F30E0842F90E0821B930B5417EF
:1003100010F0CF96089501970895FC01918D828D7C
:10032000981761F0828DDF01A80FB11D5D968C9149
:10033000928D9F5F9F73928F90E008958FEF9FEF54
:100340000895FC01918D828D981731F0828DE80F10
:10035000F11D858D90E008958FEF9FEF0895FC01CA
:10036000918D228D892F90E0805C9F4F821B910997
:100370008F739927089581E599E0F1DF21E0892BBA
:1003800009F420E0822F08958EEE99E0E8DF21E065
:10039000892B09F420E0822F0895FC01848DDF0170
:1003A000A80FB11DA35ABF4F2C91848D90E00196E8
:1003B0008F739927848FA689B7892C93A089B189D7
:1003C0008C9180648C93938D848D981306C00288E1
:1003D000F389E02D80818F7D80830895EF92FF92D5
:1003E0000F931F93CF93DF93EC0181E0888F9B8D58
:1003F0008C8D981305C0E889F989808185FD23C01B
:10040000F62E0B8D10E00F5F1F4F0F731127E02E9C
:100410008C8DE8120BC00FB607FCFACFE889F9897A
:10042000808185FFF5CFCE01B8DFF2CF8B8DFE0145
:10043000E80FF11DE35AFF4FF0820B8FEA89FB8929
:100440008081806207C0EE89FF896083E889F9892D
:1004500080818064808381E090E0DF91CF911F9163
:100460000F91FF90EF900895CF93DF93EC01888D6B
:100470008823C1F0EA89FB89808185FD05C0A889B0
:10048000B9898C9186FD0EC00FB607FCF5CF80812F
:1004900085FFF2CFA889B9898C9185FFEDCFCE0178
:1004A0007CDFE8CFDF91CF91089580E090E0892B49
:1004B00019F06ADF811120C080E090E0892B19F0EB
:1004C0005ADF81111CC080E090E0892B41F080E070
:1004D00090E0892B21F00E940000811113C080E080
:1004E00090E0892BA1F080E090E0892B81F00E94C0
:1004F000000081110AC008950E940000DDCF0E9413
:100500000000E1CF0E940000EACF0C9400000895A3
:100510003FB7F8948091170990911809A091190993
:10052000B0911A0926B5A89B05C02F3F19F0019676
:10053000A11DB11D3FBFBA2FA92F982F8827820F69
:10054000911DA11DB11DBC01CD0142E0660F771FB9
:10055000881F991F4A95D1F708952FB7F894609195
:1005600013097091140980911509909116092FBFF4
:100570000895E0913B09E1110FC0672B682B692BAF
:1005800041F0232B242B252B21F081E080933B0984
:10059000089510923B090895E0912C09E1110EC0D5
:1005A000672B682B692B41F0232B242B252B21F063
:1005B00081E080932C09089510922C090895FB0185
:1005C0002081822790E1899F900111242827822F82
:1005D00090E0582F44279C0163E0220F331F6A9557
:1005E000E1F742275327218130E02427352774E0A3
:1005F000959587957A95E1F7822793279183808354
:1006000008958F929F92AF92BF92CF92DF92EF9216
:10061000FF920F931F93CF93DF931F921F92CDB73B
:10062000DEB77C01122F8EEFD70112968C931297B2
:1006300013962C93139715966C93159716964C93C7
:1006400016979091E70814969C939F5F9093E70804
:100650008FEF9FEF9A8389835701B3E0AB0EB11CF4
:100660006701E8E0CE0ED11CAC14BD0441F0BE0120
:100670006F5F7F4FD5018D915D01A1DFF5CF89813E
:100680009A81F70191838083560183814601880E08
:10069000911CB701A814B90429F0D5018D915D0111
:1006A0008EDFF7CF802F8BDFF7018381F601E80F14
:1006B000F11DD7018C91808313968C911397F601CD
:1006C000E80FF11D11968C918183812F90E008969F
:1006D0000F900F90DF91CF911F910F91FF90EF90AE
:1006E000DF90CF90BF90AF909F908F9008950F9321
:1006F0001F93CF93DF938C01EB014B8150E04A5F56
:100700005F4F6E5F7F4F0E9447169B81E92FF0E09D
:100710003696E00FF11F88818083898181838B81E8
:1007200090E00896DF91CF911F910F9108950F935C
:10073000CF93DF93CDB7DEB7C751D2400FB6F89451
:10074000DEBF0FBECDBF84E090E0A0E0B0E08987BF
:100750009A87AB87BC8781E08D878E878BE08887FF
:1007600009E526E042E364E6CE0101964ADFBE01D8
:100770006F5F7F4FCE018F5E9E4FB9DFAC01BE0130
:100780006F5E7E4F81E599E030D7C95EDD4F0FB6D1
:10079000F894DEBF0FBECDBFDF91CF910F910895CA
:1007A0000F93CF93DF93CDB7DEB7C751D2400FB6CB
:1007B000F894DEBF0FBECDBF80E090E0A0EAB1E4C8
:1007C00089879A87AB87BC871D861E861F86188AF5
:1007D000198A1A8A1B8A1C8A1D8A1E8A1F8A188EE9
:1007E00087E697EEADE4B2E4898F9A8FAB8FBC8F2A
:1007F00081EE97E0A4E3B0EC8D8F9E8FAF8FB8A30E
:1008000080E090E0A8ECB2E489A39AA3ABA3BCA3D8
:1008100082E090E09EA38DA380E190E098A78FA353
:1008200081E089A71AA61BA68CA78DA787E28887D7
:100830000EEF25E242E364E6CE010196E2DEBE0160
:100840006F5F7F4FCE018F5E9E4F51DFAC01BE01C7
:100850006F5E7E4F81E599E0C8D6C95EDD4F0FB669
:10086000F894DEBF0FBECDBFDF91CF910F910895F9
:100870000F93CF93DF93CDB7DEB7C751D2400FB6FA
:10088000F894DEBF0FBECDBF80E090E0A0EAB1E4F7
:1008900089879A87AB87BC871D861E861F86188A24
:1008A000198A1A8A1B8A1C8A1D8A1E8A1F8A188E18
:1008B00085E89CE6ADE4B2E4898F9A8FAB8FBC8F5C
:1008C00080E79AECA9E3B0EC8D8F9E8FAF8FB8A331
:1008D00080E090E0A8ECB2E489A39AA3ABA3BCA308
:1008E00081E090E09EA38DA380E190E098A78FA384
:1008F00081E089A71AA61BA68CA78DA787E2888707
:100900000EEF25E242E364E6CE0101967ADEBE01F7
:100910006F5F7F4FCE018F5E9E4FE9DEAC01BE015F
:100920006F5E7E4F81E599E060D6C95EDD4F0FB600
:10093000F894DEBF0FBECDBFDF91CF910F91089528
:100940000F93CF93DF93CDB7DEB7C751D2400FB629
:10095000F894DEBF0FBECDBF80E090E0A0EAB1E426
:1009600089879A87AB87BC871D861E861F86188A53
:10097000198A1A8A1B8A1C8A1D8A1E8A1F8A188E47
:100980008BE69CE6ADE4B2E4898F9A8FAB8FBC8F87
:100990008DEC98ECA9E3B0EC8D8F9E8FAF8FB8A350
:1009A00080E090E0A8ECB2E489A39AA3ABA3BCA337
:1009B0001EA21DA280E190E098A78FA381E089A7E5
:1009C0001AA61BA68CA78DA787E288870EEF25E2C3
:1009D00042E364E6CE01019614DEBE016F5F7F4FF5
:1009E000CE018F5E9E4F83DEAC01BE016F5E7E4FF7
:1009F00081E599E0FAD5C95EDD4F0FB6F894DEBF08
:100A00000FBECDBFDF91CF910F9108950F93CF937C
:100A1000DF93CDB7DEB7C751D2400FB6F894DEBF33
:100A20000FBECDBF83E090E09A87898781E08B87F6
:100A30001C868CE288870DED24E042E364E6CE015B
:100A40000196DFDDBE016F5F7F4FCE018F5E9E4F4F
:100A50004EDEAC01BE016F5E7E4F81E599E0C5D5EB
:100A6000C95EDD4F0FB6F894DEBF0FBECDBFDF917C
:100A7000CF910F9108950F93CF93DF93CDB7DEB74A
:100A8000C751D2400FB6F894DEBF0FBECDBF81E094
:100A900089871A868DE2888708EE22E042E364E6C1
:100AA000CE010196AEDDBE016F5F7F4FCE018F5E3E
:100AB0009E4F1DDEAC01BE016F5E7E4F81E599E069
:100AC00094D5C95EDD4F0FB6F894DEBF0FBECDBF23
:100AD000DF91CF910F9108950F93CF93DF93CDB70F
:100AE000DEB7C751D2400FB6F894DEBF0FBECDBF00
:100AF00019861A861B861C861D861E861F86188AE6
:100B0000198A1A8A1B8A1C8A1D8A1E8A1F8A188EB5
:100B1000198E1A8E1B8E1C8E1D8E1E8E1F8E18A275
:100B200019A21AA21BA21CA284E190E09EA38DA38D
:100B300081E08FA318A619A68CE4888708E921E232
:100B400042E364E6CE0101965CDDBE016F5F7F4F3C
:100B5000CE018F5E9E4FCBDDAC01BE016F5E7E4F3E
:100B600081E599E042D5C95EDD4F0FB6F894DEBF4E
:100B70000FBECDBFDF91CF910F9108958F929F92BD
:100B8000AF92BF92CF92DF92EF92FF920F931F939B
:100B9000CF93DF93CDB7DEB7CB51D2400FB6F894E9
:100BA000DEBF0FBECDBF6701780119861A861B868E
:100BB0001C86812C912CE0E8AE2EEFE3BE2E8D86B4
:100BC0009E86AF86B88A198A1A8A1B8A1C8A1D8A51
:100BD0001E8A1F8A188EC85EDD4F2883C851D240F6
:100BE000C75EDD4F3883C951D240C65EDD4F4883B2
:100BF000CA51D240C55EDD4F5883CB51D2400E94CE
:100C0000E613698F7A8F8B8F9C8FC85EDD4F2881AA
:100C1000C851D240C75EDD4F3881C951D240C65E4F
:100C2000DD4F4881CA51D240C55EDD4F5881CB515E
:100C3000D240CA01B9010E94E6136D8F7E8F8F8F5B
:100C400098A3C701B6010E94E61369A37AA38BA3F8
:100C50009CA380EC90E09EA38DA381E08FA318A6B7
:100C600019A68CE4888708E921E242E364E6CE0114
:100C70000196C7DCBE016F5F7F4FCE018F5E9E4F36
:100C800036DDAC01BE016F5E7E4F81E599E0ADD4EB
:100C9000C55EDD4F0FB6F894DEBF0FBECDBFDF914E
:100CA000CF911F910F91FF90EF90DF90CF90BF9069
:100CB000AF909F908F9008958F929F92AF92BF9226
:100CC000CF92DF92EF92FF920F93CF93DF93CDB746
:100CD000DEB7C751D2400FB6F894DEBF0FBECDBF0E
:100CE0007C013BDC69877A878B879C871E861D8603
:100CF00088EC90E0988B8F87FA8AE98A81E08B8B69
:100D00001C8A1D8A1E8A84E8888705E52EE042E356
:100D100064E6CE01019675DCBE016F5F7F4FCE01A8
:100D20008F5E9E4FE4DCAC01BE016F5E7E4F81E5BD
:100D300099E05BD4EDDB4B015C0184E6C82ED12C3D
:100D4000E12CF12CE5DBDC01CB0188199909AA091A
:100D5000BB09883E9340A105B10558F021E0C21AB5
:100D6000D108E108F10888EE880E83E0981EA11CE6
:100D7000B11CC114D104E104F10421F7C95EDD4FB7
:100D80000FB6F894DEBF0FBECDBFDF91CF910F91AC
:100D9000FF90EF90DF90CF90BF90AF909F908F909B
:100DA00008950F931F93CF93DF93CDB7DEB7C7514D
:100DB000D2400FB6F894DEBF0FBECDBF8C01CDDBA5
:100DC0002AE0E2E1F3E0A1E1B1E0AC0FBD1F18962B
:100DD00001900D922A95E1F7CF5EDE4F688379830B
:100DE0008A839B83C151D140C801110FAA0BBB0B51
:100DF000CB5EDE4F88839983AA83BB83C551D140E4
:100E000082E1FE01EF5EFE4FDE01199601900D9228
:100E10008A95E1F78CEF88870CE222E140E061E0FF
:100E2000CE010196EEDBBE016F5F7F4FCE018F5E7C
:100E30009E4F5DDCAC01BE016F5E7E4F81E599E0A7
:100E4000D4D3C95EDD4F0FB6F894DEBF0FBECDBF61
:100E5000DF91CF911F910F9108952F923F924F9262
:100E60005F926F927F928F929F92AF92BF92CF923A
:100E7000DF92EF92FF920F931F93CF93DF93CDB743
:100E8000DEB7CC52D1400FB6F894DEBF0FBECDBF57
:100E9000EE24E394F12C47E0442E512C56E0652ECD
:100EA000712C65E0C62ED12C8E010F5E1E4F81E5A0
:100EB00099E055DA181619060CF055C281E599E04B
:100EC0002CDA4C01B82E1092E0084091E3085091C2
:100ED000E4084B30510508F0BFC0FA018827EE58EE
:100EE000FF4F8F4F0C943B168EEF8812B5C082E0F7
:100EF00090E09093E4088093E30810929D04809220
:100F00009C048FEF9FEF90939B0480939A04A4C05E
:100F100080929D041092E5086AE974E0882D4FDB09
:100F2000E4E0F0E02FC080929E046AE974E0882D2E
:100F300046DB83E090E09093E4088093E3088CC064
:100F400080929F046AE974E0882D39DBD092E4082E
:100F5000C092E30881C08092A0046AE974E0882D01
:100F60002EDB7092E4086092E30876C08092A104C0
:100F70006AE974E0882D23DB80919D04811107C00C
:100F8000E8E0F0E0F093E408E093E30865C05092F5
:100F9000E4084092E30860C0E091E50881E08E0F2C
:100FA0008093E508F0E0EE55FB4F80826AE974E03B
:100FB000882D05DB9091E50880919D0498134CC025
:100FC000DFCFE091A104F0E0E050FE4F6AE974E069
:100FD0008081F5DA80919A0490919B049927A4016D
:100FE00055274817590739F08AE090E09093E408B4
:100FF0008093E30806C0E9E0F0E0F093E408E093B2
:10100000E308E091E508F0E0EE55FB4F808224C054
:101010004A30510541F020909B04312CC40199279E
:101020008215930511F082E001C081E08093E00811
:10103000F092E408E092E308E091E508F0E0ED5575
:10104000FB4F8082EAE9F4E0DE01119680E191E055
:1010500001900D920197E1F72091E008213099F479
:1010600080919E048093E6088091E8089091E908B9
:10107000009721F41092EB081092EA0801969093E1
:10108000E9088093E80880919D048C838091E508AD
:101090001092E208223091F590E0FC01ED55FB4FF3
:1010A0004081042E000C550B542F4427FC01EE55B3
:1010B000FB4F2081022E000C330BCA01822B932B95
:1010C0009A83898381E08093E2081092E008FEEF22
:1010D000BF120FC082E090E09093E4088093E30891
:1010E00010929D048FEF9FEF90939B0480939A043E
:1010F000DECEF092E408E092E308D9CE222309F490
:10110000D6CE8DE493E080D48BE193E059D368850B
:1011100070E080E090E04AE0D0D285E293E092D2A5
:101120008885813211F18C3F09F403C18111BFCE52
:101130004C814A3008F049E089E0F80111928A9523
:10114000E9F750E0BE01675F7F4FC8010E94471674
:101150008E818F3F09F4ABCE8093DF088F8180931F
:10116000DE0888E293E050D4A2CE4C814D3108F0E5
:101170004CE18CE1F80111928A95E9F750E0BE014B
:10118000675F7F4FC8010E94471680914409811113
:1011900036C0F80184819581A681B78180934D097D
:1011A00090934E09A0934F09B09350098085918583
:1011B000A285B3858093490990934A09A0934B096E
:1011C000B0934C096485758586859785609345093C
:1011D0007093460980934709909348090E94E6134B
:1011E00020E030E04AE754E40E944B136093DA08B1
:1011F0007093DB088093DC089093DD0858CE8091D3
:101200003B09811177C0F80184819581A681B7815E
:1012100080933C0990933D09A0933E09B0933F0908
:1012200080859185A285B38580934009909341097B
:10123000A0934209B093430984849584A684B7841B
:101240008092350990923609A0923709B0923809F8
:10125000828D938D64E670E00E94F21570933A09D6
:101260006093390982E393E0ABD260913C097091BD
:101270003D0980913E0990913F0996D280E493E028
:101280009FD26091400970914109809142099091EB
:1012900043098AD28FE493E093D26091350970912B
:1012A000360980913709909138097ED2C4016CD2F9
:1012B000609135097091360980913709909138090C
:1012C0000E94E61320E030E04AE754E40E944B130A
:1012D000609328097093290980932A0990932B0918
:1012E0002BD38DE593E06CD28091390990913A0926
:1012F0004BD2DDCD80912C09882309F4D8CDF8019B
:1013000084819581A681B7818093200990932109DA
:10131000A0932209B093230980859185A285B38586
:101320008093240990932509A0932609B093270957
:10133000BECD4C81433108F042E182E1F8011192C7
:101340008A95E9F750E0BE01675F7F4FC8010E94B0
:1013500047168AE693E034D2F8016481758186816C
:10136000978122D2A4CDC45DDE4F0FB6F894DEBFC4
:101370000FBECDBFDF91CF911F910F91FF90EF90E6
:10138000DF90CF90BF90AF909F908F907F906F90A5
:101390005F904F903F902F9008951F920F920FB63D
:1013A0000F9211240BB60F922F933F934F935F939D
:1013B0006F937F938F939F93AF93BF93EF93FF931D
:1013C00081E599E00E94CD01FF91EF91BF91AF912E
:1013D0009F918F917F916F915F914F913F912F914D
:1013E0000F900BBE0F900FBE0F901F9018951F927D
:1013F0000F920FB60F9211240BB60F922F933F93BB
:101400004F935F936F937F938F939F93AF93BF930C
:10141000EF93FF9381E599E00E946101FF91EF91C5
:10142000BF91AF919F918F917F916F915F914F91FC
:101430003F912F910F900BBE0F900FBE0F901F90FA
:1014400018951F920F920FB60F9211240BB60F92A0
:101450002F933F934F935F936F937F938F939F93BC
:10146000AF93BF93EF93FF938EEE99E00E94CD016F
:10147000FF91EF91BF91AF919F918F917F916F916C
:101480005F914F913F912F910F900BBE0F900FBE28
:101490000F901F9018951F920F920FB60F92112464
:1014A0000BB60F922F933F934F935F936F937F935E
:1014B0008F939F93AF93BF93EF93FF938EEE99E03B
:1014C0000E946101FF91EF91BF91AF919F918F9128
:1014D0007F916F915F914F913F912F910F900BBE34
:1014E0000F900FBE0F901F9018951F920F920FB67E
:1014F0000F9211242F933F938F939F93AF93BF939A
:101500008091130990911409A0911509B0911609C1
:101510003091120923E0230F2D3720F40196A11DED
:10152000B11D05C026E8230F0296A11DB11D209311
:1015300012098093130990931409A0931509B0938D
:1015400016098091170990911809A0911909B09175
:101550001A090196A11DB11D8093170990931809CE
:10156000A0931909B0931A09BF91AF919F918F91E0
:101570003F912F910F900FBE0F901F9018951F92C3
:101580000F920FB60F9211240BB60F922F933F9329
:101590004F935F936F937F938F939F93AF93BF937B
:1015A000EF93FF93E0911009F09111091995FF91C4
:1015B000EF91BF91AF919F918F917F916F915F91CB
:1015C0004F913F912F910F900BBE0F900FBE0F9038
:1015D0001F901895E091EE09F091EF090190F081CC
:1015E000E02D682F8EEE99E01994CF92DF92EF9262
:1015F000FF920F931F93CF93DF936C017A018B01BE
:10160000C0E0D0E0CE15DF0589F0D8016D918D01E5
:10161000D601ED91FC910190F081E02DC601199564
:10162000892B11F47E0102C02196ECCFC701DF9116
:10163000CF911F910F91FF90EF90DF90CF90089581
:101640000E944316009761F0FC0101900020E9F729
:101650003197AF01481B590BBC018EEE99E0C5CF05
:1016600080E090E00895FC01A089B18982E08C932C
:10167000A089B1891C92A485B5851C92A685B785E1
:1016800080E18C93108EA489B58986E08C93A28921
:10169000B3898C9180618C93A289B3898C91886085
:1016A0008C93A289B3898C9180688C930288F3898A
:1016B000E02D80818F7D808308958F929F92AF92DD
:1016C000BF920F931F93CF93DF93CDB7DEB7A19750
:1016D0000FB6F894DEBF0FBECDBF19A2423008F49A
:1016E0004AE08E010F5D1F4F842E912CA12CB12C4E
:1016F000A50194010E941916E62FB901CA010150F3
:101700001109EA3014F4E05D01C0E95CD801EC9302
:10171000232B242B252B61F7C80194DFA1960FB64C
:10172000F894DEBF0FBECDBFDF91CF911F910F9117
:10173000BF90AF909F908F900895CF92DF92EF92DD
:10174000FF92CF93DF9397FF17C06B017C018DE26F
:1017500041DFEC0166277727CB016C197D098E09E3
:101760009F094AE0AADF8C0F9D1FDF91CF91FF9068
:10177000EF90DF90CF9008954AE0DF91CF91FF90F6
:10178000EF90DF90CF9099CFCF93DF93BC01990F6B
:10179000880B990BD2DFEC0185E293E053DF8C0FCD
:1017A0009D1FDF91CF910895CF93DF93C6DFEC01AA
:1017B00085E293E047DF8C0F9D1FDF91CF91089565
:1017C00041CF4F925F926F927F928F929F92AF9292
:1017D000BF92CF92DF92EF92FF92CF936B017C0189
:1017E0009B01AC010E94D915882319F088E894E088
:1017F00019C046015701E894B7F82FEF3FEF4FE7C4
:101800005FE7C501B4010E94D91581110EC02FEF09
:101810003FEF4FE75FE7C501B40136D718162CF448
:101820008CE894E00FDF7C0174C02FEF3FEF4FE7AF
:101830005FE4C701B6010E94201518161CF480E968
:1018400094E0F0CF2FEF3FEF4FE75FECC701B60119
:101850001BD787FDF4CF20E030E0A901C701B60116
:1018600013D787FF08C08DE2B5DE5C01F7FAF0946C
:10187000F7F8F09402C0A12CB12CC8E060E070E051
:1018800080E09FE320E030E040E251E404D7C15023
:10189000C9F79B01AC01C701B60119D62B013C0168
:1018A00067D76B017C0190D79B01AC01C301B201EA
:1018B0000DD62B013C014AE0C701B601FEDE6C01EA
:1018C0008EE288DE8C0D9D1D7C01EA0CFB1CC9E0BC
:1018D000C150F9F020E030E040E251E4C301B20130
:1018E0000E942B152B013C0143D74B01A12CB12C9D
:1018F0004AE0C501B401E1DEE80EF91EC501B401FC
:1019000063D79B01AC01C301B201E0D52B013C01BF
:10191000DFCF85E293E096DE8E0D9F1DCF91FF9085
:10192000EF90DF90CF90BF90AF909F908F907F907F
:101930006F905F904F9008958F929F92AF92BF9259
:10194000CF92DF92EF92FF920F931F93CF93DF938B
:101950004B015C0108D76B01770FEE08FF08C70148
:10196000B601EBDE85EF93E02BDF20E030E0A9014C
:10197000C501B4010E94201587FD08C0C701B6014A
:1019800025D79B01AC01C501B40105C0C701B60153
:101990001DD7A50194019AD520E030E048EC52E42F
:1019A0000E942B15E5D6EB01FB0124E630E00AE0AE
:1019B00010E0CF01B8010E940616FB01C901309763
:1019C00029F0B8010E94F2159B01F3CF6AE070E0A4
:1019D0000E94F2156A30710519F484E994E0F0DE92
:1019E000BE0180E090E04AE068DE85E293E0DF91AE
:1019F000CF911F910F91FF90EF90DF90CF90BF900C
:101A0000AF909F908F901ECECF93DF931BDEEC01A3
:101A100085E293E017DE8C0F9D1FDF91CF91089533
:101A2000CF93DF93CDB7DEB7EF970FB6F894DEBF55
:101A30000FBECDBF789484B5826084BD84B58160CB
:101A400084BD85B5826085BD85B5816085BD809189
:101A50006E00816080936E00109281008091810001
:101A600082608093810080918100816080938100F9
:101A7000809180008160809380008091B1008460BB
:101A80008093B1008091B00081608093B00080911C
:101A90009100826080939100809191008160809399
:101AA0009100809190008160809390008091A100CE
:101AB00082608093A1008091A10081608093A10049
:101AC0008091A00081608093A000809121018260BC
:101AD0008093210180912101816080932101809177
:101AE000200181608093200180917A00846080933E
:101AF0007A0080917A00826080937A0080917A00E7
:101B0000816080937A0080917A00806880937A0067
:101B10001092C10081E599E0A6DD8EEE99E0A3DD8B
:101B20009E012D5E3F4F3EA32DA3AE014D5D5F4F45
:101B300058A74FA3C0908F0AD090900A8090910A26
:101B40009090920A2091930A3091940A3EA72DA773
:101B50004091950A5091960A5AA749A7E090970A92
:101B6000F090980A0E94AD02CE0101961C015C0122
:101B700000E010E02701612C712CA301920128558F
:101B8000394E4F4F5F4F2EAB3FAB48AF59AFA70118
:101B9000455051095BAF4AAFE12CF12C3C2D3095FB
:101BA0003DABA9A5BAA58C918C298C93F4018081B9
:101BB0002DA9822380838BE090E00197F1F780814B
:101BC0008C29808383E290E00197F1F78081822362
:101BD0008083A9A5BAA58C9182238C93EDA5FEA53F
:101BE00080818D2109F048C00E9488022EA93FA95A
:101BF00048AD59AD260F371F481F591F29AB3AABC7
:101C00004BAB5CABADA5BEA58C918D2161F40E9460
:101C1000880229A93AA94BA95CA9261737074807C2
:101C2000590780F729C00E9488029B01AC01240D4E
:101C3000351D461D571D29AB3AAB4BAB5CABADA573
:101C4000BEA58C918D2161F00E94880229A93AA934
:101C50004BA95CA9261737074807590780F70CC01E
:101C60000E9488022AAD3BADE9A9FAA92E1B3F0BC1
:101C7000C901860F971F02C080E090E069E370E021
:101C8000B1D7F701EE0FFF1F21E030E02C0F3D1F11
:101C9000E20FF31F738B628B672B69F4033011051E
:101CA00034F431E0E31AF1080F5F1F4F04C048EC31
:101CB00050E0538B428B5FEFE51AF50A89E0E81696
:101CC000F1040CF46ECF89E090E0FE01739620E001
:101CD00030E062817381419151916417750744F43A
:101CE000DF0112976D937C935183408321E030E0B4
:101CF000AFA1B8A5EA17FB0761F7019711F0232BF5
:101D000021F72B893C898BA19CA1820F931F97FD02
:101D1000019695958795F501819391935F012DA18A
:101D20003EA1E217F30709F037CF09811A81BE01FE
:101D30006F5E7F4F20E030E081E090E0D1014D9177
:101D40005D911D01ED91FC914E175F0739F40196ED
:101D5000281739072CF48A019C0102C081E090E029
:101D60002616370659F7C8010FDDC8010E945C0628
:101D7000C80117D88DE793E023DDB80180E090E03B
:101D80004AE09BDC85E293E05DDC0E94AD024AE024
:101D900094DC85E293E056DC60D88BE893E034DE97
:101DA00083EA93E00DDD60914D0970914E098091B9
:101DB0004F0990915009F8DC88EB93E001DD6091C8
:101DC000490970914A0980914B0990914C09ECDCCA
:101DD0008DEC93E0F5DC60914509709146098091A6
:101DE000470990914809E0DC0536110518F010927A
:101DF000440906C081E08093440982EE93E004DE4A
:101E000080914409882309F4CBC20E9497030E9461
:101E10003B050E9406050E94A0040E9438040E940F
:101E2000D00380913B09811160C117D820914009EE
:101E300030914109409142095091430960913C0918
:101E400070913D0980913E0990913F090E94B9022D
:101E5000E8CF0091390910913A0960913C097091DD
:101E60003D0980913E0990913F09B0D420E836E9C0
:101E700048E15BE410D46B017C01609140097091F2
:101E800041098091420990914309A0D420E836E9A4
:101E900048E15BE400D46DA77EA78FA798AB043020
:101EA000B1E01B070CF027C10C591F4F4801012E50
:101EB000000CAA08BB0880921B0990921C09A092F2
:101EC0001D09B0921E0987EF93E07ADCC8015CDC43
:101ED00025E33AEF4EE85CE3C701B601BCD56B01E0
:101EE0007C01C501B40172D425E33AEF4EE85CE30E
:101EF000B2D52B013C01C701B60110D64B015C01E4
:101F0000C701B601C5D369A77AA78BA79CA7C30150
:101F1000B201BED36B017C0128E73BEA42E555E301
:101F200069A57AA58BA59CA596D5A701960193D501
:101F30009B01AC01C501B401CAD22DD36B017C0158
:101F4000EDD59B01AC01C301B2012CAF3DAF4EAF4B
:101F50005FAFE4D52B013C012CAD3DAD4EAD5FAD87
:101F6000C501B40178D59B01AC0160E070E080E868
:101F70009FE3ACD24B015C0128E73BEA42E555E325
:101F8000C301B20168D529A53AA54BA55CA563D5C7
:101F9000A501940126D34B015C0120E030E044E32D
:101FA00053E4C701B60157D52BED3FE049E450E4B7
:101FB00072D36B017C0125E33AEF4EE85CE36DA53B
:101FC0007EA58FA598A947D5A501940180D220E0D0
:101FD00030E044E353E43FD52BED3FE049E450E4E7
:101FE0005AD34B015C018DE094E0EADBC701B601F6
:101FF000E8DB8FE194E0E4DBC501B401E2DB20E83B
:1020000036E948E15BE4C701B60125D5ACD360935E
:102010002D0970932E0980932F099093300920E8A1
:1020200036E948E15BE4C501B40115D59CD3609362
:10203000310970933209809333099093340982E314
:1020400094E0BEDB60912D0970912E0980912F09DB
:1020500090913009A9DB81E494E0B2DB6091310911
:102060007091320980913309909134099DDB8AEA9D
:1020700093E0A6DB60913C0970913D0980913E0997
:1020800090913F0991DB8FEB93E09ADB60914009DF
:1020900070914109809142099091430985DB84ED5B
:1020A00093E08EDB60913509709136098091370994
:1020B0009091380979DB81E594E082DB80913909E0
:1020C00090913A0961DB20913109309132094091B8
:1020D00033095091340960912D0970912E09809136
:1020E0002F09909130090E94B90280912C09882310
:1020F00009F4AFCE03C004501140D8CE81E08093E4
:102100002C09609128097091290980912A099091E0
:102110002B0929D37B018C0120913109309132099F
:10212000409133095091340960912D0970912E0925
:1021300080912F09909130090E94BE058EE594E0B0
:1021400081DA60912D098EEE99E00E94EE01609196
:1021500031098EEE99E00E94EE01609135098EEE14
:1021600099E00E94EE0111E080911F098111CAC01F
:102170000E942D0760912D0970912E0980912F09E1
:102180009091300923D320E836E948E15BE483D21B
:102190002BED3FE049E450E45ED420E030E044E33E
:1021A00053E479D22B013C016091200970912109FF
:1021B000809122099091230909D320E836E948E16A
:1021C0005BE469D22BED3FE049E450E444D420E0E5
:1021D00030E044E353E45FD24B015C01A301920180
:1021E00075D120E030E040E05FE335D497D469A7B3
:1021F0007AA78BA79CA760912409709125098091EB
:10220000260990912709E2D220E836E948E15BE40B
:1022100042D22BED3FE049E450E41DD420E030E011
:1022200044E353E438D26B017C0160913109709131
:1022300032098091330990913409C8D220E836E9F7
:1022400048E15BE428D22BED3FE049E450E403D4BD
:1022500020E030E044E353E41ED29B01AC01C7010F
:10226000B60134D120E030E040E05FE3F4D356D44F
:102270006B017C01C301B2010BD22B013C01C501F2
:10228000B40106D26DA77EA78FA798AB29A53AA562
:102290004BA55CA5CA01B901DED34B015C012DA59C
:1022A0003EA54FA558A9C301B201D5D3A7019601F8
:1022B000D2D3A7019601CFD39B01AC01C501B401D4
:1022C00006D136D468D120E038E147E456E4C3D3E0
:1022D00020E030E04AE754E4BED36B017C018EE697
:1022E00094E06EDAC701B60127DB20E030E040E081
:1022F0005FE3C701B601C8D1880F880B81238093A3
:102300001F0932CF0E946C051092440910922C09CB
:1023100010923B0910921F0910923C0910923D093E
:1023200010923E0910923F09109240091092410903
:102330001092420910924309109235091092360901
:10234000109237091092380910923A0910923909FF
:1023500010922D0910922E0910922F091092300917
:1023600010923109109232091092330910923409F7
:1023700010921B0910921C0910921D0910921E093F
:10238000109220091092210910922209109223091B
:1023900010922409109225091092260910922709FB
:1023A0000E945502C7CBE1E5F9E01382128248EEA4
:1023B00053E060E070E0448355836683778384E074
:1023C00093E0918380832DEC30E0358724872CECDB
:1023D00030E03787268728EC30E0318B208B29ECE2
:1023E00030E0338B228B2AEC30E0358B248B2EECC3
:1023F00030E0378B268B118E128E138E148EEEEEFC
:10240000F9E0138212824483558366837783918334
:10241000808385EC90E09587848784EC90E09787B3
:10242000868780EC90E0918B808B81EC90E0938BA1
:10243000828B82EC90E0958B848B86EC90E0978B7E
:10244000868B118E128E138E148EE3E2F2E0E491ED
:10245000ABE8BAE01496EC931497E2E2F2E0E49170
:102460001596EC9315978DED91E0FC012491E22FE8
:10247000F0E0EE0FFF1FEA54FE4F259134911796BE
:102480003C932E931697ECEDF1E0E491F0E0EE0F23
:10249000FF1FE456FE4F2591349119963C932E93DD
:1024A0001897FC018491E82FF0E0EE0FFF1FEE5724
:1024B000FE4F859194911B969C938E931A9781EC75
:1024C0009CE21D969C938E931C9708955058BB27B1
:1024D000AA270ED06AC233D230F038D220F031F4BD
:1024E0009F3F11F41EF4F2C10EF4E095E7FBE8C142
:1024F000E92F7DD280F3BA17620773078407950727
:1025000018F071F49EF595C20EF4E0950B2EBA2FDB
:10251000A02D0B01B90190010C01CA01A0011124E9
:10252000FF27591B99F0593F50F4503E68F11A1695
:10253000F040A22F232F342F4427585FF3CF469526
:1025400037952795A795F0405395C9F77EF41F1648
:10255000BA0B620B730B840BBAF09150A1F0FF0F12
:10256000BB1F661F771F881FC2F70EC0BA0F621FFE
:10257000731F841F48F4879577956795B795F795EE
:102580009E3F08F0B3CF9395880F08F09927EE0F80
:102590009795879508959F939F77EEE389379E07D8
:1025A00020F4EAEFF0E0BAD109C04BD19058A2EA8A
:1025B0002AED3FE049EC5FE39BDFF7D10F9007FC8A
:1025C00090580895BCD158F080E891E009F49EEF4E
:1025D000BDD128F040E851E059F45EEF09C076C162
:1025E00028C2E92FE07803D268F3092E052AC1F347
:1025F000261737074807590738F00E2E07F8E02549
:1026000069F0E025E0640AC0EF6307F8009407FA78
:10261000DB01B9019D01DC01CA01AD01EF934AD094
:10262000C4D10AD05F91552331F02BED3FE049E44E
:1026300050FD49EC4CCF0895DF93DD27B92FBF77CC
:1026400040E85FE31616170648075B0710F4D92F1A
:10265000FBD19F938F937F936F93A8D2EEE0F1E02D
:1026600038D1A3D12F913F914F915F9100D2DD23BB
:1026700049F09058A2EA2AED3FE049EC5FE3D078B8
:102680005D2736DFDF9191C1F7D008F481E008952E
:1026900065D1E3959BC10CD088C158D140F04FD192
:1026A00030F021F45F3F19F00BC15111C3C10EC1CD
:1026B0009ED198F39923C9F35523B1F3951B550B7C
:1026C000BB27AA2762177307840738F09F5F5F4F05
:1026D000220F331F441FAA1FA9F333D00E2E3AF046
:1026E000E0E830D091505040E695001CCAF729D060
:1026F000FE2F27D0660F771F881FBB1F26173707AF
:102700004807AB07B0E809F0BB0B802DBF01FF27DE
:1027100093585F4F2AF09E3F510568F0D1C08AC19F
:102720005F3FECF3983EDCF3869577956795B79518
:10273000F7959F5FC9F7880F911D9695879597F933
:102740000895E1E0660F771F881FBB1F62177307AC
:102750008407BA0720F0621B730B840BBA0BEE1FC1
:1027600088F7E095089504D06894B11163C1089585
:1027700046D188F09F5790F0B92F9927B751A0F014
:10278000D1F0660F771F881F991F1AF0BA95C9F705
:1027900012C0B13081F04DD1B1E008954AC1672F28
:1027A000782F8827B85F39F0B93FCCF386957795B5
:1027B0006795B395D9F73EF490958095709561959E
:1027C0007F4F8F4F9F4F0895E89409C097FB3EF4C9
:1027D00090958095709561957F4F8F4F9F4F99236E
:1027E000A9F0F92F96E9BB279395F69587957795EC
:1027F0006795B795F111F8CFFAF4BB0F11F460FFAC
:102800001BC06F5F7F4F8F4F9F4F16C0882311F003
:1028100096E911C0772321F09EE8872F762F05C017
:10282000662371F096E8862F70E060E02AF09A95B2
:10283000660F771F881FDAF7880F9695879597F9A7
:102840000895DF93CF931F930F938B01EC01EBE37C
:10285000F1E03FD0AAD09801AE018B01EC0160E01D
:1028600070E080E89FE332DE63D19801AE010F9102
:102870001F91CF91DF91FBC0990F0008550FAA0B54
:10288000E0E8FEEF16161706E807F907C0F0121683
:102890001306E407F50798F0621B730B840B950B86
:1028A00039F40A2661F0232B242B252B21F40895DB
:1028B0000A2609F4A140A6958FEF811D811D089578
:1028C00097F99F6780E870E060E008959FEF80ECE3
:1028D0000895DF93CF931F930F93FF92EF92DF92B0
:1028E0007B018C01689405C0DA2EEF01C0D0FE0197
:1028F000E894A5912591359145915591AEF3EF015D
:10290000F7DDFE019701A801DA9479F7DF90EF90E7
:10291000FF900F911F91CF91DF9108959F938F9317
:102920007F936F93FF93EF939B01AC0194D0EF9152
:10293000FF91CFDF2F913F914F915F918CC0002489
:102940000A941616170618060906089500240A9414
:1029500012161306140605060895B8CF50D0E8F3F2
:10296000E894E0E0BB279F57F0F02AED3FE049EC08
:1029700006C0EE0FBB0F661F771F881F28F0B23A04
:1029800062077307840728F0B25A620B730B840B3B
:10299000E3959A9572F7803830F49A95BB0F661FCD
:1029A000771F881FD2F790480AC1092E0394000CA4
:1029B00011F4882352F0BB0F40F4BF2B11F460FFD9
:1029C00004C06F5F7F4F8F4F9F4F0895EF93E0FFDD
:1029D00006C0A2EA2AED3FE049EC5FEB89DDE5DFC6
:1029E0000F90039401FC9058E3E6F1E097CF57FD78
:1029F0009058440F551F59F05F3F71F04795880F6D
:102A000097FB991F61F09F3F79F087950895121603
:102A100013061406551FF2CF4695F1DF08C01616AF
:102A200017061806991FF1CF869571056105089460
:102A30000895E894BB2766277727CB0197F9089577
:102A40001BDF08F48FEF08959B01AC0160E070E09C
:102A500080E89FE320CE0BD0A8CF71DF28F076DF8F
:102A600018F0952309F02CCF31CF1124E3CFBFDF2D
:102A7000A0F3959FD1F3950F50E0551F629FF00191
:102A8000729FBB27F00DB11D639FAA27F00DB11DEA
:102A9000AA1F649F6627B00DA11D661F829F222773
:102AA000B00DA11D621F739FB00DA11D621F839FFA
:102AB000A00D611D221F749F3327A00D611D231FD0
:102AC000849F600D211D822F762F6A2F11249F571E
:102AD00050408AF0E1F088234AF0EE0FFF1FBB1F41
:102AE000661F771F881F91505040A9F79E3F5105E0
:102AF00070F0E6CE9FCF5F3FECF3983EDCF3869517
:102B000077956795B795F795E7959F5FC1F7FE2B8A
:102B1000880F911D9695879597F908959F931EDFCD
:102B20000F9007FCEE5F52CF11F40EF4CFCE45C0EC
:102B300066DFD0F39923D9F3CEF39F57550B87FF68
:102B40004AD00024A0E640EA900180585695979517
:102B500028F4805C660F771F881F20F02617370740
:102B6000480730F4621B730B840B202931294A2B50
:102B7000A69517940794202531254A2758F7660F04
:102B8000771F881F20F026173707480730F4620B9D
:102B9000730B840B200D311D411DA09581F7B901E8
:102BA000842F9158880F9695879508959B01AC01C5
:102BB00052CF62DE880B990B08959F3F31F0915000
:102BC00020F4879577956795B795880F911D969511
:102BD000879597F9089591505040660F771F881F89
:102BE000D2F70895AA1BBB1B51E107C0AA1FBB1F48
:102BF000A617B70710F0A61BB70B881F991F5A9589
:102C0000A9F780959095BC01CD01089597FB072EFB
:102C100016F4009406D077FD08D0E4DF07FC05D059
:102C20003EF4909581959F4F0895709561957F4FE3
:102C30000895A1E21A2EAA1BBB1BFD010DC0AA1FFD
:102C4000BB1FEE1FFF1FA217B307E407F50720F015
:102C5000A21BB30BE40BF50B661F771F881F991F90
:102C60001A9469F760957095809590959B01AC01D9
:102C7000BD01CF010895EE0FFF1F881F8BBF079086
:102C8000F691E02D199481E090E0F89409C0FB01E1
:102C9000DC0102C001900D9241505040D8F70895D8
:042CA000F894FFCFD6
:102CA400327C8900EDD968770000005900000000EB
:102CB40000000000D69FDCA81817AA90437327F6DB
:102CC400B968EDF4DED409FEE61C1C84DDE80B993A
:102CD40029274EC400000F030000000000A7B777A7
:102CE400BF76941500F37C000026149E988F000094
:102CF400006A31168F8C059600E7B73F362F000027
:102D040000000000AF669ED0385D8A6C20B9542262
:102D1400AE7CED044C80387486EDCBFA57CBDC19CD
:102D2400E22E1DDF5506E5CB01C36DA8B52F488300
:102D34007F00679AB2C80000000000000000000095
:102D4400000000000000000000000000000000007F
:102D5400000000000000000000000000000000006F
:102D6400000000000000000000000000000000005F
:102D7400000000000000000000000000000000004F
:102D8400000000000000A3699723960000000000E3
:102D9400005A68555F82B85108CC31AA2C532E00D2
:102DA40000000000EE01F50A7E013402AF018D013E
:102DB400A10144495354414E4345004D6573736129
:102DC40067653A20000D0A00686561727462656186
:102DD40074004D61764C617469747564653A2000C1
:102DE4004D61764C6F6E6769747564653A20004D69
:102DF4006176416C7469747564653A20004D61763E
:102E040048656164696E673A200044697374616E51
:102E1400636520726561642069733A2000446973B4
:102E240074616E63652069733A20004E6F204F62AF
:102E3400737461636C652064657465637465642E82
:102E44002E2E004C6F69746572204C617469747520
:102E540064652069733A20004C6F69746572204C74
:102E64006F6E67697475646520697320004C6F69BF
:102E740074657220416C7469747564652069733A71
:102E840020004F62737461636C65204465746563EC
:102E94007465642E2E2E0041646A75737465642013
:102EA40062656172696E672069733A20004E6577C6
:102EB400204C617469747564652069733A20004E0E
:102EC4006577204C6F6E6769747564652069733A21
:102ED40020006C61745461726765742069733A20D0
:102EE400006C6F6E675461726765742069733A2071
:102EF4000048656164696E672069733A2000526511
:102F0400706F736974696F6E20746F3A200044693E
:102F14007374616E63652066726F6D2054617267AD
:102F240065742069733A20006E616E00696E6600F4
:062F34006F76660030001C
:00000001FF
