:100000002EC100005DC100005BC1000059C10000AD
:1000100057C1000055C1000053C1000051C100008C
:100020004FC100004DC100004BC1000049C100009C
:1000300047C1000045C1000043C1000041C10000AC
:100040003FC100003DC100003BC1000039C10000BC
:1000500037C1000035C1000033C1000070C400008A
:100060002FC100001EC40000F3C3000029C100001E
:1000700027C1000025C1000023C1000021C10000EC
:100080001FC100001DC100001BC1000019C10000FC
:10009000B6C300008BC3000013C1000011C10000F3
:1000A0000FC100000DC100000BC1000009C100001C
:1000B00007C1000005C1000003C1000001C100002C
:1000C000FFC00000FDC00000FBC00000F9C0000040
:1000D000F7C00000F5C00000F3C00000F1C0000050
:1000E000EFC00000010A010A1A0A340A270A410A6D
:1000F0004C0A600A750A9C0A9C0A036EDB363D9A1C
:100100009999993DABAAAA2A3E000000803F084A6F
:10011000D73B3BCE016E84BCBFFDC12F3D6C74311B
:100120009ABD56833DDA3D00C77F11BED9E4BB4C72
:100130003E916BAAAABE000000803F072C7AA5BAA8
:100140006CC590DA3B9365FC8BBC53F810FD3C56B4
:1001500092834DBD879D3AB63DCBC9BF5BBE73DA76
:100160000FC93F05A84CCDB2D44EB93836A9020C00
:1001700050B9918688083CA6AAAA2ABE0000008031
:100180003F0000002200250028002B002E00310037
:10019000340002010000050108010B0100002100EC
:1001A000240027002A002D00300033000101000048
:1001B000040107010A010000200023002600290095
:1001C0002C002F003200000100000301060109018C
:1001D00005050505070508080808020202020A0AC3
:1001E00008080404040401010101010101010303E1
:1001F000030303030303040707070C0C0C0C0C0C8C
:100200000C0C0202020206060606060606060B0B88
:100210000B0B0B0B0B0B01021020200808102040C9
:1002200010204080020102010804020101020408BA
:100230001020408080402010080402018004020148
:100240008040201008040201080402010102040891
:10025000102040800102040810204080EA1411247C
:100260001FBECFEFD1E2DEBFCDBF00E00CBF14E078
:10027000A0E0B2E0ECE3F2E300E00BBF02C00790C5
:100280000D92A036B107D9F72AE0A0E6B4E001C08C
:100290001D92A334B207E1F711E0CFE2D1E000E014
:1002A00006C021970109802FFE010E940719CE3256
:1002B000D10780E00807A9F70E9405110C941C19CA
:1002C0009FCEFC01A089B1898C91A689B78982FD56
:1002D0000FC09C91818D8F5F8F73228D821749F0A3
:1002E000218DDF01A20FB11D5D969C93818F089532
:1002F0008C910895089580E090E00895FC01538D5D
:10030000448D252F30E0842F90E0821B930B5417EF
:1003100010F0CF96089501970895FC01918D828D7C
:10032000981761F0828DDF01A80FB11D5D968C9149
:10033000928D9F5F9F73928F90E008958FEF9FEF54
:100340000895FC01918D828D981731F0828DE80F10
:10035000F11D858D90E008958FEF9FEF0895FC01CA
:10036000918D228D892F90E0805C9F4F821B910997
:100370008F739927089589E099E0F1DF21E0892BB7
:1003800009F420E0822F089586EA99E0E8DF21E071
:10039000892B09F420E0822F0895FC01848DDF0170
:1003A000A80FB11DA35ABF4F2C91848D90E00196E8
:1003B0008F739927848FA689B7892C93A089B189D7
:1003C0008C9180648C93938D848D981306C00288E1
:1003D000F389E02D80818F7D80830895EF92FF92D5
:1003E0000F931F93CF93DF93EC0181E0888F9B8D58
:1003F0008C8D981305C0E889F989808185FD23C01B
:10040000F62E0B8D10E00F5F1F4F0F731127E02E9C
:100410008C8DE8120BC00FB607FCFACFE889F9897A
:10042000808185FFF5CFCE01B8DFF2CF8B8DFE0145
:10043000E80FF11DE35AFF4FF0820B8FEA89FB8929
:100440008081806207C0EE89FF896083E889F9892D
:1004500080818064808381E090E0DF91CF911F9163
:100460000F91FF90EF900895CF93DF93EC01888D6B
:100470008823C1F0EA89FB89808185FD05C0A889B0
:10048000B9898C9186FD0EC00FB607FCF5CF80812F
:1004900085FFF2CFA889B9898C9185FFEDCFCE0178
:1004A0007CDFE8CFDF91CF91089580E090E0892B49
:1004B00019F06ADF811120C080E090E0892B19F0EB
:1004C0005ADF81111CC080E090E0892B41F080E070
:1004D00090E0892B21F00E940000811113C080E080
:1004E00090E0892BA1F080E090E0892B81F00E94C0
:1004F000000081110AC008950E940000DDCF0E9413
:100500000000E1CF0E940000EACF0C9400000895A3
:100510008F929F92AF92BF92CF92DF92EF92FF9213
:100520000F931F93CF93DF93CDB7DEB72A970FB604
:10053000F894DEBF0FBECDBF0E945F0E8E010F5F2D
:100540001F4F8AE0F80111928A95E9F778016E0150
:10055000FBE0CF0ED11C9AE3892E912CA12CB12C5B
:100560000E94360E6093A9047093AA048093AB0492
:100570009093AC04A50194010E94EB18F70121931C
:1005800031937F010E94FF0DEC14FD0449F7DE0159
:10059000139621E030E04D915C911197C9010197CC
:1005A000FD01729162914617570724F473836283A9
:1005B0000197B8F7FC013196EE0FFF1FE00FF11F16
:1005C000518340832F5F3F4F12962530310519F735
:1005D0008D819E812A960FB6F894DEBF0FBECDBFE7
:1005E000DF91CF911F910F91FF90EF90DF90CF900F
:1005F000BF90AF909F908F9008958F929F92AF92EF
:10060000BF92CF92DF92EF92FF92CF93DF9380DF82
:10061000EC01883C91050CF090C048D6BE01DD0F7E
:10062000880B990B0E94BD166B017C019B01AC01EC
:100630006FE872EC85E79DE334D34B015C01A701C1
:1006400096016FE872EC85E79DE32BD36B017C018B
:100650008091C3049091C4048130910589F520E014
:1006600030E048E453E4C501B4010E941B1687FF43
:1006700012C020E030E048E453E4C701B6010E9414
:100680001B1687FF08C04BE153E0C501B40179D4C4
:1006900046E253E033C04BE153E0C501B40171D4ED
:1006A00046E253E0C701B6016CD4DF91CF91FF90D1
:1006B000EF90DF90CF90BF90AF909F908F90A4C5A8
:1006C000039709F03AC020E030E048E453E4C50164
:1006D000B4010E941B1687FF1BC020E030E048E4F5
:1006E00053E4C701B6010E941B1687FF11C041E306
:1006F00053E0C501B40145D44CE353E0C701B60152
:1007000040D482E090E09093C4048093C30415C069
:1007100041E353E0C501B40134D44CE353E0C701D5
:10072000B6012FD4DF91CF91FF90EF90DF90CF9063
:10073000BF90AF909F908F90F5C4DF91CF91FF90C5
:10074000EF90DF90CF90BF90AF909F908F900895E3
:10075000CF93DF93CDB7DEB7C751D2400FB6F89431
:10076000DEBF0FBECDBF20E030E048E452E467E4D6
:1007700073E0CE0101960E94480CBE016F5F7F4F6F
:10078000CE018F5E9E4F59D3AC01BE016F5E7E4F8E
:1007900089E099E00E941B0CC95EDD4F0FB6F8940A
:1007A000DEBF0FBECDBFDF91CF9108951F920F9294
:1007B0000FB60F9211240BB60F922F933F934F93C6
:1007C0005F936F937F938F939F93AF93BF93EF93B9
:1007D000FF9389E099E0E1DDFF91EF91BF91AF9147
:1007E0009F918F917F916F915F914F913F912F9149
:1007F0000F900BBE0F900FBE0F901F9018951F9279
:100800000F920FB60F9211240BB60F922F933F93B6
:100810004F935F936F937F938F939F93AF93BF9308
:10082000EF93FF9389E099E04CDDFF91EF91BF9149
:10083000AF919F918F917F916F915F914F913F9178
:100840002F910F900BBE0F900FBE0F901F90189519
:100850001F920F920FB60F9211240BB60F922F9387
:100860003F934F935F936F937F938F939F93AF9338
:10087000BF93EF93FF9386EA99E08FDDFF91EF91AD
:10088000BF91AF919F918F917F916F915F914F91A8
:100890003F912F910F900BBE0F900FBE0F901F90A6
:1008A00018951F920F920FB60F9211240BB60F924C
:1008B0002F933F934F935F936F937F938F939F9368
:1008C000AF93BF93EF93FF9386EA99E0FADCFF9131
:1008D000EF91BF91AF919F918F917F916F915F91B8
:1008E0004F913F912F910F900BBE0F900FBE0F9025
:1008F0001F9018953FB7F8948091AE049091AF0483
:10090000A091B004B091B10426B5A89B05C02F3FBB
:1009100019F00196A11DB11D3FBFBA2FA92F982F25
:100920008827820F911DA11DB11DBC01CD0142E0A0
:10093000660F771F881F991F4A95D1F708951F9258
:100940000F920FB60F9211242F933F938F939F9383
:10095000AF93BF938091900490919104A0919204E1
:10096000B09193043091AD0423E0230F2D3720F490
:100970000196A11DB11D05C026E8230F0296A11DF9
:10098000B11D2093AD048093900490939104A093A3
:100990009204B09393048091AE049091AF04A0911F
:1009A000B004B091B1040196A11DB11D8093AE04B5
:1009B0009093AF04A093B004B093B104BF91AF91F2
:1009C0009F918F913F912F910F900FBE0F901F908D
:1009D00018958F929F92AF92BF92CF92DF92EF9233
:1009E000FF920F931F93CF93DF931F921F92CDB768
:1009F000DEB77C01122F8EEFD70112968C931297DF
:100A000013962C93139715966C93159716964C93F3
:100A100016979091670414969C939F5F9093670438
:100A20008FEF9FEF9A8389835701B3E0AB0EB11C20
:100A30006701E8E0CE0ED11CAC14BD0441F0BE014C
:100A40006F5F7F4FD5018D915D0169D4F5CF8981AD
:100A50009A81F70191838083560183814601880E34
:100A6000911CB701A814B90429F0D5018D915D013D
:100A700056D4F7CF802F53D4F7018381F601E80FC6
:100A8000F11DD7018C91808313968C911397F601F9
:100A9000E80FF11D11968C918183812F90E00896CB
:100AA0000F900F90DF91CF911F910F91FF90EF90DA
:100AB000DF90CF90BF90AF909F908F9008950F934D
:100AC000CF93DF93CDB7DEB7C751D2400FB6F894BE
:100AD000DEBF0FBECDBF19861A861B861C861D86FB
:100AE0001E861F86188A198A1A8A1B8A1C8A1D8AE2
:100AF0001E8A1F8A188E198E1A8E1B8E1C8E1D8EB2
:100B00001E8E1F8E18A219A21AA21BA21CA28AE96D
:100B100091E09EA38DA381E08FA318A619A68CE473
:100B2000888708E921E242E364E6CE01019651DFBD
:100B3000BE016F5F7F4FCE018F5E9E4F7ED1AC01B5
:100B4000BE016F5E7E4F89E099E075D6C95EDD4FCC
:100B50000FB6F894DEBF0FBECDBFDF91CF910F91DE
:100B600008952F923F924F925F926F927F928F9251
:100B70009F92AF92BF92CF92DF92EF92FF920F932C
:100B80001F93CF93DF93CDB7DEB766970FB6F89478
:100B9000DEBF0FBECDBF0E945F0ECE0101966C017D
:100BA00084E1F60111928A95E9F786017E01F5E16B
:100BB000EF0EF11C0E94360E6093A9047093AA04F4
:100BC0008093AB049093AC040E94BD1620E030E00B
:100BD00048E652E40E942216F801619371938193D2
:100BE00091938F010E94FF0D0E151F0519F71E012D
:100BF000F5E02F0E311CE12CF12CF1018080918069
:100C0000A280B38087013E8A2D8AED89FE89729089
:100C1000629052904290FE8BED8BA3019201C50130
:100C2000B4010E941B1687FF09C0ED89FE8944822A
:100C30005582668277820150110938F7F8013196A2
:100C4000EE0FFF1FEE0FFF1FEC0DFD1D8082918246
:100C5000A282B382FFEFEF1AFF0A84E0280E311C54
:100C600094E0E916F10449F669857A858B859C85BF
:100C700066960FB6F894DEBF0FBECDBFDF91CF9161
:100C80001F910F91FF90EF90DF90CF90BF90AF90AA
:100C90009F908F907F906F905F904F903F902F909C
:100CA00008952F923F924F925F926F927F928F9210
:100CB0009F92AF92BF92CF92DF92EF92FF920F93EB
:100CC0001F93CF93DF9300D01F92CDB7DEB72B01D8
:100CD0003C0189011A01C0900402D0900502E09005
:100CE0000602F0900702209100023091010240912B
:100CF000020250910302C701B6010E943E159B01FA
:100D0000AC01C701B6010E942216A30192010E9404
:100D1000F71718160CF077C024DF69837A838B836A
:100D20009C838090040290900502A0900602B090EF
:100D3000070220910002309101024091020250917D
:100D40000302C501B4010E943E159B01AC01C5011F
:100D5000B4010E9422166B017C0169817A818B812A
:100D60009C810E948A160E94BD169801A1010E94D2
:100D70003D159B01AC01C701B6010E9402189B0101
:100D8000AC01B801C1010E943E158B011C01A301F9
:100D90009201C701B6010E941B1687FF1BC080E0AD
:100DA00090E0A0E0B0E48093040290930502A09349
:100DB0000602B093070280E090E0A0E8B0E48093E0
:100DC000000290930102A0930202B0930302322D1D
:100DD000232D19C0A701960160E070E080E89FE331
:100DE0000E943D15A50194010E940218609304021F
:100DF000709305028093060290930702A30192016B
:100E0000C701B60184CFB801832F922F0F900F90A6
:100E10000F900F90DF91CF911F910F91FF90EF9066
:100E2000DF90CF90BF90AF909F908F907F906F900A
:100E30005F904F903F902F9008950F931F93CF9303
:100E4000DF938C01EB014B8150E04A5F5F4F6E5F97
:100E50007F4F0E9413199B81E92FF0E03696E00F37
:100E6000F11F88818083898181838B8190E008963E
:100E7000DF91CF911F910F910895CF93DF93CDB75D
:100E8000DEB7C751D2400FB6F894DEBF0FBECDBF5C
:100E900020E030E040E85FE365ED73E0CE010196CD
:100EA000F7D4BE016F5F7F4FCE018F5E9E4FC5DFCF
:100EB000AC01BE016F5E7E4F89E099E0BCD4C95E93
:100EC000DD4F0FB6F894DEBF0FBECDBFDF91CF91DF
:100ED0000895CF93DF93CDB7DEB7C751D2400FB699
:100EE000F894DEBF0FBECDBF20E030E048EC52E406
:100EF00065EE73E0CE010196CBD4BE016F5F7F4FEC
:100F0000CE018F5E9E4F99DFAC01BE016F5E7E4FBA
:100F100089E099E090D4C95EDD4F0FB6F894DEBF4A
:100F20000FBECDBFDF91CF910895CF93DF93CDB7A3
:100F3000DEB7C751D2400FB6F894DEBF0FBECDBFAB
:100F400020E030E040E251E462EF73E0CE01019630
:100F50009FD4BE016F5F7F4FCE018F5E9E4F6DDFCE
:100F6000AC01BE016F5E7E4F89E099E064D4C95E3A
:100F7000DD4F0FB6F894DEBF0FBECDBFDF91CF912E
:100F800008950F931F93CF93DF93CDB7DEB7C7516B
:100F9000D2400FB6F894DEBF0FBECDBFEFB7F894C6
:100FA0000091900410919104209192043091930447
:100FB000EFBFCF5EDE4F088319832A833B83C15185
:100FC000D140CB5EDE4F688379838A839B83C55192
:100FD000D1408AE04115510551F4E1E1F1E0EC0F17
:100FE000FD1F3896DF011D928A95E9F70AC0FA01C4
:100FF000A1E1B1E0AC0FBD1F189601900D928A954A
:10100000E1F782E1FE01EF5EFE4FDE0119960190ED
:101010000D928A95E1F78BEF88870AEA22E140E09A
:1010200061E0CE010196D5DCBE016F5F7F4FCE013E
:101030008F5E9E4F02DFAC01BE016F5E7E4F89E086
:1010400099E0F9D3C95EDD4F0FB6F894DEBF0FBE4D
:10105000CDBFDF91CF911F910F9108950F93CF9343
:10106000DF93CDB7DEB7C751D2400FB6F894DEBFDD
:101070000FBECDBF9A87898781E08B871C868CE263
:1010800088870DED24E042E364E6CE010196A1DC01
:10109000BE016F5F7F4FCE018F5E9E4FCEDEAC01F3
:1010A000BE016F5E7E4F89E099E0C5D3C95EDD4F1A
:1010B0000FB6F894DEBF0FBECDBFDF91CF910F9179
:1010C00008950F93CF93DF93CDB7DEB7C751D240CA
:1010D0000FB6F894DEBF0FBECDBF81E089871A86B8
:1010E0008DE2888708EE22E042E364E6CE010196B5
:1010F00070DCBE016F5F7F4FCE018F5E9E4F9DDE25
:10110000AC01BE016F5E7E4F89E099E094D3C95E69
:10111000DD4F0FB6F894DEBF0FBECDBFDF91CF918C
:101120000F9108950F93CF93DF93CDB7DEB7C751DB
:10113000D2400FB6F894DEBF0FBECDBF83E090E083
:10114000A0E0B0E089879A87AB87BC8781E08D8774
:101150008E878BE0888709E526E042E364E6CE01CE
:10116000019637DCBE016F5F7F4FCE018F5E9E4FD1
:1011700064DEAC01BE016F5E7E4F89E099E05BD317
:10118000C95EDD4F0FB6F894DEBF0FBECDBFDF9155
:10119000CF910F9108950F93CF93DF93CDB7DEB723
:1011A000C751D2400FB6F894DEBF0FBECDBF85E069
:1011B00090E0A0E0B0E089879A87AB87BC8781E0A8
:1011C0008D878E878BE0888709E526E042E364E619
:1011D000CE010196FEDBBE016F5F7F4FCE018F5EB9
:1011E0009E4F2BDEAC01BE016F5E7E4F89E099E021
:1011F00022D3C95EDD4F0FB6F894DEBF0FBECDBF60
:10120000DF91CF910F9108950F93CF93DF93CDB7D7
:10121000DEB7C751D2400FB6F894DEBF0FBECDBFC8
:1012200019861A861B861C861D861E861F86188AAE
:10123000198A1A8A1B8A1C8A1D8A1E8A1F8A188E7E
:10124000198E1A8E1B8E1C8E1D8E1E8E1F8E18A23E
:1012500019A21AA21BA21CA284E190E09EA38DA356
:1012600081E08FA318A619A68CE4888708E921E2FB
:1012700042E364E6CE010196ACDBBE016F5F7F4FB7
:10128000CE018F5E9E4FD9DDAC01BE016F5E7E4FF9
:1012900089E099E0D0D2C95EDD4F0FB6F894DEBF89
:1012A0000FBECDBFDF91CF910F9108950F93CF93D4
:1012B000DF93CDB7DEB7C751D2400FB6F894DEBF8B
:1012C0000FBECDBF81E190E0A0E0B0E089879A87B2
:1012D000AB87BC8781E08D878E878BE0888709E5A7
:1012E00026E042E364E6CE01019673DBBE016F5F48
:1012F0007F4FCE018F5E9E4FA0DDAC01BE016F5EC1
:101300007E4F89E099E097D2C95EDD4F0FB6F89421
:10131000DEBF0FBECDBFDF91CF910F910895FB01CE
:101320002081822790E1899F900111242827822F14
:1013300090E0582F44279C0163E0220F331F6A95E9
:10134000E1F742275327218130E02427352774E035
:10135000959587957A95E1F78227932791838083E6
:1013600008952F923F924F925F926F927F928F9249
:101370009F92AF92BF92CF92DF92EF92FF920F9324
:101380001F93CF93DF93CDB7DEB7C554D1400FB6CF
:10139000F894DEBF0FBECDBFEE24E394F12C48E0FD
:1013A000242E312C57E0452E512C66E0662E712CF0
:1013B00074E0872E912C8E010F5E1E4F89E099E01C
:1013C0000E94AF01181619060CF010C289E099E0CE
:1013D0000E948D015C01CB5BDE4F8883C554D140F8
:1013E0001092600440916304509164044B305105A5
:1013F00008F0C6C0FA018827EE58FF4F8F4F0C94B3
:101400000719CB5BDE4F9881C554D1409E3F09F050
:10141000B7C082E090E090936404809363041092DC
:10142000C904A092C8048FEF9FEF9093C7048093E4
:10143000C604A6C0A092C9041092650466EC74E0CC
:101440008A2D6DDF909264048092630499C0A0920B
:10145000CA0466EC74E08A2D62DFE3E0F0E0F0930A
:101460006404E09363048CC0A092CB0466EC74E047
:101470008A2D55DF85E090E09093640480936304A7
:101480007FC0A092CC0466EC74E08A2D48DF709295
:1014900064046092630474C0A092CD0466EC74E0AE
:1014A0008A2D3DDF8091C904811105C0309264040A
:1014B0002092630465C0509264044092630460C04B
:1014C000E091650481E08E0F80936504F0E0E253C3
:1014D000FB4FA08266EC74E08A2D21DF90916504B9
:1014E0008091C90498134CC0E1CFE091CD04F0E0A5
:1014F000E75FFD4F66EC74E0808111DF8091C604E8
:101500009091C7049927A50155274817590739F025
:10151000EAE0F0E0F0936404E093630406C089E03D
:1015200090E09093640480936304E0916504F0E09C
:10153000E253FB4FA08224C04A30510541F0C090D5
:10154000C704D12CC50199278C159D0511F082E0A7
:1015500001C081E080936004F0926404E09263042F
:10156000E0916504F0E0E153FB4FA082E6ECF4E08B
:10157000DE01119680E191E001900D920197E1F773
:1015800020916004213099F48091CA04809366040C
:101590008091680490916904009721F410926B0483
:1015A00010926A0401969093690480936804809174
:1015B000C9048C8380916504109262042230B1F5D5
:1015C00090E0FC01E153FB4F4081042E000C550BD1
:1015D000542F4427FC01E253FB4F2081022E000CC4
:1015E000330BCA01822B932B9A83898381E08093EA
:1015F000620410926004CB5BDE4F9881C554D140E9
:101600009E3F79F482E090E09093640480936304B9
:101610001092C9048FEF9FEF9093C7048093C60484
:10162000CDCEF0926404E0926304C8CE222309F484
:10163000C5CE8EE394E0D7D28FEF93E093D1688547
:1016400070E080E090E04AE09ED186E693E08AD1A7
:101650008885813209F49AC020F4882309F465C092
:10166000ADCE8A3209F444C0823F09F0A7CE4C8146
:10167000453308F044E384E3F80111928A95E9F7D1
:1016800050E0BE01675F7F4FC8010E941319F80147
:1016900080819181A281B3818093A5049093A60457
:1016A000A093A704B093A80484819581A681B781F3
:1016B0008093A1049093A204A093A304B093A404E4
:1016C00089E094E090D26091A5047091A604809185
:1016D000A7049091A80497D187E194E084D2609107
:1016E000A1047091A2048091A3049091A4048BD1D1
:1016F0004C81433008F042E0F8011182108250E042
:10170000BE01675F7F4FC8010E941319F8018081F5
:101710009181909395048093940485E294E063D240
:10172000609194047091950429C04C814A3008F06E
:1017300049E089E0F80111928A95E9F750E0BE018D
:10174000675F7F4FC8010E9413198E818F3F09F494
:1017500035CE809308098F8180930709F801808135
:101760008093A00486818093060980E494E03BD2B4
:101770008AE494E038D26091A00470E080E090E0C8
:101780004AE001D186E693E0EDD018CE4C814D3190
:1017900008F04CE18CE1F80111928A95E9F750E0EC
:1017A000BE01675F7F4FC8010E941319F801848151
:1017B0009581A681B78180939C0490939D04A0930A
:1017C0009E04B0939F0480859185A285B385809304
:1017D000980490939904A0939A04B0939B04828DEB
:1017E000938D9093970480939604E8CDCB5BDE4F66
:1017F0000FB6F894DEBF0FBECDBFDF91CF911F9122
:101800000F91FF90EF90DF90CF90BF90AF909F909F
:101810008F907F906F905F904F903F902F900895A2
:10182000E091A609F091A7090190F081E02D682FC1
:1018300086EA99E01994CF92DF92EF92FF920F938C
:101840001F93CF93DF936C017A018B01C0E0D0E04E
:10185000CE15DF0589F0D8016D918D01D601ED918E
:10186000FC910190F081E02DC6011995892B11F4AE
:101870007E0102C02196ECCFC701DF91CF911F916D
:101880000F91FF90EF90DF90CF9008950E940F1975
:101890000F93CF93DF93CDB7DEB767970FB6F8946A
:1018A000DEBF0FBECDBF29833A834B835C8321E02B
:1018B0002D831E822F8B6115710541F4FE01379631
:1018C00020E1DF011D922A95E9F708C020E1FB0124
:1018D000DE01179601900D922A95E1F727E1FE01AE
:1018E0003196DC01189601900D922A95E1F727E1D7
:1018F000FC01278308EA42E364E66BD867960FB6DB
:10190000F894DEBF0FBECDBFDF91CF910F91089548
:10191000FC01A089B18982E08C93A089B1891C92D5
:10192000A485B5851C92A685B78580E18C93108E21
:10193000A489B58986E08C93A289B3898C91806152
:101940008C93A289B3898C9188608C93A289B38986
:101950008C9180688C930288F389E02D80818F7D43
:1019600080830895009761F0FC0101900020E9F761
:101970003197AF01481B590BBC0186EA99E05BCF58
:1019800080E090E008958F929F92AF92BF920F9364
:101990001F93CF93DF93CDB7DEB7A1970FB6F8941F
:1019A000DEBF0FBECDBF19A2423008F44AE08E015F
:1019B0000F5D1F4F842E912CA12CB12CA5019401F9
:1019C0000E94C918E62FB901CA0101501109EA3075
:1019D00014F4E05D01C0E95CD801EC93232B242BC7
:1019E000252B61F7C801BEDFA1960FB6F894DEBFC4
:1019F0000FBECDBFDF91CF911F910F91BF90AF90E0
:101A00009F908F900895CF92DF92EF92FF92CF93A5
:101A1000DF9397FF17C06B017C018DE201DFEC01C2
:101A200066277727CB016C197D098E099F094AE04B
:101A3000AADF8C0F9D1FDF91CF91FF90EF90DF9079
:101A4000CF9008954AE0DF91CF91FF90EF90DF9023
:101A5000CF9099CF4F925F926F927F928F929F9289
:101A6000AF92BF92CF92DF92EF92FF92CF93DF932C
:101A70006B017C01B42E9B01AC010E94B01888233D
:101A800019F084E594E01AC026013701E89477F84C
:101A90002FEF3FEF4FE75FE7C301B2010E94B0189D
:101AA00081110FC02FEF3FEF4FE75FE7C301B20196
:101AB0000E941B1618162CF488E594E053DFEC0105
:101AC0007EC02FEF3FEF4FE75FE4C701B6010E94F2
:101AD000F71718161CF48CE594E0F0CF2FEF3FEFCA
:101AE0004FE75FECC701B6010E941B1687FDF3CFDD
:101AF00020E030E0A901C701B6010E941B1687FF54
:101B000008C08DE28DDEEC01F7FAF094F7F8F0945E
:101B100002C0C0E0D0E0A12C60E070E080E09FE374
:101B2000AB1440F420E030E040E251E40E94221681
:101B3000A394F6CF9B01AC01C701B6019FD72B013F
:101B40003C010E948F166B017C010E94BB169B0119
:101B5000AC01C301B20191D72B013C014AE0C7019E
:101B6000B60111DFC80FD91FBB2021F08EE258DE6D
:101B7000C80FD91FFB2CFF2011F120E030E040E21C
:101B800051E4C301B2010E9402182B013C010E94E2
:101B90008F164B01A12CB12C4AE0C501B401F3DE34
:101BA000C80FD91FC501B4010E94BB169B01AC012F
:101BB000C301B20162D72B013C01FA94DCCF86E667
:101BC00093E0D0DE8C0F9D1FDF91CF91FF90EF90BF
:101BD000DF90CF90BF90AF909F908F907F906F904D
:101BE0005F904F900895CF93DF93BCDEEC0186E6C3
:101BF00093E0B8DE8C0F9D1FDF91CF9108958F92F7
:101C00009F92AF92BF92CF92DF92EF92FF920E948B
:101C10007A044B015C018AE0C82ED12CE12CF12C16
:101C20000E947A04DC01CB0188199909AA09BB0931
:101C3000883E9340A105B10558F021E0C21AD108B1
:101C4000E108F10888EE880E83E0981EA11CB11C03
:101C5000C114D104E104F10419F7FF90EF90DF9073
:101C6000CF90BF90AF909F908F9008950F931F9348
:101C7000EAE4F2E06491E4E0F2E0E491F0E0EE0FF7
:101C8000FF1FEA54FE4F8591949100E412E42FE087
:101C900030E0462F75D2611571058105910549F037
:101CA000DC01CB010196A11DB11DBC01CD019F70CE
:101CB00003C060E070E0CB011F910F910895CF93B6
:101CC000DF93EAE4F2E02491E4E0F2E084918823F7
:101CD000C1F090E0880F991FFC01E456FE4FC591BA
:101CE000D491FC01EE57FE4FA591B4919FB7F894A3
:101CF0008881E22FE0958E2388838C91E823EC93F2
:101D00009FBFDF91CF9108950F931F93CF93DF93E0
:101D1000CDB7DEB7C751D2400FB6F894DEBF0FBEC5
:101D2000CDBF19861A861B861C861D861E861F86B9
:101D3000188A198A1A8A1B8A1C8A1D8A1E8A1F8A77
:101D4000188E698F7A8F8B8F9C8F2D8F3E8F4F8F40
:101D500058A319A21AA21BA21CA21EA30DA380E1C4
:101D600090E098A78FA381E089A71AA693E09BA78C
:101D70001CA68DA787E288870EEF25E242E364E682
:101D8000CE0101960E94E904BE016F5F7F4FCE0134
:101D90008F5E9E4F52D8AC01BE016F5E7E4F89E0D0
:101DA00099E049DDC95EDD4F0FB6F894DEBF0FBE86
:101DB000CDBFDF91CF911F910F9108950F93CF93D6
:101DC000DF93CDB7DEB7C751D2400FB6F894DEBF70
:101DD0000FBECDBF40E050E060E671E449875A870E
:101DE0006B877C871D861E861F86188A198A1A8A29
:101DF0001B8A1C8A1D8A1E8A1F8A188E198E1A8EAB
:101E00001B8E1C8E1D8E1E8E1F8E18A219A21AA24A
:101E10001BA21CA29EA38DA380E790E098A78FA38E
:101E200081E089A71AA693E09BA71CA68DA787E24D
:101E300088870EEF25E242E364E6CE0101960E9418
:101E4000E904BE016F5F7F4FCE018F5E9E4F0E94FF
:101E50001D07AC01BE016F5E7E4F89E099E0EBDCAF
:101E6000C95EDD4F0FB6F894DEBF0FBECDBFDF9168
:101E7000CF910F910895CF92DF92EF92FF920F933F
:101E80001F93CF93DF93CDB7DEB7C751D2400FB6C4
:101E9000F894DEBF0FBECDBF6B017C018A0180913B
:101EA0000802682F70E080E090E065D7C986DA8686
:101EB000EB86FC861D861E861F86188A698B7A8BA8
:101EC0008B8B9C8B80E090E0A0E8BFE38D8B9E8B9A
:101ED000AF8BB88F198E1A8E1B8E1C8E1D8E1E8E88
:101EE0001F8E18A219A21AA21BA21CA21EA30DA328
:101EF00083E790E098A78FA311E019A71AA683E0C3
:101F00008BA71CA61DA787E288870EEF25E242E378
:101F100064E6CE0101960E94E904BE016F5F7F4F27
:101F2000CE018F5E9E4F0E941D07AC01BE016F5E09
:101F30007E4F89E099E07FDC809108028F3F19F4A1
:101F40001093080205C0813019F48FEF80930802C6
:101F5000C95EDD4F0FB6F894DEBF0FBECDBFDF9177
:101F6000CF911F910F91FF90EF90DF90CF90089548
:101F70000F93CF93DF93CDB7DEB7C751D2400FB6E3
:101F8000F894DEBF0FBECDBF19861A861B861C864D
:101F90001D861E861F86188A198A1A8A1B8A1C8A21
:101FA0001D8A1E8A1F8A188E698F7A8F8B8F9C8F4D
:101FB0002D8F3E8F4F8F58A319A21AA21BA21CA2CD
:101FC00082E090E09EA38DA381E190E098A78FA38B
:101FD00081E089A71AA693E09BA71CA68DA787E29C
:101FE00088870EEF25E242E364E6CE0101960E9467
:101FF000E904BE016F5F7F4FCE018F5E9E4F0E944E
:102000001D07AC01BE016F5E7E4F89E099E013DCD5
:10201000C95EDD4F0FB6F894DEBF0FBECDBFDF91B6
:10202000CF910F9108950F93CF93DF93CDB7DEB784
:10203000C751D2400FB6F894DEBF0FBECDBF198690
:102040001A861B861C866D877E878F87988B198AD8
:102050001A8A1B8A1C8A1D8A1E8A1F8A188E198E4C
:102060001A8E1B8E1C8E1D8E1E8E1F8E18A219A2FC
:102070001AA21BA21CA28CE291E09EA38DA381E078
:102080008FA318A619A68CE4888708E921E242E309
:1020900064E6CE0101960E94E904BE016F5F7F4FA6
:1020A000CE018F5E9E4F0E941D07AC01BE016F5E88
:1020B0007E4F89E099E0BFDBC95EDD4F0FB6F89433
:1020C000DEBF0FBECDBFDF91CF910F9108950F936B
:1020D000CF93DF93CDB7DEB7C751D2400FB6F89498
:1020E000DEBF0FBECDBF19861A861B861C861D86D5
:1020F0001E861F86188A198A1A8A1B8A1C8A1D8ABC
:102100001E8A1F8A188E198E1A8E1B8E1C8E1D8E8B
:102110001E8E1F8E18A219A21AA21BA21CA21EA2FA
:102120001DA286E190E098A78FA381E089A71AA657
:1021300093E09BA78CA78DA787E288870EEF25E207
:1021400042E364E6CE0101960E94E904BE016F5F9E
:102150007F4FCE018F5E9E4F0E941D07AC01BE01D6
:102160006F5E7E4F89E099E066DBC95EDD4F0FB69A
:10217000F894DEBF0FBECDBFDF91CF910F910895D0
:10218000CF92DF92EF92FF920F931F93E82FF92FD8
:1021900005C0015011092109310961F1908196238F
:1021A0009417B9F305C0015011092109310911F142
:1021B000908196239413F7CFC12CD12CE12CF12CD4
:1021C0000AC08FEFC81AD80AE80AF80A0C151D05CC
:1021D0002E053F0579F080818623841791F36C2DBD
:1021E0007D2D8E2D9F2D1F910F91FF90EF90DF90F1
:1021F000CF90089560E070E080E090E01F910F9133
:10220000FF90EF90DF90CF900895CF93DF93CDB7FD
:10221000DEB760970FB6F894DEBF0FBECDBF7894DF
:1022200084B5826084BD84B5816084BD85B58260DB
:1022300085BD85B5816085BD80916E00816080938C
:102240006E001092810080918100826080938100F5
:102250008091810081608093810080918000816005
:10226000809380008091B10084608093B100809160
:10227000B00081608093B000809191008260809373
:1022800091008091910081608093910080919000F5
:102290008160809390008091A10082608093A10072
:1022A0008091A10081608093A1008091A000816055
:1022B0008093A00080912101826080932101809110
:1022C00021018160809321018091200181608093B0
:1022D000200180917A00846080937A0080917A0056
:1022E000826080937A0080917A00816080937A0086
:1022F00080917A00806880937A001092C10089E012
:1023000099E006DB86EA99E003DB22242394312C52
:1023100028D88091C504811109C00E9469070E94D4
:102320003D070E94A80321E02093C5048091A504E5
:102330009091A604A091A704B091A804892B8A2BA0
:102340008B2B61F08091A1049091A204A091A30431
:10235000B091A404892B8A2B8B2B11F40E945F056A
:102360008091A004863039F08091C3049091C40418
:10237000019709F086C03092C4042092C304809172
:10238000C3049091C404019709F07BC00E948802A5
:10239000883C910514F40E94FD0283E593E023DC60
:1023A0006091C3047091C404072E000C880B990B34
:1023B0002ADB86E693E0D6DAE2CF0E94B1090E94DA
:1023C000B1052B013C0180919404909195040097F4
:1023D00009F4FAC080FDF8C0A30192016AE077ED2C
:1023E00083EA9CE30E9451064B015C01A301920128
:1023F0006AE077ED83EA9CE30E9451066B017C0161
:1024000020E030E0A901C501B40115D4882309F406
:10241000A0C020E030E0A901C701B6010CD4882398
:1024200009F4B5C020E030E048E453E4C501B4014C
:10243000DED518160CF0BDC020E030E048E453E4CF
:10244000C701B601D4D518160CF0B3C00E94CB0852
:102450004CE653E0C501B4010E94C10746E753E0D2
:10246000C701B6010E94C10743E050E05093C40485
:102470004093C3048091C3049091C404029709F46B
:102480009CCF8091C3049091C404029709F0B9C015
:102490001092C2040E9461088FE090E00E942E0812
:1024A00000E010E020E030E0A901CA01B9012CDC15
:1024B00001E010E020E030E0A901CA01B90124DC0C
:1024C00082E090E07BDC43E050E060E070E084EB91
:1024D00092E4D1DC84E090E071DC45E050E060E023
:1024E00070E080EF91E4C7DC86E090E067DC47E0D5
:1024F00050E060E070E080EF91E4BDDC88E090E0C7
:102500005DDC49E050E060E070E080E792E4B3DC3D
:102510008AE090E053DC4BE050E060E070E080EF58
:1025200091E4A9DC8CE090E049DC4DE050E060E013
:1025300070E080EF91E49FDC8EE090E03FDC5FDBB9
:102540000E9492085CDB60E070E080E691E46BDD65
:1025500091CFA30192016AE077ED83EA9CE30E94A8
:1025600051064B015C0120E030E0A90164D38111E8
:1025700050CF20E030E0A901C701B6015CD3812C27
:10258000912C29E4A22E23E4B22E811155CFA30170
:1025900092016AE077ED83EA9CE30E9451066B01A9
:1025A0007C0120E030E0A90146D3882309F404C26D
:1025B00039CF49E653E0C501B4010E94C10743E7A2
:1025C00053E0C701B60105C04DE753E060E070E09D
:1025D000CB010E94C1074ECF0E94B10960919C04BB
:1025E00070919D0480919E0490919F0461157105E6
:1025F0008105910581F48091C3049091C4040397EF
:1026000059F38091C3049091C404039709F0C4C1A5
:102610000E949507F0CF2091980430919904409141
:102620009A0450919B0429833A834B835C83232B28
:10263000242B252B01F3A0909604B0909704A114AD
:10264000B104C9F29AD320E836E948E15BE4FAD252
:1026500025E33AEF4EE85CE3D5D46B017C01B5018C
:1026600080E090E088D320E030E048EC52E4EAD209
:1026700025E33AEF4EE85CE3C5D42B013C01C701EA
:10268000B60123D54B015C01C701B601D8D26D83D9
:102690007E838F839887C301B201D1D26B017C0105
:1026A0002DE239E848E254E36D817E818F8198857F
:1026B000A9D4A7019601A6D49B01AC01C501B40120
:1026C000DDD140D26B017C0100D59B01AC01C3017F
:1026D000B2012D873E874F87588BF7D469877A8759
:1026E0008B879C872D853E854F855889C501B40110
:1026F00089D49B01AC0160E070E080E89FE3BDD12C
:102700004B015C012DE239E848E254E369857A85A2
:102710008B859C8577D42D813E814F81588572D4DD
:10272000A501940135D24B015C0120E030E044E387
:1027300053E4C701B60166D42BED3FE049E450E411
:1027400081D26B017C0169817A818B819C8115D357
:1027500020E836E948E15BE475D225E33AEF4EE83C
:102760005CE350D4A501940189D120E030E044E33A
:1027700053E448D42BED3FE049E450E463D24B01ED
:102780005C0184E893E0EED848E050E0C701B60170
:1027900061D986E993E0E6D848E050E0C501B4018C
:1027A00059D989EA93E0DED820E030E044E353E4ED
:1027B000C301B20127D42BED3FE049E450E442D2FB
:1027C00042E050E047D9C092BE04D092BF04E092EC
:1027D000C004F092C1048092BA049092BB04A0920B
:1027E000BC04B092BD0420E836E948E15BE4C701CF
:1027F000B60108D48FD26093B6047093B704809367
:10280000B8049093B90420E836E948E15BE4C501D7
:10281000B401F8D37FD26093B2047093B304809371
:10282000B4049093B50486EB93E09CD86091B60411
:102830007091B7048091B8049091B904E4D886E609
:1028400093E090D885EC93E08DD86091B2047091BC
:10285000B3048091B4049091B504D5D886E693E092
:1028600081D820E030E0A9016091BE047091BF04DE
:102870008091C0049091C104DED1882309F4BBCEBD
:1028800020E030E0A9016091BA047091BB0480910E
:10289000BC049091BD04CFD1882309F4ACCE0E9432
:1028A000610883E090E00E942E0811DC2091BA04B8
:1028B0003091BB044091BC045091BD046091BE04B2
:1028C0007091BF048091C0049091C10401E010E0B8
:1028D0001BDA2091BA043091BB044091BC045091A2
:1028E000BD046091BE047091BF048091C0049091BA
:1028F000C1043EDB0E94920860E070E080E090E45A
:1029000092DB8091C3049091C404039709F073CEC5
:102910008091C204811127C010929C0410929D04E2
:1029200010929E0410929F041092980410929904A1
:1029300010929A0410929B0410929704109296049D
:102940001092BE041092BF041092C0041092C104F1
:102950001092BA041092BB041092BC041092BD04F1
:1029600031E03093C2040E948802883C910514F43F
:102970000E94FD020E94B1098091940490919504F7
:10298000029709F0BECF1092C20444E050E0509389
:10299000C4044093C304B5CF8091C3049091C40490
:1029A000049739F40E9404093092C4042092C304AD
:1029B000F3CF0E945502ACCC20E030E048E453E471
:1029C000C501B40114D3C12CD12C99E4E92E93E4B0
:1029D000F92E39CDE9E0F9E01382128248EE53E096
:1029E00060E070E044835583668377838DE093E0F5
:1029F000918380832DEC30E0358724872CEC30E008
:102A00003787268728EC30E0318B208B29EC30E0AB
:102A1000338B228B2AEC30E0358B248B2EEC30E08C
:102A2000378B268B118E128E138E148EE6EAF9E008
:102A300013821282448355836683778391838083D4
:102A400085EC90E09587848784EC90E09787868773
:102A500080EC90E0918B808B81EC90E0938B828B6B
:102A600082EC90E0958B848B86EC90E0978B868B44
:102A7000118E128E138E148E08955058BB27AA27DC
:102A80000ED06AC233D230F038D220F031F49F3FFA
:102A900011F41EF4F2C10EF4E095E7FBE8C1E92F52
:102AA0007DD280F3BA17620773078407950718F081
:102AB00071F49EF595C20EF4E0950B2EBA2FA02D61
:102AC0000B01B90190010C01CA01A0011124FF27DB
:102AD000591B99F0593F50F4503E68F11A16F040D6
:102AE000A22F232F342F4427585FF3CF46953795D5
:102AF0002795A795F0405395C9F77EF41F16BA0B9A
:102B0000620B730B840BBAF09150A1F0FF0FBB1F47
:102B1000661F771F881FC2F70EC0BA0F621F731F90
:102B2000841F48F4879577956795B795F7959E3FED
:102B300008F0B3CF9395880F08F09927EE0F97957B
:102B4000879508959F939F77EEE389379E0720F43A
:102B5000EAEFF0E0BAD109C04BD19058A2EA2AEDD1
:102B60003FE049EC5FE39BDFF7D10F9007FC905803
:102B70000895BCD158F080E891E009F49EEFBDD1F2
:102B800028F040E851E059F45EEF09C076C128C250
:102B9000E92FE07803D268F3092E052AC1F326173E
:102BA00037074807590738F00E2E07F8E02569F077
:102BB000E025E0640AC0EF6307F8009407FADB0140
:102BC000B9019D01DC01CA01AD01EF934AD0C4D126
:102BD0000AD05F91552331F02BED3FE049E450FDE1
:102BE00049EC4CCF0895DF93DD27B92FBF7740E83C
:102BF0005FE31616170648075B0710F4D92FFBD1C1
:102C00009F938F937F936F93A8D2EEE0F1E038D13A
:102C1000A3D12F913F914F915F9100D2DD2349F0D5
:102C20009058A2EA2AED3FE049EC5FE3D0785D27B7
:102C300036DFDF9191C1F7D008F481E0089565D1C6
:102C4000E3959BC10CD088C158D140F04FD130F0F2
:102C500021F45F3F19F00BC15111C3C10EC19ED1C8
:102C600098F39923C9F35523B1F3951B550BBB2753
:102C7000AA2762177307840738F09F5F5F4F220F00
:102C8000331F441FAA1FA9F333D00E2E3AF0E0E8F9
:102C900030D091505040E695001CCAF729D0FE2F45
:102CA00027D0660F771F881FBB1F261737074807D7
:102CB000AB07B0E809F0BB0B802DBF01FF2793588D
:102CC0005F4F2AF09E3F510568F0D1C08AC15F3F37
:102CD000ECF3983EDCF3869577956795B795F79575
:102CE0009F5FC9F7880F911D9695879597F908956D
:102CF000E1E0660F771F881FBB1F62177307840709
:102D0000BA0720F0621B730B840BBA0BEE1F88F717
:102D1000E095089504D06894B11163C1089546D137
:102D200088F09F5790F0B92F9927B751A0F0D1F0B4
:102D3000660F771F881F991F1AF0BA95C9F712C03E
:102D4000B13081F04DD1B1E008954AC1672F782F9D
:102D50008827B85F39F0B93FCCF3869577956795AA
:102D6000B395D9F73EF490958095709561957F4F16
:102D70008F4F9F4F0895E89409C097FB3EF49095BC
:102D80008095709561957F4F8F4F9F4F9923A9F044
:102D9000F92F96E9BB279395F695879577956795D3
:102DA000B795F111F8CFFAF4BB0F11F460FF1BC017
:102DB0006F5F7F4F8F4F9F4F16C0882311F096E9AA
:102DC00011C0772321F09EE8872F762F05C0662358
:102DD00071F096E8862F70E060E02AF09A95660F11
:102DE000771F881FDAF7880F9695879597F90895CA
:102DF000DF93CF931F930F938B01EC01EBE3F1E093
:102E00003FD0AAD09801AE018B01EC0160E070E0E8
:102E100080E89FE332DE63D19801AE010F911F91EC
:102E2000CF91DF91FBC0990F0008550FAA0BE0E886
:102E3000FEEF16161706E807F907C0F0121613067C
:102E4000E407F50798F0621B730B840B950B39F4BC
:102E50000A2661F0232B242B252B21F408950A2622
:102E600009F4A140A6958FEF811D811D089597F962
:102E70009F6780E870E060E008959FEF80EC089520
:102E8000DF93CF931F930F93FF92EF92DF927B011B
:102E90008C01689405C0DA2EEF01C0D0FE01E894E1
:102EA000A5912591359145915591AEF3EF01F7DD4F
:102EB000FE019701A801DA9479F7DF90EF90FF9077
:102EC0000F911F91CF91DF9108959F938F937F93DF
:102ED0006F93FF93EF939B01AC0194D0EF91FF911F
:102EE000CFDF2F913F914F915F918CC000240A94C6
:102EF0001616170618060906089500240A941216D5
:102F00001306140605060895B8CF50D0E8F3E894E8
:102F1000E0E0BB279F57F0F02AED3FE049EC06C008
:102F2000EE0FBB0F661F771F881F28F0B23A6207AB
:102F30007307840728F0B25A620B730B840BE39576
:102F40009A9572F7803830F49A95BB0F661F771FF9
:102F5000881FD2F790480AC1092E0394000C11F47F
:102F6000882352F0BB0F40F4BF2B11F460FF04C064
:102F70006F5F7F4F8F4F9F4F0895EF93E0FF06C025
:102F8000A2EA2AED3FE049EC5FEB89DDE5DF0F9037
:102F9000039401FC9058E3E6F1E097CF57FD905879
:102FA000440F551F59F05F3F71F04795880F97FB0D
:102FB000991F61F09F3F79F08795089512161306C7
:102FC0001406551FF2CF4695F1DF08C016161706F6
:102FD0001806991FF1CF869571056105089408952B
:102FE000E894BB2766277727CB0197F908951BDF65
:102FF00008F48FEF08959B01AC0160E070E080E879
:103000009FE320CE0BD0A8CF71DF28F076DF18F039
:10301000952309F02CCF31CF1124E3CFBFDFA0F3EC
:10302000959FD1F3950F50E0551F629FF001729F5D
:10303000BB27F00DB11D639FAA27F00DB11DAA1F7C
:10304000649F6627B00DA11D661F829F2227B00DC9
:10305000A11D621F739FB00DA11D621F839FA00D54
:10306000611D221F749F3327A00D611D231F849FA4
:10307000600D211D822F762F6A2F11249F575040FB
:103080008AF0E1F088234AF0EE0FFF1FBB1F661F96
:10309000771F881F91505040A9F79E3F510570F04F
:1030A000E6CE9FCF5F3FECF3983EDCF386957795B5
:1030B0006795B795F795E7959F5FC1F7FE2B880F4A
:1030C000911D9695879597F908959F931EDF0F9010
:1030D00007FCEE5F52CF11F40EF4CFCE45C066DF91
:1030E000D0F39923D9F3CEF39F57550B87FF4AD0DE
:1030F0000024A0E640EA900180585695979528F460
:10310000805C660F771F881F20F026173707480757
:1031100030F4621B730B840B202931294A2BA695AE
:1031200017940794202531254A2758F7660F771FF3
:10313000881F20F026173707480730F4620B730BFF
:10314000840B200D311D411DA09581F7B901842FFD
:103150009158880F9695879508959B01AC0152CFA1
:1031600062DE880B990B08959F3F31F0915020F457
:10317000879577956795B795880F911D9695879553
:1031800097F9089591505040660F771F881FD2F726
:103190000895A1E21A2EAA1BBB1BFD010DC0AA1F98
:1031A000BB1FEE1FFF1FA217B307E407F50720F0B0
:1031B000A21BB30BE40BF50B661F771F881F991F2B
:1031C0001A9469F760957095809590959B01AC0174
:1031D000BD01CF010895052E97FB16F400940FD082
:1031E00057FD05D0D6DF07FC02D046F408C0509545
:1031F0004095309521953F4F4F4F5F4F08959095E3
:103200008095709561957F4F8F4F9F4F0895EE0F7A
:10321000FF1F881F8BBF0790F691E02D199481E066
:1032200090E0F89409C0FB01DC0102C001900D920E
:0C32300041505040D8F70895F894FFCFAB
:10323C000000804000000040FF327C8900EDD9681E
:10324C0077000000590000000000000000D69FDC51
:10325C00A81817AA90437327F6B968EDF4DED409C1
:10326C00FEE61C1C84DDE80B9929274EC400000FD8
:10327C00030000000000A7B777BF76941500F37C1D
:10328C00000026149E988F0000006A31168F8C0562
:10329C009600E7B73F362F000000000000AF669E97
:1032AC00D0385D8A6C20B95422AE7CED044C803849
:1032BC007486EDCBFA57CBDC19E22E1DDF5506E5F3
:1032CC00CB01C36DA8B52F48837F00679AB2C800A5
:1032DC0000000000000000000000000000000000E2
:1032EC0000000000000000000000000000000000D2
:1032FC0000000000000000000000000000000000C2
:10330C0000000000000000000000000000000000B1
:10331C00000000000000000000000000000000A3FE
:10332C00699723960000000000005A68555F82B828
:10333C005108CC31AA2C532E0000000000EE011BCA
:10334C000C7E013402AF018D01A1014D61696E53F8
:10335C0063616E5F31004D61696E5363616E5F3204
:10336C00005265706F5363616E5F31005265706F10
:10337C005363616E5F320057504E41565F53504558
:10338C0045440043757272656E74205374616765B1
:10339C002069733A20000D0A004E6F5F506174680B
:1033AC005F31004E6F5F506174685F320059617716
:1033BC00696E67004E6577204C617469747564653D
:1033CC002069733A20004E6577204C6F6E676974E4
:1033DC007564652069733A200042656172696E6795
:1033EC002069733A20006C617454617267657420B3
:1033FC0069733A20006C6F6E675461726765742054
:10340C0069733A200057505F5941575F4245484114
:10341C0056494F52005352315F4558545F535441F3
:10342C0054005352315F504F534954494F4E004D45
:10343C006573736167653A2000486F6D65204C6158
:10344C00742069733A2000486F6D65204C6F6E20B4
:10345C0069733A200043757272656E74204D6973FE
:10346C0073696F6E2053657175656E63653A2000E4
:10347C00686561727462656174004D6F6465206982
:10348C00733A20006E616E00696E66006F7666009E
:00000001FF
