:100000002EC100005DC100005BC1000059C10000AD
:1000100057C1000055C1000053C1000051C100008C
:100020004FC100004DC100004BC1000049C100009C
:1000300047C1000045C1000043C1000041C10000AC
:100040003FC100003DC100003BC1000039C10000BC
:1000500037C1000035C1000033C100000EC40000EC
:100060002FC10000A9C300007EC3000029C1000009
:1000700027C1000025C1000023C1000021C10000EC
:100080001FC100001DC100001BC1000019C10000FC
:1000900041C3000016C3000013C1000011C10000DD
:1000A0000FC100000DC100000BC1000009C100001C
:1000B00007C1000005C1000003C1000001C100002C
:1000C000FFC00000FDC00000FBC00000F9C0000040
:1000D000F7C00000F5C00000F3C00000F1C0000050
:1000E000EFC000005F0A5F0A730A870A7E0A900A5F
:1000F000990AB10AC80AF10AF10A036EDB363D9A81
:100100009999993DABAAAA2A3E000000803F084A6F
:10011000D73B3BCE016E84BCBFFDC12F3D6C74311B
:100120009ABD56833DDA3D00C77F11BED9E4BB4C72
:100130003E916BAAAABE000000803F072C7AA5BAA8
:100140006CC590DA3B9365FC8BBC53F810FD3C56B4
:1001500092834DBD879D3AB63DCBC9BF5BBE73DA76
:100160000FC93F05A84CCDB2D44EB93836A9020C00
:1001700050B9918688083CA6AAAA2ABE0000008031
:100180003F0000002200250028002B002E00310037
:10019000340002010000050108010B0100002100EC
:1001A000240027002A002D00300033000101000048
:1001B000040107010A010000200023002600290095
:1001C0002C002F003200000100000301060109018C
:1001D00005050505070508080808020202020A0AC3
:1001E00008080404040401010101010101010303E1
:1001F000030303030303040707070C0C0C0C0C0C8C
:100200000C0C0202020206060606060606060B0B88
:100210000B0B0B0B0B0B01021020200808102040C9
:1002200010204080020102010804020101020408BA
:100230001020408080402010080402018004020148
:100240008040201008040201080402010102040891
:100250001020408001020408102040802F0D11243E
:100260001FBECFEFD1E2DEBFCDBF00E00CBF13E079
:10027000A0E0B2E0EAE3F7E200E00BBF02C00790C3
:100280000D92A839B107D9F729E0A8E9B3E001C078
:100290001D92AB36B207E1F711E0CFE2D1E000E00A
:1002A00006C021970109802FFE010E948613CE32DD
:1002B000D10780E00807A9F70E94820D0C949B13D8
:1002C0009FCEFC01A089B18982E08C93A089B1897D
:1002D0001C92A485B5851C92A685B78580E18C9378
:1002E000108EA489B58986E08C93A289B3898C91FC
:1002F00080618C93A289B3898C9188608C93A28948
:10030000B3898C9180688C930288F389E02D808179
:100310008F7D80830895CF92DF92EF92FF920F93AB
:100320001F93CF93DF936C017A018B01C0E0D0E083
:10033000CE15DF0589F0D8016D918D01D601ED91C3
:10034000FC910190F081E02DC6011995892B11F4E3
:100350007E0102C02196ECCFC701DF91CF911F91A2
:100360000F91FF90EF90DF90CF900895FC01A0894E
:10037000B1898C91A689B78982FD0FC09C91818D2E
:100380008F5F8F73228D821749F0218DDF01A20FBD
:10039000B11D5D969C93818F08958C910895089569
:1003A00080E090E00895FC01538D448D252F30E0CE
:1003B000842F90E0821B930B541710F0CF96089572
:1003C00001970895FC01918D828D981761F0828DBF
:1003D000DF01A80FB11D5D968C91928D9F5F9F7379
:1003E000928F90E008958FEF9FEF0895FC01918D1B
:1003F000828D981731F0828DE80FF11D858D90E088
:1004000008958FEF9FEF0895FC01918D228D892F24
:1004100090E0805C9F4F821B91098F73992708950C
:1004200083EE93E0F1DF21E0892B09F420E0822FB5
:10043000089580E894E0E8DF21E0892B09F420E0CA
:10044000822F0895FC01848DDF01A80FB11DA35AEE
:10045000BF4F2C91848D90E001968F739927848FE4
:10046000A689B7892C93A089B1898C9180648C93DB
:10047000938D848D981306C00288F389E02D8081C6
:100480008F7D80830895EF92FF920F931F93CF93F8
:10049000DF93EC0181E0888F9B8D8C8D981305C0D4
:1004A000E889F989808185FD23C0F62E0B8D10E047
:1004B0000F5F1F4F0F731127E02E8C8DE8120BC0BA
:1004C0000FB607FCFACFE889F989808185FFF5CF5F
:1004D000CE01B8DFF2CF8B8DFE01E80FF11DE35A9C
:1004E000FF4FF0820B8FEA89FB898081806207C011
:1004F000EE89FF896083E889F9898081806480833F
:1005000081E090E0DF91CF911F910F91FF90EF90EC
:100510000895CF93DF93EC01888D8823C1F0EA8999
:10052000FB89808185FD05C0A889B9898C9186FDEC
:100530000EC00FB607FCF5CF808185FFF2CFA889EA
:10054000B9898C9185FFEDCFCE017CDFE8CFDF91BB
:10055000CF91089580E090E0892B19F06ADF811136
:1005600020C080E090E0892B19F05ADF81111CC077
:1005700080E090E0892B41F080E090E0892B21F031
:100580000E940000811113C080E090E0892BA1F04F
:1005900080E090E0892B81F00E94000081110AC068
:1005A00008950E940000DDCF0E940000E1CF0E946C
:1005B0000000EACF0C94000008953FB7F8948091B2
:1005C0001E0590911F05A0912005B091210526B52B
:1005D000A89B05C02F3F19F00196A11DB11D3FBF7B
:1005E000BA2FA92F982F8827820F911DA11DB11D09
:1005F000BC01CD0142E0660F771F881F991F4A9505
:10060000D1F708950E948E13009761F0FC010190CC
:100610000020E9F73197AF01481B590BBC0180E876
:1006200094E079CE80E090E00895CF93DF93ECDF03
:10063000EC0182E193E0E8DF8C0F9D1FDF91CF9109
:1006400008958F929F92AF92BF920F931F93CF9373
:10065000DF93CDB7DEB7A1970FB6F894DEBF0FBE1C
:10066000CDBF19A2423008F44AE08E010F5D1F4F42
:10067000842E912CA12CB12CA50194010E94481329
:10068000E62FB901CA0101501109EA3014F4E05D06
:1006900001C0E95CD801EC93232B242B252B61F7B7
:1006A000C801B2DFA1960FB6F894DEBF0FBECDBF72
:1006B000DF91CF911F910F91BF90AF909F908F903E
:1006C00008951F920F920FB60F9211240BB60F923E
:1006D0002F933F934F935F936F937F938F939F934A
:1006E000AF93BF93EF93FF9383EE93E0ABDEFF9165
:1006F000EF91BF91AF919F918F917F916F915F919A
:100700004F913F912F910F900BBE0F900FBE0F9006
:100710001F9018951F920F920FB60F9211240BB6CF
:100720000F922F933F934F935F936F937F938F938A
:100730009F93AF93BF93EF93FF9383EE93E016DE07
:10074000FF91EF91BF91AF919F918F917F916F91A9
:100750005F914F913F912F910F900BBE0F900FBE65
:100760000F901F9018951F920F920FB60F921124A1
:100770000BB60F922F933F934F935F936F937F939B
:100780008F939F93AF93BF93EF93FF9380E894E091
:1007900059DEFF91EF91BF91AF919F918F917F9122
:1007A0006F915F914F913F912F910F900BBE0F90E2
:1007B0000FBE0F901F9018951F920F920FB60F92B9
:1007C00011240BB60F922F933F934F935F936F9328
:1007D0007F938F939F93AF93BF93EF93FF9380E8A3
:1007E00094E0C4DDFF91EF91BF91AF919F918F9104
:1007F0007F916F915F914F913F912F910F900BBE21
:100800000F900FBE0F901F9018958F929F92AF92EE
:10081000BF92CF92DF92EF92FF926B017C01CDDE0F
:100820004B015C01C114D104E104F104E9F0C5DE1F
:10083000DC01CB0188199909AA09BB09883E9340BC
:10084000A105B10578F321E0C21AD108E108F10849
:1008500088EE880E83E0981EA11CB11CC114D1043F
:10086000E104F10421F7DECFFF90EF90DF90CF900D
:10087000BF90AF909F908F9008951F920F920FB6E8
:100880000F9211242F933F938F939F93AF93BF9316
:100890008091C8039091C903A091CA03B091CB0382
:1008A00030911D0523E0230F2D3720F40196A11D63
:1008B000B11D05C026E8230F0296A11DB11D20938E
:1008C0001D058093C8039093C903A093CA03B093F6
:1008D000CB0380911E0590911F05A0912005B0913A
:1008E00021050196A11DB11D80931E0590931F0542
:1008F000A0932005B0932105BF91AF919F918F9157
:100900003F912F910F900FBE0F901F9018958F92CF
:100910009F92AF92BF92CF92DF92EF92FF920F938E
:100920001F93CF93DF931F921F92CDB7DEB77C0149
:10093000122F8EEFD70112968C93129713962C9349
:10094000139715966C93159716964C93169790914E
:100950009F0314969C939F5F90939F038FEF9FEF4D
:100960009A8389835701B3E0AB0EB11C6701E8E0BD
:10097000CE0ED11CAC14BD0441F0BE016F5F7F4FA1
:10098000D5018D915D0158D5F5CF89819A81F70107
:1009900091838083560183814601880E911CB701A3
:1009A000A814B90429F0D5018D915D0145D5F7CF83
:1009B000802F42D5F7018381F601E80FF11DD701A1
:1009C0008C91808313968C911397F601E80FF11D9B
:1009D00011968C918183812F90E008960F900F9053
:1009E000DF91CF911F910F91FF90EF90DF90CF900B
:1009F000BF90AF909F908F9008950F93CF93DF9308
:100A0000CDB7DEB767970FB6F894DEBF0FBECDBF88
:100A100029833A834B835C8321E02D831E822F8BB5
:100A20006115710541F4FE01379620E1DF011D9249
:100A30002A95E9F708C020E1FB01DE011796019035
:100A40000D922A95E1F727E1FE013196DC01189617
:100A500001900D922A95E1F727E1FC01278308EA2E
:100A600042E364E654DF67960FB6F894DEBF0FBE2C
:100A7000CDBFDF91CF910F910895CF93DF93CDB785
:100A8000DEB7C751D2400FB6F894DEBF0FBECDBF60
:100A900020E030E048E452E465E173E0CE010196E5
:100AA000ACDFBE016F5F7F4FCE018F5E9E4FF6D2EF
:100AB000AC01BE016F5E7E4F83EE93E02CDCC95E1D
:100AC000DD4F0FB6F894DEBF0FBECDBFDF91CF91E3
:100AD0000895CF93DF93CDB7DEB7C751D2400FB69D
:100AE000F894DEBF0FBECDBF20E030E040E752E417
:100AF00062E273E0CE01019680DFBE016F5F7F4F3F
:100B0000CE018F5E9E4FCAD2AC01BE016F5E7E4F9A
:100B100083EE93E000DCC95EDD4F0FB6F894DEBFD4
:100B20000FBECDBFDF91CF910895CF93DF93CDB7A7
:100B3000DEB7C751D2400FB6F894DEBF0FBECDBFAF
:100B400020E030E040E85FE36EE273E0CE01019622
:100B500054DFBE016F5F7F4FCE018F5E9E4F9ED2EE
:100B6000AC01BE016F5E7E4F83EE93E0D4DBC95EC5
:100B7000DD4F0FB6F894DEBF0FBECDBFDF91CF9132
:100B80000895CF93DF93CDB7DEB7C751D2400FB6EC
:100B9000F894DEBF0FBECDBF20E030E040E251E46C
:100BA0006EE373E0CE01019628DFBE016F5F7F4FD9
:100BB000CE018F5E9E4F72D2AC01BE016F5E7E4F42
:100BC00083EE93E0A8DBC95EDD4F0FB6F894DEBF7D
:100BD0000FBECDBFDF91CF910895CF93DF93CDB7F7
:100BE000DEB7C751D2400FB6F894DEBF0FBECDBFFF
:100BF00020E030E040E85FE36BE473E0CE01019673
:100C0000FCDEBE016F5F7F4FCE018F5E9E4F46D2EE
:100C1000AC01BE016F5E7E4F83EE93E07CDBC95E6C
:100C2000DD4F0FB6F894DEBF0FBECDBFDF91CF9181
:100C300008950F93CF93DF93CDB7DEB7C751D2405E
:100C40000FB6F894DEBF0FBECDBF83E090E09A8769
:100C5000898781E08B871C868CE288870DED24E0F4
:100C600042E364E6CE01019652DEBE016F5F7F4F24
:100C7000CE018F5E9E4F12D2AC01BE016F5E7E4FE1
:100C800083EE93E048DBC95EDD4F0FB6F894DEBF1C
:100C90000FBECDBFDF91CF910F9108950F931F939A
:100CA000CF93DF93CDB7DEB7C751D2400FB6F894DC
:100CB000DEBF0FBECDBF19861A861B861C861D8619
:100CC0001E861F86188A198A1A8A1B8A1C8A1D8A00
:100CD0001E8A1F8A188E698F7A8F8B8F9C8F2D8F1B
:100CE0003E8F4F8F58A319A21AA21BA21CA21EA3AB
:100CF0000DA380E190E098A78FA381E089A71AA6B1
:100D000093E09BA71CA68DA787E288870EEF25E2BC
:100D100042E364E6CE010196FADDBE016F5F7F4FCC
:100D2000CE018F5E9E4FBAD1AC01BE016F5E7E4F89
:100D300083EE93E0F0DAC95EDD4F0FB6F894DEBFC4
:100D40000FBECDBFDF91CF911F910F9108950F93EB
:100D5000CF93DF93CDB7DEB7C751D2400FB6F8942B
:100D6000DEBF0FBECDBF19861A861B861C861D8668
:100D70001E861F86188A198A1A8A1B8A1C8A1D8A4F
:100D80001E8A1F8A188E698F7A8F8B8F9C8F2D8F6A
:100D90003E8F4F8F58A319A21AA21BA21CA282E059
:100DA00090E09EA38DA381E190E098A78FA381E0BE
:100DB00089A71AA693E09BA71CA68DA787E2888720
:100DC0000EEF25E242E364E6CE010196A0DDBE010E
:100DD0006F5F7F4FCE018F5E9E4F60D1AC01BE0131
:100DE0006F5E7E4F83EE93E096DAC95EDD4F0FB6FD
:100DF000F894DEBF0FBECDBFDF91CF910F91089564
:100E00000F93CF93DF93CDB7DEB7C751D2400FB664
:100E1000F894DEBF0FBECDBF19861A861B861C86CE
:100E200080E090E0A0E0B0E48D879E87AF87B88B2C
:100E3000198A1A8A1B8A1C8A1D8A1E8A1F8A188E82
:100E4000198E1A8E1B8E1C8E1D8E1E8E1F8E18A242
:100E500019A21AA21BA21CA28CE291E09EA38DA350
:100E600081E08FA318A619A68CE4888708E921E2FF
:100E700042E364E6CE0101964ADDBE016F5F7F4F1B
:100E8000CE018F5E9E4F0AD1AC01BE016F5E7E4FD8
:100E900083EE93E040DAC95EDD4F0FB6F894DEBF13
:100EA0000FBECDBFDF91CF910F9108952F923F924A
:100EB0004F925F926F927F928F929F92AF92BF926A
:100EC000CF92DF92EF92FF920F931F93CF93DF9316
:100ED000CDB7DEB72A970FB6F894DEBF0FBECDBFF1
:100EE000EAE4F2E02491E4E0F2E084918823C9F09E
:100EF00090E0880F991FFC01E456FE4F45915491F4
:100F0000FC01EE57FE4FA591B4919FB7F894FA01FA
:100F100080812095822380838C91E22FE823EC93BB
:100F20009FBFCE0101967C018AE0F70111928A955C
:100F3000E9F767015E01FBE0AF0EB11C2AE4822EE7
:100F400022E0922E34E0632E32E0732E4AE3242E08
:100F5000312C412C512CF4016491F3018491E82F40
:100F6000F0E0EE0FFF1FEA54FE4F8591949100E4EC
:100F700012E42FE030E0462F2DD561157105810573
:100F8000910549F0DC01CB010196A11DB11DBC0109
:100F9000CD019F7003C060E070E0CB016093250538
:100FA000709326058093270590932805A20191014F
:100FB0000E946A13F601219331936F016AE070E099
:100FC00080E090E022DCCA14DB0409F0C4CFDE012B
:100FD000139621E030E04D915C911197C901019782
:100FE000FD01729162914617570724F4738362835F
:100FF0000197B8F7FC013196EE0FFF1FEE0DFF1DB4
:10100000518340832F5F3F4F12962530310519F7EA
:101010008D819E812A960FB6F894DEBF0FBECDBF9C
:10102000DF91CF911F910F91FF90EF90DF90CF90C4
:10103000BF90AF909F908F907F906F905F904F90F8
:101040003F902F9008951092DD031092DE031092CE
:10105000DF031092E0031092D9031092DA0310928A
:10106000DB031092DC031092D8031092D703109286
:10107000D2031092D3031092D4031092D50310928E
:10108000CE031092CF031092D0031092D10310928E
:10109000CD031092CC031092D60308950F931F93A3
:1010A000CF93DF938C01EB014B8150E04A5F5F4FA0
:1010B0006E5F7F4F0E9492139B81E92FF0E036967E
:1010C000E00FF11F88818083898181838B8190E08B
:1010D0000896DF91CF911F910F910895CF93DF93E1
:1010E000CDB7DEB7C751D2400FB6F894DEBF0FBE02
:1010F000CDBF20E030E040E251E46BE473E0CE018C
:1011000001967BDCBE016F5F7F4FCE018F5E9E4FED
:10111000C5DFAC01BE016F5E7E4F83EE93E0FBD86E
:10112000C95EDD4F0FB6F894DEBF0FBECDBFDF91B5
:10113000CF9108950F931F93CF93DF93CDB7DEB771
:10114000C751D2400FB6F894DEBF0FBECDBF4FB728
:10115000F8940091C8031091C9032091CA033091FB
:10116000CB034FBFCF5EDE4F088319832A833B83B7
:10117000C151D140092E000CAA0BBB0BCB5EDE4F38
:1011800088839983AA83BB83C551D1408AE06115C6
:10119000710551F4E1E1F1E0EC0FFD1F3896DF013C
:1011A0001D928A95E9F70AC0FB01A1E1B1E0AC0FFD
:1011B000BD1F189601900D928A95E1F782E1FE011C
:1011C000EF5EFE4FDE01199601900D928A95E1F7D0
:1011D0008CEF88870CE222E140E061E0CE010196CD
:1011E00096DBBE016F5F7F4FCE018F5E9E4F56DF55
:1011F000AC01BE016F5E7E4F83EE93E08CD8C95E7A
:10120000DD4F0FB6F894DEBF0FBECDBFDF91CF919B
:101210001F910F9108950F93CF93DF93CDB7DEB752
:10122000C751D2400FB6F894DEBF0FBECDBF81E0EC
:1012300089871A868DE2888708EE22E042E364E619
:10124000CE01019664DBBE016F5F7F4FCE018F5EE2
:101250009E4F24DFAC01BE016F5E7E4F83EE93E0B4
:101260005AD8C95EDD4F0FB6F894DEBF0FBECDBFB2
:10127000DF91CF910F9108950F93CF93DF93CDB767
:10128000DEB7C751D2400FB6F894DEBF0FBECDBF58
:1012900083E090E0A0E0B0E089879A87AB87BC87C5
:1012A00081E08D878E878BE0888709E526E042E321
:1012B00064E6CE0101962BDBBE016F5F7F4FCE014E
:1012C0008F5E9E4FEBDEAC01BE016F5E7E4F83EE04
:1012D00093E021D8C95EDD4F0FB6F894DEBF0FBE94
:1012E000CDBFDF91CF910F9108950F93CF93DF93EF
:1012F000CDB7DEB7C751D2400FB6F894DEBF0FBEF0
:10130000CDBF19861A861B861C861D861E861F86E3
:10131000188A198A1A8A1B8A1C8A1D8A1E8A1F8AA1
:10132000188E198E1A8E1B8E1C8E1D8E1E8E1F8E71
:1013300018A219A21AA21BA21CA284E190E09EA3EB
:101340008DA381E08FA318A619A68CE4888708E9ED
:1013500021E242E364E6CE010196D9DABE016F5F75
:101360007F4FCE018F5E9E4F99DEAC01BE016F5E56
:101370007E4F83EE93E00E948B01C95EDD4F0FB676
:10138000F894DEBF0FBECDBFDF91CF910F910895CE
:101390000F93CF93DF93CDB7DEB7C751D2400FB6CF
:1013A000F894DEBF0FBECDBF81E190E0A0E0B0E0D9
:1013B00089879A87AB87BC8781E08D878E878BE092
:1013C000888709E526E042E364E6CE0101969FDACC
:1013D000BE016F5F7F4FCE018F5E9E4F5FDEAC011F
:1013E000BE016F5E7E4F83EE93E00E948B01C95E6B
:1013F000DD4F0FB6F894DEBF0FBECDBFDF91CF91AA
:101400000F910895CF93DF9351DD01978B32914077
:1014100060F44CDDEC0101978B32914030F4B8DF81
:1014200081E08093E103CE0104C01092E10380E0EB
:1014300090E0DF91CF910895FB012081822790E118
:10144000899F900111242827822F90E0582F44274C
:101450009C0163E0220F331F6A95E1F7422753276F
:10146000218130E02427352774E0959587957A957A
:10147000E1F782279327918380830895AF92BF92EB
:10148000CF92DF92EF92FF920F931F93CF93DF9350
:101490001F92CDB7DEB77C015B016901DB011C92B5
:1014A00013962D913C9114972B30310508F0C0C054
:1014B000F9018827EE58FF4F8F4F0C9486134E3F4B
:1014C00009F0B6C082E090E0FB0194838383D701EA
:1014D00013961C92139712964C9312978FEF9FEFCF
:1014E0008D939C93A5C0F7014383DB0115961C9255
:1014F000B701842FA1DF84E090E02FC0D7011496BC
:101500004C93B701842F98DF83E090E026C0D70189
:1015100015964C93B701842F8FDF85E090E01DC0B6
:10152000D70116964C93B701842F86DF86E090E0B2
:1015300014C0D70117964C93B701842F7DDFF701B4
:101540008381811108C088E090E0D50114969C93B6
:101550008E9313976DC087E090E0F50194838383A9
:1015600067C0DB0115968C91159791E0980F159641
:101570009C93F701E80FF11D4087B701842F5CDFD2
:10158000F5019581D70113968C91981351C0DBCF4B
:10159000D7011796EC91F0E0EE5EFD4FB701808128
:1015A00049834ADF4981242F30E0F701808191810E
:1015B00099272817390741F08AE090E0D501149661
:1015C0009C938E93139705C089E090E0F501948376
:1015D0008383D50115968C91F701E80FF11D4087A3
:1015E00027C02A30310541F0242F30E0F7018181F6
:1015F00090E02817390721F082E0D5018C9303C0D1
:1016000081E0FB01808381E090E0D50114969C93FA
:101610008E93139715968C91F701E80FF11D418772
:1016200080E191E0F701D60101900D920197E1F779
:10163000F5018081813071F4D70114968C918683F5
:1016400080859185009711F4138612860196F50125
:1016500091878087D70113968C91F6018383D501FA
:1016600013968D919C911497F8019483838315961A
:101670008C911597858316968C9116978F5F86832C
:1016800018968D919C9119979187808712968C91CD
:10169000129790E09387828712961C9212978C91F2
:1016A0008230B9F4F8E0EF0EF11C15968C91F70139
:1016B000E80FF11D8181082E000C990B982F8827C7
:1016C0002081022E000C330B822B932BD6018D939D
:1016D0009C93F50180810F90DF91CF911F910F9125
:1016E000FF90EF90DF90CF90BF90AF9008956F92F2
:1016F0007F928F929F92AF92BF92CF92DF92EF92A2
:10170000FF920F931F93CF93DF93CDB7DEB7C552F0
:10171000D1400FB6F894DEBF0FBECDBF7E0183EE81
:10172000E81A8EEFF80A89E0782ECC24C394D12CE5
:1017300022E0A22EB12C88248A94982C83EE93E088
:101740000E940402181619060CF082C083EE93E082
:101750000E94E201682E8E010F5E1E4F9E012F5FD8
:101760003F4F482F68E973E08BE295E087DE8230D7
:10177000A9F490919A039F5F90939A031092980313
:10178000EEEF6E1260C0B0929C03A0929B03109289
:101790002E0590922C0580922B05D0CF882371F2D4
:1017A00088858823F9F08A3249F64C81433008F065
:1017B00042E0F7011182108250E0BE01675F7F4F67
:1017C000C701B0D7F701808191819093CD038093B9
:1017D000CC0388E693E00E9415036091CC037091DE
:1017E000CD0327C04C814A3008F049E0F701872D2E
:1017F00011928A95E9F750E0BE01675F7F4FC701FC
:1018000091D78E818F3F09F499CF80932A058F81DC
:1018100080932905F70180818093E20383E893E0B8
:101820000E9415038DE893E00E9415036091E20386
:1018300070E080E090E04AE00E94210382E193E0C2
:101840000E9404037BCFD0929C03C0929B0376CF6F
:10185000CB5DDE4F0FB6F894DEBF0FBECDBFDF917C
:10186000CF911F910F91FF90EF90DF90CF90BF909D
:10187000AF909F908F907F906F9008955F926F923E
:101880007F928F929F92AF92BF92CF92DF92EF9210
:10189000FF920F931F93CF93DF93CDB7DEB7C8535B
:1018A000D1400FB6F894DEBF0FBECDBF7E018FEEE4
:1018B000E81A8EEFF80A8CE1782E66246394CC2423
:1018C000C394D12C22E0A22EB12C88248A94982C87
:1018D00083EE93E00E940402181619060CF063C010
:1018E00083EE93E00E94E201582E8E01035D1E4FAD
:1018F0009E012F5F3F4F482F68E973E08BE295E030
:10190000BDDD8230A9F490919A039F5F90939A0372
:1019100010929803EEEF5E1241C0B0929C03A09229
:101920009B0310922E0590922C0580922B05D0CF10
:10193000882371F28885813259F64C814D3108F047
:101940004CE1F701872D11928A95E9F750E0BE012D
:10195000675F7F4FC701E6D6F70184819581A68135
:10196000B7818093DD039093DE03A093DF03B093F0
:10197000E00380859185A285B3858093D9039093F8
:10198000DA03A093DB03B093DC03828D938D9093F5
:10199000D8038093D7036092D6039ACFD0929C034A
:1019A000C0929B0395CFC85CDE4F0FB6F894DEBFA4
:1019B0000FBECDBFDF91CF911F910F91FF90EF90A0
:1019C000DF90CF90BF90AF909F908F907F906F905F
:1019D0005F900895CF92DF92EF92FF920F931F9343
:1019E000E82FF92F05C0015011092109310961F1D2
:1019F000908196239417B9F305C00150110921096C
:101A0000310911F1908196239413F7CFC12CD12C79
:101A1000E12CF12C0AC08FEFC81AD80AE80AF80A9C
:101A20000C151D052E053F0579F08081862384174E
:101A300091F36C2D7D2D8E2D9F2D1F910F91FF9079
:101A4000EF90DF90CF90089560E070E080E090E04C
:101A50001F910F91FF90EF90DF90CF900895E3EEEC
:101A6000F3E01382128248EE53E060E070E04483BA
:101A700055836683778384E092E0918380832DECA5
:101A800030E0358724872CEC30E03787268728EC38
:101A900030E0318B208B29EC30E0338B228B2AEC29
:101AA00030E0358B248B2EEC30E0378B268B118E7B
:101AB000128E138E148EE0E8F4E0138212824483B7
:101AC0005583668377839183808385EC90E0958747
:101AD000848784EC90E09787868780EC90E0918BF8
:101AE000808B81EC90E0938B828B82EC90E0958BE5
:101AF000848B86EC90E0978B868B118E128E138EE2
:101B0000148E0895CF93DF93CDB7DEB72C970FB621
:101B1000F894DEBF0FBECDBF789484B5826084BDDB
:101B200084B5816084BD85B5826085BD85B58160E1
:101B300085BD80916E00816080936E00109281005F
:101B4000809181008260809381008091810081601A
:101B500080938100809180008160809380008091DB
:101B6000B10084608093B1008091B0008160809367
:101B7000B0008091910082608093910080919100EB
:101B800081608093910080919000816080939000AB
:101B90008091A10082608093A1008091A10081606A
:101BA0008093A1008091A00081608093A00080912B
:101BB00021018260809321018091210181608093C5
:101BC00021018091200181608093200180917A0021
:101BD000846080937A0080917A00826080937A009A
:101BE00080917A00816080937A0080917A00806889
:101BF00080937A001092C10083EE93E00E9461010D
:101C000080E894E00E94610122242394312C809189
:101C1000240581110BC00E94C1050E9495050E94F8
:101C200069050E943D0581E08093240560DD809177
:101C3000E203863039F080912205909123050197C7
:101C400009F057C030922305209222058091220589
:101C500090912305019709F04CC0D4DB2091E1035A
:101C60002223A1F389879A8793DB68E573E089854E
:101C70009A8560DA60ED77E080E090E00E940504EC
:101C8000E2D91092E10382E090E0909323058093E3
:101C90002205DCCF8091D9039091DA03A091DB0378
:101CA000B091DC03892B8A2B8B2B19F58091D703FC
:101CB0009091D803892BE9F48091D603811119C042
:101CC000DDDD8091DD039091DE03A091DF03B09113
:101CD000E003892B8A2B8B2BA9F48091DD03909153
:101CE000DE03A091DF03B091E003892B8A2B8B2BBD
:101CF00089F28091220590912305029709F068C12D
:101D0000EDD9EBCF8091D9039091DA03A091DB0359
:101D1000B091DC03892B8A2B8B2BF9F28091D703AE
:101D20009091D803892BC9F28091D6038823A9F218
:101D30000E94ED056091DD037091DE038091DF0369
:101D40009091E0039DD220E836E948E15BE42ED291
:101D50006B017C016091D9037091DA038091DB0300
:101D60009091DC038DD220E836E948E15BE41ED295
:101D70006D837E838F8398876091D7037091D8039A
:101D800080E090E07BD220E030E048EC52E40ED2DC
:101D900020E030E048EC52E425D14B015C0120E02A
:101DA00030E044EB53E4A6D387FD09C020E030E0E7
:101DB00044EB53E4C501B40114D14B015C012BED9C
:101DC0003FE049E450E4C701B6019FD320E030E092
:101DD00044E353E4EBD16B017C012BED3FE049E49C
:101DE00050E4C501B40191D320E030E044E353E472
:101DF000DDD12B013C01C701B601EAD34B015C01E7
:101E0000C701B601D0D169837A838B839C83C301D8
:101E1000B201C9D16B017C0123EC3DEC4CEF54E3E2
:101E200069817A818B819C8170D3A70196016DD3E2
:101E30009B01AC01C501B401D5D038D16B017C0147
:101E4000C7D39B01AC01C301B20129873A874B87F5
:101E50005C87BED32B013C0129853A854B855C8587
:101E6000C501B40152D39B01AC0160E070E080E891
:101E70009FE3B7D04B015C0123EC3DEC4CEF54E306
:101E8000C301B20142D329813A814B815C813DD3A8
:101E9000A501940131D14B015C0120E030E044E325
:101EA00053E4C701B60131D32BED3FE049E450E4E0
:101EB0007DD16B017C016093D2037093D303809337
:101EC000D4039093D5032BED3FE049E450E46D81BA
:101ED0007E818F81988519D320E030E044E353E47C
:101EE00065D1A50194017ED020E030E044E353E4C5
:101EF0000CD32BED3FE049E450E458D14B015C0199
:101F00006093CE037093CF038093D0039093D1035B
:101F100020E030E0A901C701B60141D1882309F4CE
:101F2000DCCE20E030E0A901C501B40138D188231E
:101F300009F4D3CE70D90E94190600E010E0A50183
:101F40009401C701B6010E944E0601E010E0A50110
:101F50009401C701B6010E944E06A5019401C70174
:101F6000B6010E94A70688D90E94000760ED77E0BD
:101F700080E090E00E94050483E090E090932305C8
:101F800080932205AACE3EDA2091E103222399F024
:101F900060E673E0CFD8FCD960ED77E080E090E0B8
:101FA0000E94050450D81092E10382E090E09093E3
:101FB0002305809322059BDB8091CC039091CD0378
:101FC000029731F440D891D930922305209222050E
:101FD00080912205909123050397A9F20E94AA02FD
:101FE00016CE5058BB27AA270ED039C202D230F0E5
:101FF00007D220F031F49F3F11F41EF4C1C10EF45A
:10200000E095E7FBB7C1E92F4CD280F3BA1762071E
:1020100073078407950718F071F49EF564C20EF4F7
:10202000E0950B2EBA2FA02D0B01B90190010C01E8
:10203000CA01A0011124FF27591B99F0593F50F400
:10204000503E68F11A16F040A22F232F342F442758
:10205000585FF3CF469537952795A795F040539550
:10206000C9F77EF41F16BA0B620B730B840BBAF020
:102070009150A1F0FF0FBB1F661F771F881FC2F78B
:102080000EC0BA0F621F731F841F48F4879577959F
:102090006795B795F7959E3F08F0B3CF9395880F56
:1020A00008F09927EE0F9795879508959F939F774E
:1020B000EEE389379E0720F4EAEFF0E089D109C00A
:1020C0001AD19058A2EA2AED3FE049EC5FE39BDF8A
:1020D000C6D10F9007FC905808958BD158F080E836
:1020E00091E009F49EEF8CD128F040E851E059F4DA
:1020F0005EEF09C045C1F7C1E92FE078D2D168F39E
:10210000092E052AC1F3261737074807590738F063
:102110000E2E07F8E02569F0E025E0640AC0EF63C1
:1021200007F8009407FADB01B9019D01DC01CA013F
:10213000AD01EF934AD093D10AD05F91552331F08E
:102140002BED3FE049E450FD49EC4CCF0895DF937F
:10215000DD27B92FBF7740E85FE31616170648075B
:102160005B0710F4D92FCAD19F938F937F936F93FE
:1021700077D2EEE0F1E007D172D12F913F914F91EC
:102180005F91CFD1DD2349F09058A2EA2AED3FE0DC
:1021900049EC5FE3D0785D2736DFDF9160C1C6D0C0
:1021A00008F481E0089534D1E3956AC10CD057C199
:1021B00027D140F01ED130F021F45F3F19F0DAC092
:1021C000511192C1DDC06DD198F39923C9F3552304
:1021D000B1F3951B550BBB27AA276217730784071A
:1021E00038F09F5F5F4F220F331F441FAA1FA9F3D0
:1021F00033D00E2E3AF0E0E830D091505040E695C2
:10220000001CCAF729D0FE2F27D0660F771F881F22
:10221000BB1F261737074807AB07B0E809F0BB0B11
:10222000802DBF01FF2793585F4F2AF09E3F510535
:1022300068F0A0C059C15F3FECF3983EDCF386958F
:1022400077956795B795F7959F5FC9F7880F911DAB
:102250009695879597F90895E1E0660F771F881F97
:10226000BB1F621773078407BA0720F0621B730B4A
:10227000840BBA0BEE1F88F7E0950895E89409C027
:1022800097FB3EF490958095709561957F4F8F4FA9
:102290009F4F9923A9F0F92F96E9BB279395F695BF
:1022A000879577956795B795F111F8CFFAF4BB0F3D
:1022B00011F460FF1BC06F5F7F4F8F4F9F4F16C0A1
:1022C000882311F096E911C0772321F09EE8872F2B
:1022D000762F05C0662371F096E8862F70E060E0E7
:1022E0002AF09A95660F771F881FDAF7880F969560
:1022F000879597F90895DF93CF931F930F938B01E1
:10230000EC01EBE3F1E03FD0AAD09801AE018B01E4
:10231000EC0160E070E080E89FE363DE63D1980148
:10232000AE010F911F91CF91DF91FBC0990F000873
:10233000550FAA0BE0E8FEEF16161706E807F90797
:10234000C0F012161306E407F50798F0621B730B32
:10235000840B950B39F40A2661F0232B242B252BB3
:1023600021F408950A2609F4A140A6958FEF811D56
:10237000811D089597F99F6780E870E060E00895F7
:102380009FEF80EC0895DF93CF931F930F93FF92FD
:10239000EF92DF927B018C01689405C0DA2EEF0189
:1023A000C0D0FE01E894A5912591359145915591B4
:1023B000AEF3EF0128DEFE019701A801DA9479F768
:1023C000DF90EF90FF900F911F91CF91DF910895D3
:1023D0009F938F937F936F93FF93EF939B01AC0138
:1023E00094D0EF91FF91CFDF2F913F914F915F916B
:1023F0008CC000240A9416161706180609060895BC
:1024000000240A9412161306140605060895B8CF80
:1024100050D0E8F3E894E0E0BB279F57F0F02AEDB6
:102420003FE049EC06C0EE0FBB0F661F771F881F09
:1024300028F0B23A62077307840728F0B25A620B99
:10244000730B840BE3959A9572F7803830F49A9564
:10245000BB0F661F771F881FD2F7904806C1092E51
:102460000394000C11F4882352F0BB0F40F4BF2BEF
:1024700011F460FF04C06F5F7F4F8F4F9F4F08952F
:10248000EF93E0FF06C0A2EA2AED3FE049EC5FEBE4
:10249000BADDE5DF0F90039401FC9058E3E6F1E02C
:1024A00097CF57FD9058440F551F59F05F3F71F07B
:1024B0004795880F97FB991F61F09F3F79F08795AB
:1024C0000895121613061406551FF2CF4695F1DF34
:1024D00008C0161617061806991FF1CF86957105C4
:1024E000610508940895E894BB2766277727CB01F8
:1024F00097F908951BDF08F48FEF08959B01AC0155
:1025000060E070E080E89FE351CE0BD0A8CF71DF90
:1025100028F076DF18F0952309F02CCF31CF112465
:10252000E3CFBFDFA0F3959FD1F3950F50E0551F88
:10253000629FF001729FBB27F00DB11D639FAA2718
:10254000F00DB11DAA1F649F6627B00DA11D661F67
:10255000829F2227B00DA11D621F739FB00DA11D88
:10256000621F839FA00D611D221F749F3327A00D42
:10257000611D231F849F600D211D822F762F6A2FDE
:1025800011249F5750408AF0E1F088234AF0EE0F63
:10259000FF1FBB1F661F771F881F91505040A9F770
:1025A0009E3F510570F0E6CE9FCF5F3FECF3983E23
:1025B000DCF3869577956795B795F795E7959F5FD7
:1025C000C1F7FE2B880F911D9695879597F9089571
:1025D0009F931EDF0F9007FCEE5F52CF11F40EF4B5
:1025E000CFCE41C066DFD0F39923D9F3CEF39F5706
:1025F000550B87FF46D00024A0E640EA90018058A2
:102600005695979528F4805C660F771F881F20F0F9
:1026100026173707480730F4621B730B840B2029F9
:1026200031294A2BA69517940794202531254A274E
:1026300058F7660F771F881F20F0261737074807BF
:1026400030F4620B730B840B200D311D411DA095DE
:1026500081F7B901842F9158880F96958795089531
:102660009B01AC0152CF9F3F31F0915020F48795F0
:1026700077956795B795880F911D9695879597F9EA
:10268000089591505040660F771F881FD2F7089524
:10269000A1E21A2EAA1BBB1BFD010DC0AA1FBB1F66
:1026A000EE1FFF1FA217B307E407F50720F0A21BD8
:1026B000B30BE40BF50B661F771F881F991F1A9445
:1026C00069F760957095809590959B01AC01BD016F
:1026D000CF010895052E97FB16F400940FD057FDF7
:1026E00005D0D6DF07FC02D046F408C050954095CF
:1026F000309521953F4F4F4F5F4F089590958095AE
:10270000709561957F4F8F4F9F4F0895EE0FFF1F7C
:10271000881F8BBF0790F691E02D199481E090E01F
:10272000F89409C0FB01DC0102C001900D924150F8
:0A2730005040D8F70895F894FFCF49
:10273A000000000043028B01D30189020402E20176
:10274A00F601327C8900EDD9687700000059000053
:10275A00000000000000D69FDCA81817AA90437357
:10276A0027F6B968EDF4DED409FEE61C1C84DDE820
:10277A000B9929274EC400000F030000000000A790
:10278A00B777BF76941500F37C000026149E988FC5
:10279A000000006A31168F8C059600E7B73F362F86
:1027AA00000000000000AF669ED0385D8A6C20B938
:1027BA005422AE7CED044C80387486EDCBFA57CBAC
:1027CA00DC19E22E1DDF5506E5CB01C36DA8B52F36
:1027DA0048837F00679AB2C800000000000000002A
:1027EA0000000000000000000000000000000000DF
:1027FA0000000000000000000000000000000000CF
:10280A0000000000000000000000000000000000BE
:10281A0000000000000000000000000000000000AE
:10282A000000000000000000A36997239600000042
:10283A000000005A68555F82B85108CC31AA2C535F
:10284A002E000D0A0057504E41565F5241444955D9
:10285A00530057504E41565F535045454400575018
:10286A005F5941575F4245484156494F52005352BA
:10287A00315F4558545F53544154005352315F50AD
:10288A004F534954494F4E005354315F45535400F6
:10289A005354335F4553540043757272656E742006
:1028AA004D697373696F6E2053657175656E6365E3
:1028BA003A2000686561727462656174004D6F64E4
:0828CA00652069733A2000004B
:00000001FF
