:100000002EC100005DC100005BC1000059C10000AD
:1000100057C1000055C1000053C1000051C100008C
:100020004FC100004DC100004BC1000049C100009C
:1000300047C100000C94790C43C1000041C100008D
:100040003FC100003DC100003BC1000039C10000BC
:1000500037C1000035C1000033C100000C942F0CE3
:100060002FC100000C94E10B0C94B80B29C10000C7
:1000700027C1000025C1000023C1000021C10000EC
:100080001FC100001DC100001BC1000019C10000FC
:100090000C948F0B0C94660B13C1000011C100006F
:1000A0000FC100000DC100000BC1000009C100001C
:1000B00007C1000005C1000003C1000001C100002C
:1000C000FFC00000FDC00000FBC00000F9C0000040
:1000D000F7C00000F5C00000F3C00000F1C0000050
:1000E000EFC00000760776078A079E079507AB07E3
:1000F000B407C807DD0702080208036EDB363D9A25
:100100009999993DABAAAA2A3E000000803F084A6F
:10011000D73B3BCE016E84BCBFFDC12F3D6C74311B
:100120009ABD56833DDA3D00C77F11BED9E4BB4C72
:100130003E916BAAAABE000000803F072C7AA5BAA8
:100140006CC590DA3B9365FC8BBC53F810FD3C56B4
:1001500092834DBD879D3AB63DCBC9BF5BBE73DA76
:100160000FC93F05A84CCDB2D44EB93836A9020C00
:1001700050B9918688083CA6AAAA2ABE0000008031
:100180003F0000002100240027002A002D0030003D
:10019000330001010000040107010A0100002000F2
:1001A0002300260029002C002F003200000100004F
:1001B00003010601090100002200250028002B0090
:1001C0002E003100340002010000050108010B017E
:1001D00005050505070508080808020202020A0AC3
:1001E00008080404040401010101010101010303E1
:1001F000030303030303040707070C0C0C0C0C0C8C
:100200000C0C0202020206060606060606060B0B88
:100210000B0B0B0B0B0B01021020200808102040C9
:1002200010204080020102010804020101020408BA
:100230001020408080402010080402018004020148
:100240008040201008040201080402010102040891
:100250001020408001020408102040808D151124D8
:100260001FBECFEFD1E2DEBFCDBF00E00CBF15E077
:10027000A0E0B2E0E8E1F4E300E00BBF02C00790C9
:100280000D92A232B107D9F72BE0A2E2B5E001C08E
:100290001D92A232B207E1F711E0CFE2D1E000E017
:1002A00006C021970109802FFE010E94F519CE3268
:1002B000D10780E00807A9F70E946F110C940A1A71
:1002C0009FCEE091BA09E1110FC0672B682B692B13
:1002D00041F0232B242B252B21F081E08093BA09B8
:1002E00008951092BA090895E091AB09E1110EC08A
:1002F000672B682B692B41F0232B242B252B21F016
:1003000081E08093AB0908951092AB090895109293
:10031000CE091092C4091092AB091092BA0910923A
:10032000A8091092C3091092BB091092BC0910923F
:10033000BD091092BE091092BF091092C009109217
:10034000C1091092C2091092B4091092B509109215
:10035000B6091092B7091092B9091092B809109213
:10036000AA091092A90910926609109267091092C1
:100370006809109269091092AC091092AD091092A7
:10038000AE091092AF091092B0091092B109109203
:10039000B2091092B3091092A0091092A10910920B
:1003A000A2091092A3091092A4091092A509109213
:1003B000A6091092A70908950F931F93CF93DF9377
:1003C0008C01EB014B8150E04A5F5F4F6E5F7F4FC6
:1003D0000E94011A9B81E92FF0E03696E00FF11F91
:1003E00088818083898181838B8190E00896DF9169
:1003F000CF911F910F9108950F93CF93DF93CDB7B6
:10040000DEB7C751D2400FB6F894DEBF0FBECDBFE6
:1004100019861A861B861C861D861E861F86188ACC
:10042000198A1A8A1B8A1C8A1D8A1E8A1F8A188E9C
:10043000198E1A8E1B8E1C8E1D8E1E8E1F8E18A25C
:1004400019A21AA21BA21CA28AE991E09EA38DA365
:1004500081E08FA318A619A68CE4888708E921E219
:1004600042E364E6CE0101960E94A40CBE016F5FD8
:100470007F4FCE018F5E9E4F9FDFAC01BE016F5E4E
:100480007E4F86ED99E00E94250DC95EDD4F0FB6C7
:10049000F894DEBF0FBECDBFDF91CF910F910895CD
:1004A000EF92FF920F931F93CF93DF93CDB7DEB7F9
:1004B000C751D2400FB6F894DEBF0FBECDBFE12CBE
:1004C000F12C08E413E424E133E0AE014F5F5F4F09
:1004D00062E384E60E94520DBE016F5F7F4FCE0142
:1004E0008F5E9E4F69DFAC01BE016F5E7E4F86ED71
:1004F00099E00E94250DC95EDD4F0FB6F894DEBF6E
:100500000FBECDBFDF91CF911F910F91FF90EF9064
:100510000895EF92FF920F931F93CF93DF93CDB780
:10052000DEB7C751D2400FB6F894DEBF0FBECDBFC5
:10053000E12CF12C00E81FE320E233E0AE014F5F35
:100540005F4F62E384E60E94520DBE016F5F7F4FF2
:10055000CE018F5E9E4F30DFAC01BE016F5E7E4FDD
:1005600086ED99E00E94250DC95EDD4F0FB6F89427
:10057000DEBF0FBECDBFDF91CF911F910F91FF90D6
:10058000EF900895EF92FF920F931F93CF93DF9315
:10059000CDB7DEB7C751D2400FB6F894DEBF0FBE5D
:1005A000CDBFE12CF12C08EC12E420E333E0AE01E6
:1005B0004F5F5F4F62E384E60E94520DBE016F5FA2
:1005C0007F4FCE018F5E9E4FF7DEAC01BE016F5EA6
:1005D0007E4F86ED99E00E94250DC95EDD4F0FB676
:1005E000F894DEBF0FBECDBFDF91CF911F910F9169
:1005F000FF90EF900895EF92FF920F931F93CF9388
:10060000DF93CDB7DEB7C751D2400FB6F894DEBF47
:100610000FBECDBFE12CF12C00E211E42DE333E05D
:10062000AE014F5F5F4F62E384E60E94520DBE0150
:100630006F5F7F4FCE018F5E9E4FBEDEAC01BE016D
:100640006F5E7E4F86ED99E00E94250DC95EDD4FFD
:100650000FB6F894DEBF0FBECDBFDF91CF911F91D3
:100660000F91FF90EF9008950F93CF93DF93CDB745
:10067000DEB7C751D2400FB6F894DEBF0FBECDBF74
:1006800019861A861B861C861D861E861F86188A5A
:10069000198A1A8A1B8A1C8A1D8A1E8A1F8A188E2A
:1006A000198E1A8E1B8E1C8E1D8E1E8E1F8E18A2EA
:1006B00019A21AA21BA21CA284E190E09EA38DA302
:1006C00081E08FA318A619A68CE4888708E921E2A7
:1006D00042E364E6CE0101960E94A40CBE016F5F66
:1006E0007F4FCE018F5E9E4F67DEAC01BE016F5E15
:1006F0007E4F86ED99E00E94250DC95EDD4F0FB655
:10070000F894DEBF0FBECDBFDF91CF910F9108955A
:100710000F931F93CF93DF93CDB7DEB7C751D2406E
:100720000FB6F894DEBF0FBECDBF8B01BC0180E0D9
:1007300090E00E949E1769877A878B879C871D8629
:100740001E861F86188A198A1A8A1B8A1C8A1D8A85
:100750001E8A1F8A188E198E1A8E1B8E1C8E1D8E55
:100760001E8E1F8E18A219A21AA21BA21CA21EA3C3
:100770000DA380E790E098A78FA381E089A71AA630
:100780001BA61CA68DA787E288870EEF25E242E311
:1007900064E6CE0101960E94A40CBE016F5F7F4FFC
:1007A000CE018F5E9E4F08DEAC01BE016F5E7E4FB4
:1007B00086ED99E00E94250DC95EDD4F0FB6F894D5
:1007C000DEBF0FBECDBFDF91CF911F910F91089576
:1007D0000F93CF93DF93CDB7DEB7C751D2400FB69B
:1007E000F894DEBF0FBECDBF85E090E0A0E0B0E0A2
:1007F00089879A87AB87BC8781E08D878E878BE05E
:10080000888709E526E042E364E6CE0101960E946E
:10081000A40CBE016F5F7F4FCE018F5E9E4FCCDD7B
:10082000AC01BE016F5E7E4F86ED99E00E94250D02
:10083000C95EDD4F0FB6F894DEBF0FBECDBFDF91AE
:10084000CF910F9108950F93CF93DF93CDB7DEB77C
:10085000C751D2400FB6F894DEBF0FBECDBF83E0C4
:1008600090E0A0E0B0E089879A87AB87BC8781E001
:100870008D878E878BE0888709E526E042E364E672
:10088000CE0101960E94A40CBE016F5F7F4FCE0186
:100890008F5E9E4F91DDAC01BE016F5E7E4F86ED97
:1008A00099E00E94250DC95EDD4F0FB6F894DEBFBA
:1008B0000FBECDBFDF91CF910F9108950F93CF93CE
:1008C000DF93CDB7DEB7C751D2400FB6F894DEBF85
:1008D0000FBECDBF81E190E0A0E0B0E089879A87AC
:1008E000AB87BC8781E08D878E878BE0888709E5A1
:1008F00026E042E364E6CE0101960E94A40CBE010C
:100900006F5F7F4FCE018F5E9E4F56DDAC01BE0103
:100910006F5E7E4F86ED99E00E94250DC95EDD4F2A
:100920000FB6F894DEBF0FBECDBFDF91CF910F9110
:1009300008950F93CF93DF93CDB7DEB7C751D24061
:100940000FB6F894DEBF0FBECDBF69877A878B875D
:100950009C871D861E861F86188A80E090E0A0E88E
:10096000BFEB898B9A8BAB8BBC8B80E090E0A0E8CF
:10097000BFE38D8B9E8BAF8BB88F198E1A8E1B8E1B
:100980001C8E1D8E1E8E1F8E18A219A21AA21BA2CB
:100990001CA25EA34DA383E790E098A78FA381E0FC
:1009A00089A71AA61BA68CA71DA687E288870EEF2B
:1009B00025E242E364E6CE010196C6D7BE016F5F31
:1009C0007F4FCE018F5E9E4FF7DCAC01BE016F5EA4
:1009D0007E4F86ED99E00E94250DC95EDD4F0FB672
:1009E000F894DEBF0FBECDBFDF91CF910F91089578
:1009F0000F93CF93DF93CDB7DEB7C751D2400FB679
:100A0000F894DEBF0FBECDBF9A87898781E08B87C0
:100A10001C868CE288870DED24E042E364E6CE017B
:100A2000019692D7BE016F5F7F4FCE018F5E9E4FC2
:100A3000C3DCAC01BE016F5E7E4F86ED99E00E9483
:100A4000250DC95EDD4F0FB6F894DEBF0FBECDBFDA
:100A5000DF91CF910F9108950F93CF93DF93CDB78F
:100A6000DEB7C751D2400FB6F894DEBF0FBECDBF80
:100A700081E089871A868DE2888708EE22E042E3CA
:100A800064E6CE01019660D7BE016F5F7F4FCE0155
:100A90008F5E9E4F91DCAC01BE016F5E7E4F86ED96
:100AA00099E0D3D7C95EDD4F0FB6F894DEBF0FBE15
:100AB000CDBFDF91CF910F9108950F93CF93DF9327
:100AC000CDB7DEB7C751D2400FB6F894DEBF0FBE28
:100AD000CDBF19861A861B861C861D861E861F861C
:100AE000188A198A1A8A1B8A1C8A1D8A1E8A1F8ADA
:100AF000188E198E1A8E1B8E1C8E1D8E1E8E1F8EAA
:100B000018A219A21AA21BA21CA28CE291E09EA319
:100B10008DA381E08FA318A619A68CE4888708E925
:100B200021E242E364E6CE0101960ED7BE016F5F7B
:100B30007F4FCE018F5E9E4F3FDCAC01BE016F5EEA
:100B40007E4F86ED99E081D7C95EDD4F0FB6F894F0
:100B5000DEBF0FBECDBFDF91CF910F9108950F93F0
:100B60001F93CF93DF93CDB7DEB7C751D2400FB6F7
:100B7000F894DEBF0FBECDBFEFB7F89400919C098B
:100B800010919D0920919E0930919F09EFBFCF5E82
:100B9000DE4F088319832A833B83C151D140CB5E4A
:100BA000DE4F688379838A839B83C551D1408AE075
:100BB0004115510551F4E1E1F1E0EC0FFD1F3896CC
:100BC000DF011D928A95E9F70AC0FA01A1E1B1E0BF
:100BD000AC0FBD1F189601900D928A95E1F782E146
:100BE000FE01EF5EFE4FDE01199601900D928A958F
:100BF000E1F78BEF88870AEA22E140E061E0CE016D
:100C00000196A2D6BE016F5F7F4FCE018F5E9E4FD1
:100C1000D3DBAC01BE016F5E7E4F86ED99E015D748
:100C2000C95EDD4F0FB6F894DEBF0FBECDBFDF91BA
:100C3000CF911F910F910895CF92DF92EF92FF9283
:100C4000CF93DF93EC0184E60E942D0F603325E7FC
:100C50007207810591050CF50E94A01720E030E095
:100C6000A9010E94DA181816C4F484E60E942D0F18
:100C7000603325E7720781059105DCF40E94A01717
:100C80006B017C0120E030E0A9010E94DA181816FF
:100C900084F4AE01C701B60105C0AE0160E070E6A4
:100CA0008AEE96E4DF91CF91FF90EF90DF90CF90A6
:100CB00056CFDF91CF91FF90EF90DF90CF900895C6
:100CC000CF92DF92EF92FF92CF93DF93EC0185E01A
:100CD0000E942D0F603325E77207810591050CF501
:100CE0000E94A01720E030E0A9010E94DA1818162F
:100CF000C4F485E00E942D0F603325E7720781055B
:100D00009105DCF40E94A0176B017C0120E030E02B
:100D1000A9010E94DA18181684F4AE01C701B601C1
:100D200005C0AE0160E070E68AEE96E4DF91CF91F7
:100D3000FF90EF90DF90CF9012CFDF91CF91FF9097
:100D4000EF90DF90CF9008954F925F926F927F92D5
:100D50008F929F92AF92BF92CF92DF92EF92FF92CB
:100D60003C0185E00E942D0F6B017C010E94A017C1
:100D70004B015C01A301F3DE88E9C8168AE3D806BB
:100D8000E104F1041CF080E090E040C020E030E09D
:100D9000A901C501B4010E94DA181816A4F785E06C
:100DA0000E942D0F2B013C0180E3481685E7580671
:100DB0006104710444F7C301B2010E94A0174B0102
:100DC0005C0120E030E0A9010E94DA181816DCF678
:100DD00075DD8AE493E05BD7C701B6014CD789E59E
:100DE00093E055D7C301B20146D788E693E04FD7C9
:100DF000C701B60164197509860997093CD74AE706
:100E000053E0C501B401ABDE81E090E0FF90EF90CC
:100E1000DF90CF90BF90AF909F908F907F906F901A
:100E20005F904F900895FB012081822790E1899F78
:100E3000900111242827822F90E0582F44279C01ED
:100E400063E0220F331F6A95E1F742275327218180
:100E500030E02427352774E0959587957A95E1F75A
:100E6000822793279183808308952F923F924F92F8
:100E70005F926F927F928F929F92AF92BF92CF922A
:100E8000DF92EF92FF920F931F93CF93DF93CDB733
:100E9000DEB7C454D1400FB6F894DEBF0FBECDBF4D
:100EA00088248394912C4AE0A42EB12C8E010F5EED
:100EB0001E4F86ED99E031D3181619060CF0C5C205
:100EC00086ED99E008D36C01F82E10926C09209100
:100ED0006F09309170092B30310508F0B7C0F90166
:100EE0008827EE58FF4F8F4F0C94F5198EEFC812DC
:100EF000ADC082E090E09093700980936F091092EA
:100F00002905C09228058FEF9FEF909327058093C6
:100F100026059CC0C09229051092710966E275E011
:100F20008C2D81DFE4E0F0E011C0C0922A0566E27A
:100F300075E08C2D78DF83E090E025C0C0922B0512
:100F400066E275E08C2D6FDFE5E0F0E0F09370096C
:100F5000E0936F097BC0C0922C0566E275E08C2D92
:100F600062DF86E090E00FC0C0922D0566E275E07A
:100F70008C2D59DF80912905811103C0E8E0F0E054
:100F8000E5CF87E090E09093700980936F095EC091
:100F9000E091710981E08E0F80937109F0E0E25DCC
:100FA000FA4FC08266E275E08C2D3DDF90917109A9
:100FB0008091290598134AC0E1CFE0912D05F0E01A
:100FC000E050FE4F66E275E080812DDF80912605BE
:100FD000909127059927960133272817390729F07B
:100FE000B0927009A0926F0906C0E9E0F0E0F093BA
:100FF0007009E0936F09E0917109F0E0E25DFA4F4A
:10100000C08224C02A30310541F020902705312CC0
:10101000C60199278215930511F082E001C081E095
:1010200080936C099092700980926F09E091710928
:10103000F0E0E15DFA4FC082E6E2F5E0DE011196F4
:1010400080E191E001900D920197E1F720916C0908
:10105000213099F480912A05809372098091740956
:1010600090917509009721F41092770910927609F2
:1010700001969093750980937409809129058C835A
:101080008091710910926E09223091F590E0FC0177
:10109000E15DFA4F4081042E000C550B542F44277C
:1010A000FC01E25DFA4F2081022E000C330BCA01D5
:1010B000822B932B9A83898381E080936E0910920F
:1010C0006C09FEEFFF120FC082E090E09093700970
:1010D00080936F09109229058FEF9FEF909327055A
:1010E00080932605E6CE9092700980926F09E1CE3A
:1010F000222309F4DECE86EA93E0A3D680E893E0CB
:10110000C6D5688570E080E090E04AE04DD58AE879
:1011100093E039D588858A32B9F138F4882309F407
:1011200050C0813209F47BC0C4CE823F21F08C3F95
:1011300009F471C1BECE4C81453308F044E384E329
:10114000F80111928A95E9F750E0BE01675F7F4F81
:10115000C8010E94011AF80180819181A281B381A6
:101160008093C9099093CA09A093CB09B093CC0985
:1011700084819581A681B7818093C5099093C60922
:10118000A093C709B093C8094C81433008F042E0EE
:10119000F8011182108250E0BE01675F7F4FC801E5
:1011A0000E94011AF801808191819093AA0980938D
:1011B000A9098DE893E045D66091A9097091AA0923
:1011C00026C04C814A3008F049E089E0F8011192CC
:1011D0008A95E9F750E0BE01675F7F4FC8010E9422
:1011E000011A8E818F3F09F464CE80936B098F8141
:1011F00080936A09F80180818093CD0988EA93E0A1
:1012000020D682EB93E01DD66091CD0970E080E09E
:1012100090E04AE0C9D48AE893E0B5D44ACE4C8144
:101220004D3108F04CE18CE1F80111928A95E9F713
:1012300050E0BE01675F7F4FC8010E94011A809194
:10124000BA098111C9C0F80184819581A681B7814D
:101250008093BB099093BC09A093BD09B093BE09CC
:1012600080859185A285B3858093BF099093C0093D
:10127000A093C109B093C209C484D584E684F784DD
:10128000C092B409D092B509E092B609F092B709BC
:10129000828D938D64E670E00E94AC197093B90959
:1012A0006093B8098CEB93E0F2D46091BB09709124
:1012B000BC098091BD099091BE09DDD48AEC93E010
:1012C000E6D46091BF097091C0098091C1099091E5
:1012D000C209D1D489ED93E0DAD46091B409709158
:1012E000B5098091B6099091B709C5D4C60199D5C1
:1012F0006091B4097091B5098091B6099091B709D0
:101300000E94A01720E030E04AE754E40E9405174D
:101310006B017C016093660970936709809368098B
:10132000909369090E946D172B01770F6608770863
:10133000C301B20179D487EE93E0A9D420E030E074
:10134000A901C701B6010E94DA1887FD09C0C301CF
:10135000B2010E94A0179B01AC01C701B60106C0F3
:10136000C301B2010E94A017A70196010E94201696
:1013700020E030E048EC52E40E94E5180E94721729
:101380007B01FB0124E630E0CF01B5010E94C019CA
:10139000FB01C901309729F0B5010E94AC199B01EE
:1013A000F3CF6AE070E00E94AC196A30710519F45D
:1013B00089EE93E06CD4B70180E090E04AE0F4D38A
:1013C0008AE893E0E0D38BEE93E061D48091B80992
:1013D0009091B90926D56DCD8091AB09882309F488
:1013E00068CDF80184819581A681B7818093A00999
:1013F0009093A109A093A209B093A3098085918538
:10140000A285B3858093A4099093A509A093A6090A
:10141000B093A7094ECD4C81433108F042E182E1FF
:10142000F80111928A95E9F750E0BE01675F7F4F9E
:10143000C8010E94011A88EF93E029D4F801648161
:1014400075818681978117D434CDCC5BDE4F0FB682
:10145000F894DEBF0FBECDBFDF91CF911F910F91EA
:10146000FF90EF90DF90CF90BF90AF909F908F90C4
:101470007F906F905F904F903F902F900895FC0168
:10148000A089B1898C91A689B78982FD0FC09C91F2
:10149000818D8F5F8F73228D821749F0218DDF013F
:1014A000A20FB11D5D969C93818F08958C91089534
:1014B000089580E090E00895FC01538D448D252F20
:1014C00030E0842F90E0821B930B541710F0CF96DE
:1014D000089501970895FC01918D828D981761F010
:1014E000828DDF01A80FB11D5D968C91928D9F5F5B
:1014F0009F73928F90E008958FEF9FEF0895FC0106
:10150000918D828D981731F0828DE80FF11D858DB8
:1015100090E008958FEF9FEF0895FC01918D228D4B
:10152000892F90E0805C9F4F821B91098F739927D0
:10153000089586ED99E0F1DF21E0892B09F420E0A0
:10154000822F089583E79AE0E8DF21E0892B09F4F0
:1015500020E0822F0895FC01848DDF01A80FB11DCA
:10156000A35ABF4F2C91848D90E001968F739927D9
:10157000848FA689B7892C93A089B1898C918064C6
:101580008C93938D848D981306C00288F389E02D87
:1015900080818F7D80830895EF92FF920F931F9338
:1015A000CF93DF93EC0181E0888F9B8D8C8D981316
:1015B00005C0E889F989808185FD23C0F62E0B8D51
:1015C00010E00F5F1F4F0F731127E02E8C8DE81274
:1015D0000BC00FB607FCFACFE889F989808185FF37
:1015E000F5CFCE01B8DFF2CF8B8DFE01E80FF11DF4
:1015F000E35AFF4FF0820B8FEA89FB89808180627A
:1016000007C0EE89FF896083E889F9898081806459
:10161000808381E090E0DF91CF911F910F91FF9047
:10162000EF900895CF93DF93EC01888D8823C1F06C
:10163000EA89FB89808185FD05C0A889B9898C91DB
:1016400086FD0EC00FB607FCF5CF808185FFF2CF77
:10165000A889B9898C9185FFEDCFCE017CDFE8CFD9
:10166000DF91CF91089580E090E0892B19F06ADF37
:10167000811120C080E090E0892B19F05ADF8111A0
:101680001CC080E090E0892B41F080E090E0892B45
:1016900021F00E940000811113C080E090E0892BAE
:1016A000A1F080E090E0892B81F00E940000811180
:1016B0000AC008950E940000DDCF0E940000E1CF23
:1016C0000E940000EACF0C94000008951F920F9230
:1016D0000FB60F9211240BB60F922F933F934F9397
:1016E0005F936F937F938F939F93AF93BF93EF938A
:1016F000FF9386ED99E02FDFFF91EF91BF91AF91BE
:101700009F918F917F916F915F914F913F912F9119
:101710000F900BBE0F900FBE0F901F9018951F9249
:101720000F920FB60F9211240BB60F922F933F9387
:101730004F935F936F937F938F939F93AF93BF93D9
:10174000EF93FF9386ED99E09ADEFF91EF91BF91C1
:10175000AF919F918F917F916F915F914F913F9149
:101760002F910F900BBE0F900FBE0F901F901895EA
:101770001F920F920FB60F9211240BB60F922F9358
:101780003F934F935F936F937F938F939F93AF9309
:10179000BF93EF93FF9383E79AE0DDDEFF91EF9134
:1017A000BF91AF919F918F917F916F915F914F9179
:1017B0003F912F910F900BBE0F900FBE0F901F9077
:1017C00018951F920F920FB60F9211240BB60F921D
:1017D0002F933F934F935F936F937F938F939F9339
:1017E000AF93BF93EF93FF9383E79AE048DEFF91B7
:1017F000EF91BF91AF919F918F917F916F915F9189
:101800004F913F912F910F900BBE0F900FBE0F90F5
:101810001F9018953FB7F8948091D2099091D30901
:10182000A091D409B091D50926B5A89B05C02F3F3A
:1018300019F00196A11DB11D3FBFBA2FA92F982FF6
:101840008827820F911DA11DB11DBC01CD0142E071
:10185000660F771F881F991F4A95D1F708951F9229
:101860000F920FB60F9211242F933F938F939F9354
:10187000AF93BF9380919C0990919D09A0919E097F
:10188000B0919F093091D10923E0230F2D3720F427
:101890000196A11DB11D05C026E8230F0296A11DCA
:1018A000B11D2093D10980939C0990939D09A09329
:1018B0009E09B0939F098091D2099091D309A0917C
:1018C000D409B091D5090196A11DB11D8093D2090B
:1018D0009093D309A093D409B093D509BF91AF9148
:1018E0009F918F913F912F910F900FBE0F901F905E
:1018F00018951F920F920FB60F9211240BB60F92EC
:101900002F933F934F935F936F937F938F939F9307
:10191000AF93BF93EF93FF93E091CF09F091D0097C
:101920001995FF91EF91BF91AF919F918F917F9109
:101930006F915F914F913F912F910F900BBE0F9040
:101940000FBE0F901F9018958F929F92AF92BF92EB
:10195000CF92DF92EF92FF920F931F93CF93DF937B
:101960001F921F92CDB7DEB77C01122F8EEFD701E9
:1019700012968C93129713962C93139715966C933B
:10198000159716964C9316979091730914969C93FD
:101990009F5F909373098FEF9FEF9A83898357011D
:1019A000B3E0AB0EB11C6701E8E0CE0ED11CAC1465
:1019B000BD0441F0BE016F5F7F4FD5018D915D0188
:1019C00032DAF5CF89819A81F701918380835601BC
:1019D00083814601880E911CB701A814B90429F02F
:1019E000D5018D915D011FDAF7CF802F1CDAF70149
:1019F0008381F601E80FF11DD7018C918083139646
:101A00008C911397F601E80FF11D11968C9181834B
:101A1000812F90E008960F900F90DF91CF911F914A
:101A20000F91FF90EF90DF90CF90BF90AF909F907D
:101A30008F900895E091730AF091740A0190F081FB
:101A4000E02D682F83E79AE01994CF92DF92EF920E
:101A5000FF920F931F93CF93DF936C017A018B0159
:101A6000C0E0D0E0CE15DF0589F0D8016D918D0181
:101A7000D601ED91FC910190F081E02DC601199500
:101A8000892B11F47E0102C02196ECCFC701DF91B2
:101A9000CF911F910F91FF90EF90DF90CF9008951D
:101AA0000E94FD19EF92FF920F931F93CF93DF9344
:101AB000CDB7DEB767970FB6F894DEBF0FBECDBFC8
:101AC000782FCA01F901E982FA820B831C8321E095
:101AD0002D831E822F8B309741F4FE01379620E133
:101AE000DF011D922A95E9F707C030E1DE01179664
:101AF00001900D923A95E1F727E1FE013196DC0164
:101B0000189601900D922A95E1F727E1FC012783B1
:101B100008EA462F672F18DF67960FB6F894DEBFE6
:101B20000FBECDBFDF91CF911F910F91FF90EF902E
:101B30000895FC01A089B18982E08C93A089B189C4
:101B40001C92A485B5851C92A685B78580E18C93EF
:101B5000108EA489B58986E08C93A289B3898C9173
:101B600080618C93A289B3898C9188608C93A289BF
:101B7000B3898C9180688C930288F389E02D8081F1
:101B80008F7D80830895009761F0FC010190002013
:101B9000E9F73197AF01481B590BBC0183E79AE085
:101BA00054CF80E090E008958F929F92AF92BF92C1
:101BB0000F931F93CF93DF93CDB7DEB7A1970FB6E7
:101BC000F894DEBF0FBECDBF19A2423008F44AE040
:101BD0008E010F5D1F4F842E912CA12CB12CA501DD
:101BE00094010E94D319E62FB901CA0101501109CD
:101BF000EA3014F4E05D01C0E95CD801EC93232BDA
:101C0000242B252B61F7C801BEDFA1960FB6F894EF
:101C1000DEBF0FBECDBFDF91CF911F910F91BF905F
:101C2000AF909F908F900895CF92DF92EF92FF92A6
:101C3000CF93DF9397FF17C06B017C018DE2FADE33
:101C4000EC0166277727CB016C197D098E099F0966
:101C50004AE0AADF8C0F9D1FDF91CF91FF90EF909C
:101C6000DF90CF9008954AE0DF91CF91FF90EF9001
:101C7000DF90CF9099CFCF93DF93D6DFEC018AE846
:101C800093E081DF8C0F9D1FDF91CF9108957BCF73
:101C90004F925F926F927F928F929F92AF92BF927C
:101CA000CF92DF92EF92FF92CF93DF936B017C0193
:101CB000B42E9B01AC010E949319882319F086E190
:101CC00095E01AC026013701E89477F82FEF3FEF2F
:101CD0004FE75FE7C301B2010E94931981110FC062
:101CE0002FEF3FEF4FE75FE7C301B2010E94FE16FF
:101CF00018162CF48AE195E046DFEC017EC02FEF48
:101D00003FEF4FE75FE4C701B6010E94DA181816EB
:101D10001CF48EE195E0F0CF2FEF3FEF4FE75FEC43
:101D2000C701B6010E94FE1687FDF3CF20E030E028
:101D3000A901C701B6010E94FE1687FF08C08DE207
:101D400079DEEC01F7FAF094F7F8F09402C0C0E005
:101D5000D0E0A12C60E070E080E09FE3AB1440F4A1
:101D600020E030E040E251E40E940517A394F6CF52
:101D70009B01AC01C701B60164D72B013C010E9455
:101D800072176B017C010E949E179B01AC01C3017D
:101D9000B20156D72B013C014AE0C701B60104DF6E
:101DA000C80FD91FBB2021F08EE244DEC80FD91F17
:101DB000FB2CFF2011F120E030E040E251E4C301B0
:101DC000B2010E94E5182B013C010E9472174B01E1
:101DD000A12CB12C4AE0C501B401E6DEC80FD91F21
:101DE000C501B4010E949E179B01AC01C301B20161
:101DF00027D72B013C01FA94DCCF8AE893E0C3DEBD
:101E00008C0F9D1FDF91CF91FF90EF90DF90CF90CF
:101E1000BF90AF909F908F907F906F905F904F900A
:101E20000895CF93DF93BC01990F880B990BFCDECB
:101E3000EC018AE893E0A7DE8C0F9D1FDF91CF9124
:101E40000895CF93DF939FDEEC018AE893E09BDE59
:101E50008C0F9D1FDF91CF9108952F923F924F924B
:101E60005F926F927F928F929F92AF92BF92CF922A
:101E7000DF92EF92FF920F931F93CF93DF9300D0E7
:101E80001F92CDB7DEB7182F4DB65EB62DB73EB751
:101E900042E0849F2019310911240FB6F8943EBF07
:101EA0000FBE2DBF8DB79EB701963C01EDB7FEB7B3
:101EB0001282118200E08BE0282E312C98EE892EC0
:101EC00093E0992EA12CB12C011708F032C1A2DCAD
:101ED0006B017C0125E033E430931D0B20931C0B38
:101EE000E0911A0BF0911B0B90818091140B892BC0
:101EF0008083E091160BF091170B90818091140B69
:101F0000809589238083C1010197F1F7E091160B39
:101F1000F091170B90818091140B892B808383E2C1
:101F200090E00197F1F7E091160BF091170B90817B
:101F30008091140B809589238083E0911A0BF09196
:101F40001B0B90818091140B809589238083E091F5
:101F5000180BF091190B90818091150B892309F0D2
:101F60008FC058DC20911C0B30911D0B40E050E0DD
:101F70002855394E4F4F5F4FDC01CB01820F931F25
:101F8000A41FB51F80931E0B90931F0BA093200BD3
:101F9000B093210BE091180BF091190B9081809177
:101FA000150B892379F436DC20911E0B30911F0B21
:101FB0004091200B5091210B2617370748075907EE
:101FC00048F75EC027DC20911C0B30911D0BDC0113
:101FD000CB01820F931FA11DB11D80931E0B909307
:101FE0001F0BA093200BB093210BE091180BF091E5
:101FF000190B90818091150B892379F00BDC2091CE
:102000001E0B30911F0B4091200B5091210B261776
:1020100037074807590748F733C0FCDB20911C0BF2
:1020200030911D0BA9014550510920911E0B309193
:102030001F0BFA01E21BF30B6E0F7F1F6115710579
:10204000F9F0011102C020E012C0202FF301E20FCD
:10205000F11DE20FF11DDF0112978D919C91861702
:10206000970728F491838083215081F7ECCFF30107
:10207000E20FF11DE20FF11D718360830F5F01C05C
:102080001150011708F020CFC5DBDC01CB018C1902
:102090009D09AE09BF0988349147A105B10508F033
:1020A00013CFB8DBF8E4CF0EF1E7DF1EE11CF11C23
:1020B000A7019601261B370B480B590BCA01B90122
:1020C000A50194010E94D31929833A834B835C8331
:1020D000A1DB6B017C0129813A814B815C81211557
:1020E00031054105510509F4EFCE29833A834B832D
:1020F0005C8390DBDC01CB018C199D09AE09BF0923
:1021000029813A814B815C81883E9340A105B105CC
:1021100030F3215031094109510968EEC60E63E0E0
:10212000D61EE11CF11C2115310541055105E9F6CA
:10213000D6CF1E7FF301E10FF11D6081718180E038
:1021400090E00FB6F8945EBE0FBE4DBE0F900F909C
:102150000F900F90DF91CF911F910F91FF90EF9013
:10216000DF90CF90BF90AF909F908F907F906F90B7
:102170005F904F903F902F9008950F93CF93DF93F0
:10218000CDB7DEB7C751D2400FB6F894DEBF0FBE51
:10219000CDBF19861A861B861C861D861E861F8645
:1021A000188A198A1A8A1B8A1C8A1D8A1E8A1F8A03
:1021B000188E698F7A8F8B8F9C8F2D8F3E8F4F8FCC
:1021C00058A319A21AA21BA21CA281E090E09EA310
:1021D0008DA380E190E098A78FA381E089A71AA63C
:1021E0001BA68CA78DA789E4888706E225E242E337
:1021F00064E6CE010196A8DBBE016F5F7F4FCE0182
:102200008F5E9E4F0E94DC01AC01BE016F5E7E4F6F
:1022100086ED99E01ADCC95EDD4F0FB6F894DEBF9B
:102220000FBECDBFDF91CF910F9108950F93CF9344
:10223000DF93CDB7DEB7C751D2400FB6F894DEBFFB
:102240000FBECDBF19861A861B861C861D861E866C
:102250001F86188A198A1A8A1B8A1C8A1D8A1E8A56
:102260001F8A188E698F7A8F8B8F9C8F2D8F3E8F50
:102270004F8F58A319A21AA21BA21CA282E090E0C1
:102280009EA38DA381E190E098A78FA381E089A709
:102290001AA61BA68CA78DA789E4888706E225E2EB
:1022A00042E364E6CE0101964FDBBE016F5F7F4FD4
:1022B000CE018F5E9E4F0E94DC01AC01BE016F5EBD
:1022C0007E4F86ED99E0C1DBC95EDD4F0FB6F89415
:1022D000DEBF0FBECDBFDF91CF910F910895CF9399
:1022E000DF93CDB7DEB72C970FB6F894DEBF0FBEE5
:1022F000CDBF789484B5826084BD84B5816084BD8F
:1023000085B5826085BD85B5816085BD80916E0093
:10231000816080936E0010928100809181008260C4
:102320008093810080918100816080938100809101
:1023300080008160809380008091B10084608093F0
:10234000B1008091B00081608093B00080919100D5
:1023500082608093910080919100816080939100D0
:10236000809190008160809390008091A1008260B4
:102370008093A1008091A10081608093A100809151
:10238000A00081608093A0008091210182608093F1
:1023900021018091210181608093210180912001A0
:1023A00081608093200180917A00846080937A001C
:1023B00080917A00826080937A0080917A008160B7
:1023C00080937A0080917A00806880937A001092DE
:1023D000C10086ED99E0ADDB83E79AE0AADB11E06E
:1023E0008BE094E00E9460061092CE098091CD09A6
:1023F000863009F073C30E94C2020E9489020E94C3
:1024000050028091CE09811183C384E194E03FDCC6
:102410002FB7F89460919C0970919D0980919E0955
:1024200090919F092FBF4AE0BFDB8AE893E0ABDBC6
:1024300080E294E00E94A4068091C409882309F3F5
:1024400080E294E00E94A4060E942C058DE090E0BA
:102450000E94F80460E070E081E090E00E94880350
:1024600041E050E060E070E084EB92E40E94990467
:1024700062E070E08AE090E00E94880343E050E070
:1024800060E070E080EF91E40E94990464E070E005
:102490008AE090E00E94880345E050E060E070E050
:1024A00080EF91E40E94990466E070E08AE090E099
:1024B0000E94880347E050E060E070E080E792E42B
:1024C0000E94990468E070E08AE090E00E9488032E
:1024D00049E050E060E070E080EF91E40E949904F0
:1024E0006AE070E08AE090E00E9488034BE050E0F0
:1024F00060E070E080EF91E40E9499040E94230460
:102500000E945D058091C309811138C00E94350782
:102510008091A9099091AA0980FDF4CF892B91F3AC
:1025200084E69BDC60327E448105910504F584E6F7
:1025300094DC60322EE472078105910594F469877A
:102540007A878B879C870E94E80369857A858B85CB
:102550009C85F6D44DE254E00E94AF051093C30968
:10256000D1CFEED448E354E00E94AF0504C085E427
:1025700094E00E941C061092C309C4CF0E94FB0283
:102580008091BA0981112DC00E9435072091BF09A1
:102590003091C0094091C1095091C2096091BB09B5
:1025A0007091BC098091BD099091BE090E946101A2
:1025B00085E594E046DC6091BB097091BC0980918F
:1025C000BD099091BE0957DB83E694E03ADC609147
:1025D000BF097091C0098091C1099091C2094BDB7C
:1025E000CFCF8091AB09811148C16091BB09709137
:1025F000BC098091BD099091BE09A2D420E836E9BA
:1026000048E15BE402D425E33AEF4EE85CE3DDD534
:102610004B015C016091B8097091B909072E000C5B
:10262000880B990B8DD425E33AEF4EE85CE3CDD5CA
:102630006B017C01C501B4012BD62B013C01C50106
:10264000B401E0D369837A838B839C83C701B6018D
:10265000D9D34B015C012DE239E848E254E36981AA
:102660007A818B819C81B1D5A5019401AED59B0166
:10267000AC01C301B201E5D248D34B015C0108D6DD
:102680009B01AC01C701B60129873A874B875C875C
:10269000FFD56D837E838F83988729853A854B8507
:1026A0005C85C301B20191D59B01AC0160E070E093
:1026B00080E89FE3C5D22B013C012DE239E848E2D6
:1026C00054E36D817E818F8198857FD529813A8100
:1026D0004B815C817AD5A30192013DD32B013C0152
:1026E00020E030E044E353E4C501B4016ED52BEDA6
:1026F0003FE049E450E489D34B015C016091BF099C
:102700007091C0098091C1099091C20919D420E843
:1027100036E948E15BE479D325E33AEF4EE85CE340
:1027200054D5A30192018DD220E030E044E353E47C
:102730004CD52BED3FE049E450E467D32B013C013D
:1027400081E794E0A4DA48E050E0C501B401A0DAE2
:1027500083E894E09CDA48E050E0C301B20198DAE3
:1027600086E994E094DA20E030E044E353E4C701E2
:10277000B6012BD52BED3FE049E450E446D342E0CF
:1027800050E086DA20E836E948E15BE4C501B401AF
:102790001CD5A3D36093AC097093AD098093AE09A7
:1027A0009093AF0920E836E948E15BE4C301B20148
:1027B0000CD593D36093B0097093B1098093B2099B
:1027C0009093B30983EA94E062DA6091AC09709166
:1027D000AD098091AE099091AF094DDA82EB94E09A
:1027E00056DA6091B0097091B1098091B209909167
:1027F000B30941DA85E794E04ADA6091BB09709148
:10280000BC098091BD099091BE0935DA82EC94E053
:102810003EDA6091BF097091C0098091C109909121
:10282000C20929DA80ED94E032DA6091B40970913E
:10283000B5098091B6099091B7091DDA8EED94E043
:1028400026DA8091B8099091B909EBDA2091B009A4
:102850003091B1094091B2095091B3096091AC092E
:102860007091AD098091AE099091AF090E9461010C
:102870008BEE94E00E941C06B4CE0E942C0583E0EF
:1028800090E00E94F80460E070E081E090E00E9437
:1028900088032091B0093091B1094091B20950915B
:1028A000B3096091AC097091AD098091AE09909126
:1028B000AF0963DC2091B0093091B1094091B209B0
:1028C0005091B3096091AC097091AD098091AE0946
:1028D0009091AF09ABDC0E9423040E945D058091BA
:1028E000A80981111BC085EF94E00E94A4060197FE
:1028F00029F40E9487011093CE0902C01092CE09DC
:102900000E9435078091A9099091AA09029719F4AC
:102910001093A809E4CF1092A809E1CF0E943403D4
:102920008091A809882309F4D6C06091C9097091E3
:10293000CA098091CB099091CC0902D320E836E9ED
:1029400048E15BE462D22BED3FE049E450E43DD442
:1029500020E030E044E353E458D22B013C01609185
:10296000A0097091A1098091A2099091A309E8D2D0
:1029700020E836E948E15BE448D22BED3FE049E44A
:1029800050E423D420E030E044E353E43ED24B0152
:102990005C01A301920154D120E030E040E05FE30C
:1029A00014D476D46B017C016091A4097091A509BF
:1029B0008091A6099091A709C3D220E836E948E1A1
:1029C0005BE423D22BED3FE049E450E4FED320E06A
:1029D00030E044E353E419D269837A838B839C8388
:1029E0006091C5097091C6098091C7099091C80985
:1029F000A7D220E836E948E15BE407D22BED3FE0BF
:102A000049E450E4E2D320E030E044E353E4FDD174
:102A10009B01AC0169817A818B819C8111D120E07D
:102A200030E040E05FE3D1D333D469837A838B8392
:102A30009C83C301B201E6D12B013C01C501B40165
:102A4000E1D14B015C01A7019601C701B601BDD3DD
:102A50006B017C01A5019401C301B201B6D32981A8
:102A60003A814B815C81B1D329813A814B815C8170
:102A7000ACD39B01AC01C701B601E3D013D445D15F
:102A800020E038E147E456E4A0D320E030E04AE714
:102A900054E49BD36B017C0120E030E040E05FE335
:102AA000ADD118162CF080E095E00E9460060AC0B7
:102AB00088E095E00E94A406019721F40E94870116
:102AC0001093CE090E9435074CE055E0C701B601CE
:102AD0000E94AF0525CF0E94870193CC8091C90940
:102AE0009091CA09A091CB09B091CC09892B8A2B6E
:102AF0008B2B61F08091C5099091C609A091C709FF
:102B0000B091C809892B8A2B8B2B11F40E94FC01F0
:102B10000E9435070E94330B63CCE6EDF9E0138287
:102B2000128248EE53E060E070E044835583668390
:102B3000778386E093E0918380832DEC30E03587C6
:102B400024872CEC30E03787268728EC30E0318B67
:102B5000208B29EC30E0338B228B2AEC30E0358B54
:102B6000248B2EEC30E0378B268B118E128E138E39
:102B7000148EE3E7FAE0138212824483558366835E
:102B800077839183808385EC90E09587848784ECBC
:102B900090E09787868780EC90E0918B808B81EC2A
:102BA00090E0938B828B82EC90E0958B848B86EC0B
:102BB00090E0978B868B118E128E138E148EE3E22B
:102BC000F2E0E491A0E1BBE01496EC931497E2E20A
:102BD000F2E0E4911596EC9315978DED91E0FC01F0
:102BE0002491E22FF0E0EE0FFF1FEA54FE4F2591F3
:102BF000349117963C932E931697ECEDF1E0E49107
:102C0000F0E0EE0FFF1FE456FE4F25913491199628
:102C10003C932E931897FC018491E82FF0E0EE0F7F
:102C2000FF1FEE57FE4F859194911B969C938E93B8
:102C30001A9785E093E41D969C938E931C970895B4
:102C40005058BB27AA270ED06AC233D230F038D2F0
:102C500020F031F49F3F11F41EF4F2C10EF4E09520
:102C6000E7FBE8C1E92F7DD280F3BA17620773074B
:102C70008407950718F071F49EF595C20EF4E0955F
:102C80000B2EBA2FA02D0B01B90190010C01CA0126
:102C9000A0011124FF27591B99F0593F50F4503ED1
:102CA00068F11A16F040A22F232F342F4427585FC3
:102CB000F3CF469537952795A795F0405395C9F7DB
:102CC0007EF41F16BA0B620B730B840BBAF0915093
:102CD000A1F0FF0FBB1F661F771F881FC2F70EC032
:102CE000BA0F621F731F841F48F487957795679505
:102CF000B795F7959E3F08F0B3CF9395880F08F0EE
:102D00009927EE0F9795879508959F939F77EEE308
:102D100089379E0720F4EAEFF0E0BAD109C04BD121
:102D20009058A2EA2AED3FE049EC5FE39BDFF7D140
:102D30000F9007FC90580895BCD158F080E891E0BE
:102D400009F49EEFBDD128F040E851E059F45EEF60
:102D500009C076C128C2E92FE07803D268F3092EB2
:102D6000052AC1F3261737074807590738F00E2EF2
:102D700007F8E02569F0E025E0640AC0EF6307F892
:102D8000009407FADB01B9019D01DC01CA01AD0124
:102D9000EF934AD0C4D10AD05F91552331F02BED87
:102DA0003FE049E450FD49EC4CCF0895DF93DD2727
:102DB000B92FBF7740E85FE31616170648075B0791
:102DC00010F4D92FFBD19F938F937F936F93A8D249
:102DD000EEE0F1E038D1A3D12F913F914F915F9177
:102DE00000D2DD2349F09058A2EA2AED3FE049ECF9
:102DF0005FE3D0785D2736DFDF9191C1F7D008F42B
:102E000081E0089565D1E3959BC10CD088C158D16C
:102E100040F04FD130F021F45F3F19F00BC1511158
:102E2000C3C10EC19ED198F39923C9F35523B1F3C1
:102E3000951B550BBB27AA2762177307840738F029
:102E40009F5F5F4F220F331F441FAA1FA9F333D088
:102E50000E2E3AF0E0E830D091505040E695001C3C
:102E6000CAF729D0FE2F27D0660F771F881FBB1FF8
:102E7000261737074807AB07B0E809F0BB0B802DD2
:102E8000BF01FF2793585F4F2AF09E3F510568F01E
:102E9000D1C08AC15F3FECF3983EDCF3869577950D
:102EA0006795B795F7959F5FC9F7880F911D969520
:102EB000879597F90895E1E0660F771F881FBB1F7C
:102EC000621773078407BA0720F0621B730B840B29
:102ED000BA0BEE1F88F7E095089504D06894B111FD
:102EE00063C1089546D188F09F5790F0B92F992774
:102EF000B751A0F0D1F0660F771F881F991F1AF005
:102F0000BA95C9F712C0B13081F04DD1B1E0089542
:102F10004AC1672F782F8827B85F39F0B93FCCF3C3
:102F2000869577956795B395D9F73EF490958095FA
:102F3000709561957F4F8F4F9F4F0895E89409C01A
:102F400097FB3EF490958095709561957F4F8F4FDC
:102F50009F4F9923A9F0F92F96E9BB279395F695F2
:102F6000879577956795B795F111F8CFFAF4BB0F70
:102F700011F460FF1BC06F5F7F4F8F4F9F4F16C0D4
:102F8000882311F096E911C0772321F09EE8872F5E
:102F9000762F05C0662371F096E8862F70E060E01A
:102FA0002AF09A95660F771F881FDAF7880F969593
:102FB000879597F90895DF93CF931F930F938B0114
:102FC000EC01EBE3F1E03FD0AAD09801AE018B0118
:102FD000EC0160E070E080E89FE332DE63D19801AD
:102FE000AE010F911F91CF91DF91FBC0990F0008A7
:102FF000550FAA0BE0E8FEEF16161706E807F907CB
:10300000C0F012161306E407F50798F0621B730B65
:10301000840B950B39F40A2661F0232B242B252BE6
:1030200021F408950A2609F4A140A6958FEF811D89
:10303000811D089597F99F6780E870E060E008952A
:103040009FEF80EC0895DF93CF931F930F93FF9230
:10305000EF92DF927B018C01689405C0DA2EEF01BC
:10306000C0D0FE01E894A5912591359145915591E7
:10307000AEF3EF01F7DDFE019701A801DA9479F7CD
:10308000DF90EF90FF900F911F91CF91DF91089506
:103090009F938F937F936F93FF93EF939B01AC016B
:1030A00094D0EF91FF91CFDF2F913F914F915F919E
:1030B0008CC000240A9416161706180609060895EF
:1030C00000240A9412161306140605060895B8CFB4
:1030D00050D0E8F3E894E0E0BB279F57F0F02AEDEA
:1030E0003FE049EC06C0EE0FBB0F661F771F881F3D
:1030F00028F0B23A62077307840728F0B25A620BCD
:10310000730B840BE3959A9572F7803830F49A9597
:10311000BB0F661F771F881FD2F790480AC1092E80
:103120000394000C11F4882352F0BB0F40F4BF2B22
:1031300011F460FF04C06F5F7F4F8F4F9F4F089562
:10314000EF93E0FF06C0A2EA2AED3FE049EC5FEB17
:1031500089DDE5DF0F90039401FC9058E3E6F1E090
:1031600097CF57FD9058440F551F59F05F3F71F0AE
:103170004795880F97FB991F61F09F3F79F08795DE
:103180000895121613061406551FF2CF4695F1DF67
:1031900008C0161617061806991FF1CF86957105F7
:1031A000610508940895E894BB2766277727CB012B
:1031B00097F908951BDF08F48FEF08959B01AC0188
:1031C00060E070E080E89FE320CE0BD0A8CF71DFF5
:1031D00028F076DF18F0952309F02CCF31CF112499
:1031E000E3CFBFDFA0F3959FD1F3950F50E0551FBC
:1031F000629FF001729FBB27F00DB11D639FAA274C
:10320000F00DB11DAA1F649F6627B00DA11D661F9A
:10321000829F2227B00DA11D621F739FB00DA11DBB
:10322000621F839FA00D611D221F749F3327A00D75
:10323000611D231F849F600D211D822F762F6A2F11
:1032400011249F5750408AF0E1F088234AF0EE0F96
:10325000FF1FBB1F661F771F881F91505040A9F7A3
:103260009E3F510570F0E6CE9FCF5F3FECF3983E56
:10327000DCF3869577956795B795F795E7959F5F0A
:10328000C1F7FE2B880F911D9695879597F90895A4
:103290009F931EDF0F9007FCEE5F52CF11F40EF4E8
:1032A000CFCE45C066DFD0F39923D9F3CEF39F5735
:1032B000550B87FF4AD00024A0E640EA90018058D1
:1032C0005695979528F4805C660F771F881F20F02D
:1032D00026173707480730F4621B730B840B20292D
:1032E00031294A2BA69517940794202531254A2782
:1032F00058F7660F771F881F20F0261737074807F3
:1033000030F4620B730B840B200D311D411DA09511
:1033100081F7B901842F9158880F96958795089564
:103320009B01AC0152CF62DE880B990B08959F3F41
:1033300031F0915020F4879577956795B795880F70
:10334000911D9695879597F9089591505040660F75
:10335000771F881FD2F70895AA1BBB1B51E107C036
:10336000AA1FBB1FA617B70710F0A61BB70B881F15
:10337000991F5A95A9F780959095BC01CD010895A4
:1033800097FB072E16F4009406D077FD08D0E4DFF3
:1033900007FC05D03EF4909581959F4F0895709558
:1033A00061957F4F0895A1E21A2EAA1BBB1BFD0158
:1033B0000DC0AA1FBB1FEE1FFF1FA217B307E40714
:1033C000F50720F0A21BB30BE40BF50B661F771F6C
:1033D000881F991F1A9469F760957095809590954C
:1033E0009B01AC01BD01CF010895EE0FFF1F881FA7
:1033F0008BBF0790F691E02D199481E090E0F8944E
:1034000009C0FB01DC0102C001900D924150504007
:08341000D8F70895F894FFCFEE
:10341800327C8900EDD9687700000059000000006F
:1034280000000000D69FDCA81817AA90437327F65F
:10343800B968EDF4DED409FEE61C1C84DDE80B99BE
:1034480029274EC400000F030000000000A7B7772B
:10345800BF76941500F37C000026149E988F000018
:10346800006A31168F8C059600E7B73F362F0000AB
:1034780000000000AF669ED0385D8A6C20B95422E7
:10348800AE7CED044C80387486EDCBFA57CBDC1952
:10349800E22E1DDF5506E5CB01C36DA8B52F488385
:1034A8007F00679AB2C8000000000000000000001A
:1034B8000000000000000000000000000000000004
:1034C80000000000000000000000000000000000F4
:1034D80000000000000000000000000000000000E4
:1034E80000000000000000000000000000000000D4
:1034F800000000000000A369972396000000000068
:10350800005A68555F82B85108CC31AA2C532E0056
:10351800643200000000CC0A250D5C0A120B8D0AEB
:103528006B0A7F0A57504E41565F53504545440039
:1035380057505F5941575F4245484156494F5200DD
:103548005352315F4558545F5354415400535231DC
:103558005F504F534954494F4E0052656164696E3C
:103568006720312069733A200052656164696E678B
:1035780020322069733A2000446966666572656E78
:10358800636520312069733A20004252414B45005F
:103598004D6573736167653A20000D0A00437572C3
:1035A80072656E74204D697373696F6E205365710F
:1035B80075656E63653A200068656172746265615D
:1035C80074004D6F64652069733A20004D61764C34
:1035D800617469747564653A20004D61764C6F6E4C
:1035E8006769747564653A20004D6176416C746949
:1035F800747564653A20002E0030004D6176486588
:103608006164696E673A200044697374616E63652A
:1036180020726561642069733A200044495354411B
:103628004E4345004D61696E2054696D653A20002E
:103638004D41494E5F52454144494E47005041541F
:10364800485F464F554E4400494E56414C49445FE9
:103658005041544800424547494E5F46494E445FF1
:1036680050415448006C61745374617274206973DA
:103678003A20006C6F6E53746172742069733A203B
:10368800004E6577204C61746974756465206973B0
:103698003A20004E6577204C6F6E676974756465D3
:1036A8002069733A200042656172696E6720697308
:1036B8003A20006C61745461726765742069733ACA
:1036C80020006C6F6E675461726765742069733A85
:1036D80020004C6F6E6769747564652069732000FB
:1036E800416C7469747564652069733A2000486593
:1036F8006164696E672069733A200043414C435FF7
:103708005245504F005245504F534954494F4E006F
:103718004C414E44494E470052544C00444953547E
:103728005F484F4D45006E616E00696E66006F76AA
:02373800660029
:020000023000CC
:10E000000D9489F10D94B2F10D94B2F10D94B2F129
:10E010000D94B2F10D94B2F10D94B2F10D94B2F1F0
:10E020000D94B2F10D94B2F10D94B2F10D94B2F1E0
:10E030000D94B2F10D94B2F10D94B2F10D94B2F1D0
:10E040000D94B2F10D94B2F10D94B2F10D94B2F1C0
:10E050000D94B2F10D94B2F10D94B2F10D94B2F1B0
:10E060000D94B2F10D94B2F10D94B2F10D94B2F1A0
:10E070000D94B2F10D94B2F10D94B2F10D94B2F190
:10E080000D94B2F10D94B2F10D94B2F10D94B2F180
:10E090000D94B2F10D94B2F10D94B2F10D94B2F170
:10E0A0000D94B2F10D94B2F10D94B2F10D94B2F160
:10E0B0000D94B2F10D94B2F10D94B2F10D94B2F150
:10E0C0000D94B2F10D94B2F10D94B2F10D94B2F140
:10E0D0000D94B2F10D94B2F10D94B2F10D94B2F130
:10E0E0000D94B2F141546D656761323536300041AF
:10E0F000726475696E6F206578706C6F72657220DE
:10E1000073746B3530305632206279204D4C530099
:10E11000426F6F746C6F616465723E004875683F52
:10E1200000436F6D70696C6564206F6E203D200048
:10E130004350552054797065202020203D20005FF9
:10E140005F4156525F415243485F5F3D2000415658
:10E1500052204C696243205665723D20004743437C
:10E160002056657273696F6E203D20004350552024
:10E1700049442020202020203D20004C6F7720663D
:10E18000757365202020203D20004869676820665F
:10E190007573652020203D200045787420667573D6
:10E1A00065202020203D20004C6F636B2066757336
:10E1B000652020203D20004D617220203720323024
:10E1C000313300312E362E3800342E332E350056A2
:10E1D00023202020414444522020206F7020636F70
:10E1E00064652020202020696E73747275637469E1
:10E1F0006F6E2061646472202020496E74657272B3
:10E20000757074006E6F20766563746F7200726A49
:10E210006D702020006A6D70200057686174207056
:10E220006F72743A00506F7274206E6F7420737541
:10E2300070706F72746564004D7573742062652030
:10E2400061206C6574746572002000577269747483
:10E25000696E672045450052656164696E672045B7
:10E26000450045452065727220636E743D00504F35
:10E27000525400303D5A65726F2061646472003FF1
:10E280003D43505520737461747300403D454550C3
:10E29000524F4D207465737400423D426C696E6B41
:10E2A000204C454400453D44756D70204545505215
:10E2B0004F4D00463D44756D7020464C415348001B
:10E2C000483D48656C70004C3D4C69737420492F83
:10E2D0004F20506F72747300513D51756974005234
:10E2E0003D44756D702052414D00563D73686F7707
:10E2F00020696E7465727275707420566563746FF0
:10E30000727300593D506F727420626C696E6B00BD
:10E310002A0011241FBECFEFD1E2DEBFCDBF01E046
:10E320000CBF12E0A0E0B2E0EEE1FDEF03E00BBFB6
:10E3300002C007900D92A030B107D9F712E0A0E01B
:10E34000B2E001C01D92AE30B107E1F70F9460F367
:10E350000D948DFE01E20EBF0FEF0DBF11241FBE05
:10E360000D9460F30D9400F020E030E040ED57E0B4
:10E3700005C0FA013197F1F72F5F3F4F2817390792
:10E38000C0F308959C01260F311DC901A0E0B0E043
:10E390002F5F3F4FABBFFC018791882361F08093D3
:10E3A000C6008091C00086FFFCCF8091C0008064D1
:10E3B0008093C000EACF08958DE08093C6008091DD
:10E3C000C00086FFFCCF8091C00080648093C000B5
:10E3D0008AE08093C6008091C00086FFFCCF8091C8
:10E3E000C00080648093C00008950F94C2F10F9420
:10E3F000DCF10895FC019081992359F09093C600B7
:10E400008091C00086FFFCCF8091C0008064809323
:10E41000C0003196992379F70895282F982F929567
:10E420009F70892F805D8A3308F0895F8093C600D2
:10E430008091C00086FFFCCF8091C00080648093F3
:10E44000C000822F8F70982F905D9A3308F0995FEB
:10E450009093C6008091C00086FFFCCF8091C000E1
:10E4600080648093C00008959C01FB01853691056E
:10E470001CF46330710594F0C90164E670E00F94F8
:10E480002EFE605D7F4F6093C6008091C00086FFC6
:10E49000FCCF8091C00080648093C0002B30310598
:10E4A00014F43297B4F0C90164E670E00F942EFEC4
:10E4B0006AE070E00F942EFE605D7F4F6093C600AF
:10E4C0008091C00086FFFCCF8091C0008064809363
:10E4D000C000C9016AE070E00F942EFEC0968093E0
:10E4E000C6008091C00086FFFCCF8091C000806490
:10E4F0008093C00008951F93182F8EE692EE60E07F
:10E500000F94C2F11093C6008091C00086FFFCCF2B
:10E510008091C00080648093C0000F94DCF11F9153
:10E5200008952F923F924F925F926F927F928F92B7
:10E530009F92AF92BF92CF92DF92EF92FF920F9392
:10E540001F93DF93CF93CDB7DEB762970FB6F894E2
:10E55000DEBF0FBECDBF382E622ECA01DB015C01CB
:10E560006D01772420E2222E2E010894411C511CBB
:10E570008BC081E0A81680E0B80681E0C80680E084
:10E58000D80628F0C601AA27BB270F940DF2BB2797
:10E59000AD2D9C2D8B2D0F940DF28A2D0F940DF225
:10E5A0002092C6008091C00086FFFCCF8091C00001
:10E5B00080648093C0009DE29093C6008091C0006B
:10E5C00086FFFCCF8091C00080648093C0002092C1
:10E5D000C6008091C00086FFFCCF8091C00080649F
:10E5E0008093C00019828601750188249924A1E0D6
:10E5F0003A1651F03A1620F0B2E03B1661F409C029
:10E600000BBFF701779007C0C7010F9477FE782EF4
:10E6100002C0F7017080872D0F940DF22092C60082
:10E620008091C00086FFFCCF8091C0008064809301
:10E63000C000872D8052F401EF70F0708F3520F408
:10E64000E40DF51D708204C0E40DF51D8EE280839B
:10E650000894E11CF11C011D111D0894811C911CE2
:10E6600090E18916910409F0C2CF80E190E0A0E02A
:10E67000B0E0A80EB91ECA1EDB1E198AC2010F9493
:10E68000FAF10F94DCF16A94662009F072CF629679
:10E690000FB6F894DEBF0FBECDBFCF91DF911F91B3
:10E6A0000F91FF90EF90DF90CF90BF90AF909F9031
:10E6B0008F907F906F905F904F903F902F90089534
:10E6C0002F923F924F925F926F927F928F929F9282
:10E6D000AF92BF92CF92DF92EF92FF920F931F9370
:10E6E000DF93CF93CDB7DEB7CD53D1400FB6F894BB
:10E6F000DEBF0FBECDBF01E20EBF0FEF0DBF94B75F
:10E70000F894A89514BE80916000886180936000A1
:10E7100010926000789493FF05C0E0910002F091A0
:10E7200001021995279A2F9A8091C00082608093E8
:10E73000C00080E18093C40088E18093C1000000A4
:10E74000EE24FF24870144E0A42EB12CCC24DD2448
:10E7500024C0C5010197F1F70894E11CF11C011DCB
:10E76000111D21E2E2162EE4F20620E0020720E06D
:10E77000120718F031E0C32ED12CC801B70127ECE5
:10E780003BE140E050E00F9441FE611571058105C9
:10E79000910519F485B1805885B98091C00087FD35
:10E7A00003C0C114D104A9F2A6014F5F5F4FC25E3E
:10E7B000DE4F59834883CE51D140C25EDE4F8881FF
:10E7C0009981CE51D140019711F00D9410FEC05D9A
:10E7D000DE4F19821882C053D14060E0C15DDE4F28
:10E7E0001882CF52D14088249924C35DDE4F19820C
:10E7F0001882CD52D140C05EDE4F188219821A8233
:10E800001B82C052D140CE5CDE4F188219821A8220
:10E810001B82C253D140EE24FF2487010BBFF701B6
:10E8200007911691C45CDE4F19830883CC53D14005
:10E830000D940BFEC25EDE4F28813981CE51D1404E
:10E840002130310509F52091C600C25EDE4F1982E4
:10E850001882CE51D14022C02F5F3F4F4F4F5F4FA4
:10E86000213082E138078AE7480780E0580780F0C6
:10E87000C45CDE4FE881F981CC53D140EF5FFF4F9C
:10E8800019F0EE27FF27099420E030E040E050E047
:10E890008091C00087FFE0CF2091C600C35DDE4FAE
:10E8A00048815981CD52D1404F5F5F4FC35DDE4FEC
:10E8B00059834883CD52D140213209F063C64A3092
:10E8C000510508F05FC60894811C911C53E0851621
:10E8D000910409F059C600E010E018C081E280936D
:10E8E000C6008091C00086FFFCCF8091C00080648C
:10E8F0008093C0002F5F3F4F2931310579F70F9486
:10E90000DCF10F5F1F4F0530110519F020E030E0FA
:10E91000E5CF10920A0210920B0210920C02109294
:10E920000D02109206021092070210920802109235
:10E930000902109202021092030210920402109235
:10E9400005028FEE90EE60E00F94F5F180E191EE1C
:10E9500060E00F94C2F18091C00087FFFCCF9091DE
:10E96000C600903608F09F759032B8F09093C600BC
:10E970008091C00086FFFCCF8091C00080648093AE
:10E98000C000A0E2A093C6008091C00086FFFCCF2B
:10E990008091C00080648093C000983409F4D7C18E
:10E9A0009934B8F4923409F459C1933458F490333B
:10E9B00019F1903308F4E3C59F33A1F1903409F0C5
:10E9C000DEC5BDC0953409F470C1963409F0D7C5D1
:10E9D00098C1923509F42BC2933538F49C3409F46C
:10E9E000F5C1913509F0CBC518C2963509F445C279
:10E9F000993509F0C4C567C483E792EE62E00F94CD
:10EA0000F5F110920602109207021092080210927D
:10EA1000090210920A0210920B0210920C0210923C
:10EA20000D0213C18FE792EE62E00F94F5F18FEEC5
:10EA300090EE60E00F94F5F181E291EE60E00F94CA
:10EA4000C2F187EB91EE60E00F94F5F180E391EE77
:10EA500060E00F94C2F184EE90EE60E00F94F5F167
:10EA60008FE391EE60E00F94C2F186E090E061E008
:10EA700070E00F9434F20F94DCF18DE591EE60E0DC
:10EA80000F94C2F189EC91EE60E00F94F5F18EE401
:10EA900091EE60E00F94C2F183EC91EE60E00F9490
:10EAA000F5F18CE691EE60E00F94C2F18EE10F94E7
:10EAB0000DF288E90F940DF281E00F940DF20F949E
:10EAC000DCF18BE791EE60E00F94C2F119E0E0E039
:10EAD000F0E010935700E4918E2F0F940DF20F94F5
:10EAE000DCF18AE891EE60E00F94C2F1E3E0F0E03F
:10EAF00010935700E4918E2F0F940DF20F94DCF1D8
:10EB000089E991EE60E00F94C2F1E2E0F0E0109349
:10EB10005700E4918E2F0F940DF20F94DCF188EAE8
:10EB200091EE60E00F94C2F1E1E0F0E01093570045
:10EB30001491812F0F940DF20F94DCF107CF8BE825
:10EB400092EE62E00F94F5F18BE492EE60E00F94A8
:10EB5000F5F10F94DCF100E010E019C0C8016F2D51
:10EB60000F947FFEFF2031F489E492EE60E00F9471
:10EB7000C2F10BC0F092C6008091C00086FFFCCFAE
:10EB80008091C00080648093C0000F5F1F4FC80158
:10EB900081519F41A0E0B0E0ABBFFC01F790BAE229
:10EBA000FB1621F0E2E000301E07C1F60F94DCF105
:10EBB0000F94DCF187E592EE60E00F94F5F10F948D
:10EBC000DCF1CC24DD2400E010E01EC0C8010F946D
:10EBD00077FEF82E882331F489E492EE60E00F94FA
:10EBE000C2F10BC08093C6008091C00086FFFCCFAD
:10EBF0008091C00080648093C000FE1419F00894D6
:10EC0000C11CD11C0F5F1F4FC80181519F41A0E063
:10EC1000B0E0ABBFFC01E790FAE2EF1621F022E092
:10EC20000030120799F60F94DCF10F94DCF182E6C4
:10EC300092EE60E00F94C2F1C60161E070E00F94C3
:10EC400034F20F94DCF10F94DCF110920202109276
:10EC50000302109204021092050278CE89E992EE26
:10EC600062E00F94F5F1279A2F9A16C02F9880E052
:10EC700090E0E0EDF7E03197F1F7019684369105E9
:10EC8000C1F72F9A80E090E0E0EDF7E03197F1F7DF
:10EC9000019684369105C1F78091C00087FFE6CFC9
:10ECA0008091C00087FFFCCF64C485EA92EE62E0E9
:10ECB0000F94F5F140910202509103026091040219
:10ECC0007091050281E020E10F9491F2809102029F
:10ECD00090910302A0910402B091050280509F4FD1
:10ECE000AF4FBF4F8093020290930302A0930402A0
:10ECF000B093050280509041A040B04008F426CE69
:10ED0000A4CF83EB92EE62E00F94F5F140910602FE
:10ED100050910702609108027091090280E020E1A1
:10ED20000F9491F28091060290910702A09108023F
:10ED3000B091090280509F4FAF4FBF4F80930602A2
:10ED400090930702A0930802B0930902FFCD80ECD4
:10ED500092EE62E00F94F5F183E792EE60E00F949B
:10ED6000F5F18FE792EE60E00F94F5F18BE892EE0B
:10ED700060E00F94F5F189E992EE60E00F94F5F10F
:10ED800085EA92EE60E00F94F5F183EB92EE60E09D
:10ED90000F94F5F180EC92EE60E00F94F5F187ECC2
:10EDA00092EE60E00F94F5F188ED92EE60E00F9442
:10EDB000F5F18FED92EE60E00F94F5F18AEE92EEB0
:10EDC00060E00F94F5F183E093EEBDCD87EC92EE19
:10EDD00062E00F94F5F181E40F947BF282E40F94EA
:10EDE0007BF283E40F947BF284E40F947BF285E45E
:10EDF0000F947BF286E40F947BF287E40F947BF20E
:10EE000088E40F947BF28AE40F947BF28BE40F94F6
:10EE10007BF28CE40F947BF299CD88ED92EE62E068
:10EE20000F94F5F1772473948824992409C48FED05
:10EE300092EE62E00F94F5F140910A0250910B02BC
:10EE400060910C0270910D0282E020E10F9491F22A
:10EE500080910A0290910B02A0910C02B0910D02D8
:10EE600080509F4FAF4FBF4F80930A0290930B0289
:10EE7000A0930C02B0930D0269CD8AEE92EE62E08F
:10EE80000F94F5F184EE90EE60E00F94F5F18FECC5
:10EE900091EE60E00F94F5F1662477244301CC5D98
:10EEA000DE4F19821882C452D140D401C301B695F5
:10EEB000A79597958795CA5DDE4F88839983AA8326
:10EEC000BB83C652D140CC5DDE4FA881B981C4520C
:10EED000D1401196CC5DDE4FB983A883C452D14096
:10EEE000CD0162E070E00F9434F2B0E2B093C6005E
:10EEF0008091C00086FFFCCF8091C0008064809329
:10EF0000C000EDE2E093C6008091C00086FFFCCF18
:10EF10008091C00080648093C000F0E2F093C6004E
:10EF20008091C00086FFFCCF8091C00080648093F8
:10EF3000C000CA5DDE4FE880F9800A811B81C6529D
:10EF4000D140BB27A12F902F8F2D0F940DF2CA5DBA
:10EF5000DE4F8881C652D1400F940DF2B0E2FB2EF5
:10EF6000F092C6008091C00086FFFCCF8091C00067
:10EF700080648093C0000DE30093C6008091C000C0
:10EF800086FFFCCF8091C00080648093C00010E2B7
:10EF90001093C6008091C00086FFFCCF8091C00016
:10EFA00080648093C0008BBEF3012791C65DDE4F65
:10EFB0002883CA52D140A22EBB24CC24DD2408943D
:10EFC000611C711C811C911C8BBEF3018791282E42
:10EFD0003324442455240894611C711C811C911C09
:10EFE0008BBEF3013791C55DDE4F3883CB52D140E4
:10EFF0000894611C711C811C911C8BBEF30147910C
:10F00000C45DDE4F4883CC52D140ADEFEA2EAFEF66
:10F01000FA2EAFEF0A2FAFEF1A2F6E0C7F1C801E57
:10F02000911E142D032DF22CEE24EA0CFB1C0C1D5A
:10F030001D1D0F940DF220E22093C6008091C000A8
:10F0400086FFFCCF8091C00080648093C000C65DC5
:10F05000DE4F8881CA52D1400F940DF230E23093D6
:10F06000C6008091C00086FFFCCF8091C000806404
:10F070008093C000C45DDE4F8881CC52D1400F9494
:10F080000DF240E24093C6008091C00086FFFCCFA5
:10F090008091C00080648093C000C55DDE4F888190
:10F0A000CB52D1400F940DF250E25093C6008091A4
:10F0B000C00086FFFCCF8091C00080648093C000B8
:10F0C0008FEFE8168FEFF80680E0080780E018075A
:10F0D00031F484E092EE60E00F94C2F1DFC0D80119
:10F0E000C7018070907CA070B0708050904CA040A0
:10F0F000B040D1F52FEF3FE340E050E0E222F322B1
:10F1000004231523CA5DDE4FA880B980CA80DB8046
:10F11000C652D140AE0CBF1CC01ED11EAA0CBB1CD7
:10F12000CC1CDD1C8EE092EE60E00F94C2F1BB2798
:10F13000A12F902F8F2D0F940DF28E2D0F940DF285
:10F1400030E23093C6008091C00086FFFCCF8091F2
:10F15000C00080648093C0004EE34093C60080915D
:10F16000C00086FFFCCF87C08EE09EEFA0E0B0E03D
:10F17000E822F9220A231B239CE0E91694E9F90608
:10F1800090E0090790E0190709F088C0C45DDE4FE0
:10F19000A881CC52D140EA2EFF2400E010E0102FCD
:10F1A0000F2DFE2CEE24C55DDE4FB881CB52D14031
:10F1B000EB0EF11C011D111DD601C501817090706F
:10F1C000A070B070DC0199278827E80EF91E0A1F8D
:10F1D0001B1F20EF30E040E050E0A222B322C42207
:10F1E000D52241E1AA0CBB1CCC1CDD1C4A95D1F7F1
:10F1F000EA0CFB1C0C1D1D1D81E090E0A0E0B0E0BE
:10F20000282239224A225B2235E1220C331C441C7D
:10F21000551C3A95D1F7E20CF31C041D151D57013E
:10F220006801AA0CBB1CCC1CDD1C85E192EE60E0E1
:10F230000F94C2F1C801AA27BB270F940DF2BB2778
:10F24000A12F902F8F2D0F940DF28E2D0F940DF274
:10F2500090E29093C6008091C00086FFFCCF809121
:10F26000C00080648093C000AEE3A093C60080918C
:10F27000C00086FFFCCF8091C00080648093C000F6
:10F28000C601AA27BB270F940DF2BB27AD2D9C2DDD
:10F290008B2D0F940DF28A2D0F940DF20F94DCF14B
:10F2A000CC5DDE4FE881F981C452D140F99709F471
:10F2B0004DCBF4E0EF2EF12C012D112D6E0C7F1CA7
:10F2C000801E911EF2CD83E093EE62E00F94F5F183
:10F2D0008AE192EE60E00F94C2F18091C00087FF56
:10F2E000FCCF1091C6001F751093C6008091C0001E
:10F2F00086FFFCCF8091C00080648093C0000F9493
:10F30000DCF1812F81548A3108F036C1163409F4BA
:10F3100095C0173490F4133409F44EC0143430F40B
:10F320001134F1F0123409F01DC130C0143409F465
:10F3300059C0153409F016C16BC01A3409F4C4C0A1
:10F340001B3438F4173409F48FC0183409F00AC19B
:10F35000A1C01B3409F4D2C01C3409F003C1E8C0B9
:10F360008FEF81B90DC082B1809582B980E090E0C5
:10F37000E0EDF7E03197F1F70196883C9105C1F790
:10F380008091C00087FFEFCF12B8EFC08FEF84B934
:10F390000DC085B1809585B980E090E0E0EDF7E0A3
:10F3A0003197F1F70196883C9105C1F78091C00033
:10F3B00087FFEFCF15B8D9C08FEF87B90DC088B1DF
:10F3C000809588B980E090E0E0EDF7E03197F1F7C3
:10F3D0000196883C9105C1F78091C00087FFEFCF6F
:10F3E00018B8C3C08FEF8AB90DC08BB180958BB9A7
:10F3F00080E090E0E0EDF7E03197F1F70196883C8E
:10F400009105C1F78091C00087FFEFCF1BB8ADC059
:10F410008FEF8DB90DC08EB180958EB980E090E0F0
:10F42000E0EDF7E03197F1F70196883C9105C1F7DF
:10F430008091C00087FFEFCF1EB897C08FEF80BBD1
:10F440000DC081B3809581BB80E090E0E0EDF7E0F6
:10F450003197F1F70196883C9105C1F78091C00082
:10F4600087FFEFCF11BA81C08FEF83BB0DC084B38C
:10F47000809584BB80E090E0E0EDF7E03197F1F714
:10F480000196883C9105C1F78091C00087FFEFCFBE
:10F4900014BA6BC08FEF809301010FC080910201FD
:10F4A00080958093020180E090E0E0EDF7E03197F5
:10F4B000F1F70196883C9105C1F78091C00087FF64
:10F4C000EDCF1092020151C08FEF809304010FC065
:10F4D0008091050180958093050180E090E0E0ED4A
:10F4E000F7E03197F1F70196883C9105C1F78091DB
:10F4F000C00087FFEDCF1092050137C08FEF8093DA
:10F5000007010FC08091080180958093080180E079
:10F5100090E0E0EDF7E03197F1F70196883C910536
:10F52000C1F78091C00087FFEDCF109208011DC088
:10F530008FEF80930A010FC080910B01809580931B
:10F540000B0180E090E0E0EDF7E03197F1F70196F4
:10F55000883C9105C1F78091C00087FFEDCF1092E4
:10F560000B0103C085E292EEEEC98091C00087FFD7
:10F57000FCCF8091C600EAC988E392EEE4C98CE131
:10F5800091EEE1C988249924933011F1943028F444
:10F59000913089F09230B8F408C0953061F195301F
:10F5A000F0F0963009F048C043C02B3109F042C951
:10F5B00091E06BE13FC96227C15DDE4F2883CF52E6
:10F5C000D14092E037C9B22FA0E0622793E032C960
:10F5D000822F90E0A82BB92B622794E02BC92E3004
:10F5E00009F039C3622795E0C05DDE4F19821882A9
:10F5F000C053D1401FC9E1E0F0E0EC0FFD1FC05D3A
:10F60000DE4F08811981C053D140E00FF11F2083E4
:10F610000F5F1F4FC05DDE4F19830883C053D14079
:10F6200062270A171B0709F005C9D80196E002C92D
:10F63000261709F010C303C0973009F0FBC87724E0
:10F640009981933109F412C19431C8F4963009F4C8
:10F65000D8C0973050F4923009F406C1933009F4C1
:10F660006DC0913009F059C253C0913109F477C08F
:10F67000923108F0BBC0903109F04FC2F5C098310B
:10F6800009F487C0993150F4953109F4EFC09531F0
:10F6900008F4C6C1963109F040C2C2C19A3109F4DA
:10F6A0006CC09A3108F491C09B3109F45BC09D3164
:10F6B00009F033C29D81903359F48F81882311F46E
:10F6C0009EE11CC0813011F091E018C098E916C08D
:10F6D000892F807591F0903539F4E0E0F0E089E011
:10F6E0008093570094910AC0983539F4E3E0F0E034
:10F6F00089E080935700949101C090E01A821B82A8
:10F700008D818C831D829E831F8227E030E009C299
:10F710001A8288E08B8381E48C8386E58D8382E581
:10F720008E8389E48F8383E5888780E589878FE5E9
:10F730008A8782E38B872BE030E0F3C18A818139AD
:10F7400041F0823941F0803911F48FE005C080E04A
:10F7500003C082E001C08AE01A828B8344C0772410
:10F76000739482C08D81882311F48EE12CC0813086
:10F7700011F081E028C088E926C01A82E1E0F0E0BB
:10F7800089E08093570084918B831C8224E030E0D1
:10F79000C8C18B81803589F48C81883039F4E2E0EE
:10F7A000F0E089E08093570084910DC0E0E0F0E044
:10F7B00089E080935700849106C0E3E0F0E089E09F
:10F7C0008093570084911A82DFCF8D81836C99E0FA
:10F7D000E1E0F0E0082E90935700E89507B600FCB2
:10F7E000FDCF1A821B8223E030E09BC180EC8A832C
:10F7F000CE5CDE4F188219821A821B82C253D1401E
:10F800008EC18A8190E0A0E0B0E0582F44273327D2
:10F8100022278B8190E0A0E0B0E0DC0199278827C7
:10F82000282B392B4A2B5B2B8D8190E0A0E0B0E098
:10F83000282B392B4A2B5B2B8C8190E0A0E0B0E089
:10F84000BA2FA92F982F8827282B392B4A2B5B2BCF
:10F85000220F331F441F551FC05EDE4F288339839C
:10F860004A835B83C052D1401A8259C13A81C95C34
:10F87000DE4F3883C753D140CA5CDE4F1882C6536F
:10F88000D1408B81C82EDD24CA5CDE4F488159816E
:10F89000C653D140C42AD52A933109F082C0CE5C28
:10F8A000DE4F88819981AA81BB81C253D1408050AB
:10F8B000904CA340B04030F583E0CE5CDE4FE88052
:10F8C000F9800A811B81C253D140F70100935B008C
:10F8D00080935700E89507B600FCFDCFCE5CDE4F65
:10F8E000088119812A813B81C253D14000501F4FAA
:10F8F0002F4F3F4FCE5CDE4F088319832A833B8313
:10F90000C253D140C05EDE4F488159816A817B81FC
:10F91000C052D140DE011B9631E08C9111962C91A2
:10F9200011971296C75CDE4F2883C953D140C85C3B
:10F93000DE4F1882C853D14090E0C85CDE4FE881AA
:10F94000F981C853D1408E2B9F2B0C01FA01609393
:10F950005B0030935700E89511244E5F5F4F6F4F67
:10F960007F4F0EEFE02E0FEFF02ECE0CDF1CC114F8
:10F97000D10499F685E0C05EDE4F088119812A81A5
:10F980003B81C052D140F80120935B008093570027
:10F99000E89507B600FCFDCF81E180935700E8951C
:10F9A00035C0C05EDE4F88819981AA81BB81C0527B
:10F9B000D140B695A795979587957C018601ABE0D8
:10F9C000AA2EB12CAC0EBD1E0BC0D5016D915D01F0
:10F9D000C7010F947FFE0894E11CF11C01501040F8
:10F9E0000115110591F7A60160E070E0440F551F65
:10F9F000661F771FC05EDE4FE880F9800A811B8199
:10FA0000C052D1404E0D5F1D601F711F1A82C05E33
:10FA1000DE4F488359836A837B83C052D1407FC0C5
:10FA2000FA80C55CDE4FF882CB53D140C65CDE4F16
:10FA30001882CA53D1408B81C82EDD24C65CDE4FAC
:10FA400008811981CA53D140C02AD12A1A828981DA
:10FA5000BE016D5F7F4F843121F59601C05EDE4FA0
:10FA6000E880F9800A811B81C052D1400BBFF701A9
:10FA700087919691DB018C9311969C936E5F7F4FDB
:10FA8000D801C7010296A11DB11DC05EDE4F88835B
:10FA90009983AA83BB83C052D14022503040F1F6F3
:10FAA00036C0C05EDE4F288139814A815B81C052F9
:10FAB000D1400894C108D108760100E010E0089414
:10FAC000C11CD11C0894E11CF11C011D111DE20E8A
:10FAD000F31E041F151F21BDBB27A52F942F832FB5
:10FAE00082BD2F5F3F4F4F4F5F4FF89A80B5DB01CC
:10FAF0008D93BD012E153F054007510761F7C05E8C
:10FB0000DE4F288339834A835B83C052D1409601FC
:10FB10002D5F3F4FFB01108204C080EC8A8322E0FE
:10FB200030E08BE18093C6008091C00086FFFCCF5F
:10FB30008091C00080648093C000C15DDE4FF88179
:10FB4000CF52D140F093C6008091C00086FFFCCF19
:10FB50008091C00080648093C000432F3093C60022
:10FB60008091C00086FFFCCF8091C00080648093AC
:10FB7000C000922F2093C6008091C00086FFFCCF6A
:10FB80008091C00080648093C0008EE08093C600A6
:10FB90008091C00086FFFCCF8091C000806480937C
:10FBA000C00065E1C15DDE4FE880CF52D1406E25D7
:10FBB00069276427FE01319610C090819093C6009A
:10FBC0008091C00086FFFCCF31968091C000806498
:10FBD0008093C0006927215030402115310569F715
:10FBE0006093C6008091C00086FFFCCF8091C0006A
:10FBF00080648093C00085B1805885B9772081F4F6
:10FC0000C15DDE4F0881CF52D1400F5FC15DDE4F35
:10FC10000883CF52D14090E0A0E0B0E00D941AF4F8
:10FC200027982F9880E090E020ED37E0F901319798
:10FC3000F1F7019684369105C9F700008091C00064
:10FC40008D7F8093C00081E180935700E895EE2777
:10FC5000FF270994FFCF90E00D941AF497FB092E2B
:10FC600007260AD077FD04D02ED006D000201AF443
:10FC7000709561957F4F0895F6F7909581959F4F08
:10FC80000895A1E21A2EAA1BBB1BFD010DC0AA1FDD
:10FC9000BB1FEE1FFF1FA217B307E407F50720F0F5
:10FCA000A21BB30BE40BF50B661F771F881F991F70
:10FCB0001A9469F760957095809590959B01AC01B9
:10FCC000BD01CF010895AA1BBB1B51E107C0AA1FAC
:10FCD000BB1FA617B70710F0A61BB70B881F991FED
:10FCE0005A95A9F780959095BC01CD010895F99991
:10FCF000FECF92BD81BDF89A992780B50895262F31
:10FD0000F999FECF1FBA92BD81BD20BD0FB6F89400
:0EFD1000FA9AF99A0FBE01960895F894FFCF63
:040000033000E000E9
:00000001FF